{"contracts/RisePassportNFT.sol":{"RisePassportNFT":{"abi":[{"inputs":[{"internalType":"string","name":"name","type":"string"},{"internalType":"string","name":"symbol","type":"string"},{"internalType":"bytes32","name":"_mintingKeyHash","type":"bytes32"}],"stateMutability":"nonpayable","type":"constructor"},{"inputs":[{"internalType":"address","name":"sender","type":"address"},{"internalType":"uint256","name":"tokenId","type":"uint256"},{"internalType":"address","name":"owner","type":"address"}],"name":"ERC721IncorrectOwner","type":"error"},{"inputs":[{"internalType":"address","name":"operator","type":"address"},{"internalType":"uint256","name":"tokenId","type":"uint256"}],"name":"ERC721InsufficientApproval","type":"error"},{"inputs":[{"internalType":"address","name":"approver","type":"address"}],"name":"ERC721InvalidApprover","type":"error"},{"inputs":[{"internalType":"address","name":"operator","type":"address"}],"name":"ERC721InvalidOperator","type":"error"},{"inputs":[{"internalType":"address","name":"owner","type":"address"}],"name":"ERC721InvalidOwner","type":"error"},{"inputs":[{"internalType":"address","name":"receiver","type":"address"}],"name":"ERC721InvalidReceiver","type":"error"},{"inputs":[{"internalType":"address","name":"sender","type":"address"}],"name":"ERC721InvalidSender","type":"error"},{"inputs":[{"internalType":"uint256","name":"tokenId","type":"uint256"}],"name":"ERC721NonexistentToken","type":"error"},{"inputs":[{"internalType":"address","name":"owner","type":"address"}],"name":"OwnableInvalidOwner","type":"error"},{"inputs":[{"internalType":"address","name":"account","type":"address"}],"name":"OwnableUnauthorizedAccount","type":"error"},{"anonymous":false,"inputs":[{"indexed":true,"internalType":"string","name":"discordId","type":"string"},{"indexed":true,"internalType":"address","name":"oldWallet","type":"address"},{"indexed":true,"internalType":"address","name":"newWallet","type":"address"},{"indexed":false,"internalType":"address","name":"admin","type":"address"}],"name":"AdminWalletOverride","type":"event"},{"anonymous":false,"inputs":[{"indexed":true,"internalType":"address","name":"owner","type":"address"},{"indexed":true,"internalType":"address","name":"approved","type":"address"},{"indexed":true,"internalType":"uint256","name":"tokenId","type":"uint256"}],"name":"Approval","type":"event"},{"anonymous":false,"inputs":[{"indexed":true,"internalType":"address","name":"owner","type":"address"},{"indexed":true,"internalType":"address","name":"operator","type":"address"},{"indexed":false,"internalType":"bool","name":"approved","type":"bool"}],"name":"ApprovalForAll","type":"event"},{"anonymous":false,"inputs":[{"indexed":true,"internalType":"address","name":"previousOwner","type":"address"},{"indexed":true,"internalType":"address","name":"newOwner","type":"address"}],"name":"OwnershipTransferred","type":"event"},{"anonymous":false,"inputs":[{"indexed":true,"internalType":"uint256","name":"tokenId","type":"uint256"},{"indexed":true,"internalType":"address","name":"owner","type":"address"},{"indexed":false,"internalType":"string","name":"discordId","type":"string"},{"indexed":false,"internalType":"string","name":"roleId","type":"string"},{"indexed":false,"internalType":"string","name":"roleName","type":"string"}],"name":"PassportMinted","type":"event"},{"anonymous":false,"inputs":[{"indexed":true,"internalType":"address","name":"from","type":"address"},{"indexed":true,"internalType":"address","name":"to","type":"address"},{"indexed":true,"internalType":"uint256","name":"tokenId","type":"uint256"}],"name":"Transfer","type":"event"},{"anonymous":false,"inputs":[{"indexed":true,"internalType":"string","name":"discordId","type":"string"},{"indexed":true,"internalType":"address","name":"oldWallet","type":"address"},{"indexed":true,"internalType":"address","name":"newWallet","type":"address"}],"name":"WalletUpdated","type":"event"},{"inputs":[{"internalType":"address","name":"","type":"address"},{"internalType":"string","name":"","type":"string"},{"internalType":"string","name":"","type":"string"}],"name":"addressToPassport","outputs":[{"internalType":"uint256","name":"","type":"uint256"}],"stateMutability":"view","type":"function"},{"inputs":[{"internalType":"string","name":"discordId","type":"string"},{"internalType":"address","name":"newWalletAddress","type":"address"}],"name":"adminOverrideWallet","outputs":[],"stateMutability":"nonpayable","type":"function"},{"inputs":[{"internalType":"address","name":"","type":"address"},{"internalType":"uint256","name":"","type":"uint256"}],"name":"approve","outputs":[],"stateMutability":"nonpayable","type":"function"},{"inputs":[{"internalType":"address","name":"owner","type":"address"}],"name":"balanceOf","outputs":[{"internalType":"uint256","name":"","type":"uint256"}],"stateMutability":"view","type":"function"},{"inputs":[{"internalType":"address","name":"owner","type":"address"},{"internalType":"string","name":"discordId","type":"string"},{"internalType":"string","name":"newRoleId","type":"string"}],"name":"canMintHigherRole","outputs":[{"internalType":"bool","name":"","type":"bool"}],"stateMutability":"view","type":"function"},{"inputs":[{"internalType":"string","name":"","type":"string"}],"name":"discordToAddress","outputs":[{"internalType":"address","name":"","type":"address"}],"stateMutability":"view","type":"function"},{"inputs":[{"internalType":"string","name":"discordId","type":"string"}],"name":"getAddressByDiscord","outputs":[{"internalType":"address","name":"","type":"address"}],"stateMutability":"view","type":"function"},{"inputs":[{"internalType":"uint256","name":"tokenId","type":"uint256"}],"name":"getApproved","outputs":[{"internalType":"address","name":"","type":"address"}],"stateMutability":"view","type":"function"},{"inputs":[],"name":"getMintingKeyHash","outputs":[{"internalType":"bytes32","name":"","type":"bytes32"}],"stateMutability":"view","type":"function"},{"inputs":[{"internalType":"uint256","name":"tokenId","type":"uint256"}],"name":"getPassportData","outputs":[{"components":[{"internalType":"address","name":"owner","type":"address"},{"internalType":"string","name":"discordId","type":"string"},{"internalType":"string","name":"roleId","type":"string"},{"internalType":"string","name":"roleName","type":"string"},{"internalType":"uint256","name":"mintedAt","type":"uint256"}],"internalType":"struct RisePassportNFT.PassportData","name":"","type":"tuple"}],"stateMutability":"view","type":"function"},{"inputs":[{"internalType":"address","name":"owner","type":"address"},{"internalType":"string","name":"discordId","type":"string"},{"internalType":"string","name":"roleId","type":"string"}],"name":"getTokenIdByAddressAndDiscord","outputs":[{"internalType":"uint256","name":"","type":"uint256"}],"stateMutability":"view","type":"function"},{"inputs":[{"internalType":"uint256","name":"tokenId","type":"uint256"}],"name":"getTokenSVG","outputs":[{"internalType":"string","name":"","type":"string"}],"stateMutability":"view","type":"function"},{"inputs":[{"internalType":"address","name":"owner","type":"address"},{"internalType":"string","name":"discordId","type":"string"}],"name":"getUserPassports","outputs":[{"internalType":"uint256[]","name":"","type":"uint256[]"}],"stateMutability":"view","type":"function"},{"inputs":[{"internalType":"address","name":"owner","type":"address"},{"internalType":"address","name":"operator","type":"address"}],"name":"isApprovedForAll","outputs":[{"internalType":"bool","name":"","type":"bool"}],"stateMutability":"view","type":"function"},{"inputs":[{"internalType":"string","name":"discordId","type":"string"}],"name":"isDiscordRegistered","outputs":[{"internalType":"bool","name":"","type":"bool"}],"stateMutability":"view","type":"function"},{"inputs":[{"internalType":"address","name":"to","type":"address"},{"internalType":"string","name":"discordId","type":"string"},{"internalType":"string","name":"roleId","type":"string"},{"internalType":"string","name":"roleName","type":"string"},{"internalType":"bytes32","name":"mintingKey","type":"bytes32"},{"internalType":"string","name":"svgData","type":"string"},{"internalType":"string","name":"tokenURI","type":"string"}],"name":"mint","outputs":[{"internalType":"uint256","name":"","type":"uint256"}],"stateMutability":"nonpayable","type":"function"},{"inputs":[],"name":"mintingKeyHash","outputs":[{"internalType":"bytes32","name":"","type":"bytes32"}],"stateMutability":"view","type":"function"},{"inputs":[],"name":"name","outputs":[{"internalType":"string","name":"","type":"string"}],"stateMutability":"view","type":"function"},{"inputs":[],"name":"owner","outputs":[{"internalType":"address","name":"","type":"address"}],"stateMutability":"view","type":"function"},{"inputs":[{"internalType":"uint256","name":"tokenId","type":"uint256"}],"name":"ownerOf","outputs":[{"internalType":"address","name":"","type":"address"}],"stateMutability":"view","type":"function"},{"inputs":[{"internalType":"address","name":"owner","type":"address"},{"internalType":"string","name":"discordId","type":"string"},{"internalType":"string","name":"roleId","type":"string"}],"name":"passportExists","outputs":[{"internalType":"bool","name":"","type":"bool"}],"stateMutability":"view","type":"function"},{"inputs":[{"internalType":"uint256","name":"","type":"uint256"}],"name":"passports","outputs":[{"internalType":"address","name":"owner","type":"address"},{"internalType":"string","name":"discordId","type":"string"},{"internalType":"string","name":"roleId","type":"string"},{"internalType":"string","name":"roleName","type":"string"},{"internalType":"uint256","name":"mintedAt","type":"uint256"}],"stateMutability":"view","type":"function"},{"inputs":[],"name":"renounceOwnership","outputs":[],"stateMutability":"nonpayable","type":"function"},{"inputs":[{"internalType":"address","name":"from","type":"address"},{"internalType":"address","name":"to","type":"address"},{"internalType":"uint256","name":"tokenId","type":"uint256"}],"name":"safeTransferFrom","outputs":[],"stateMutability":"nonpayable","type":"function"},{"inputs":[{"internalType":"address","name":"","type":"address"},{"internalType":"address","name":"","type":"address"},{"internalType":"uint256","name":"","type":"uint256"},{"internalType":"bytes","name":"","type":"bytes"}],"name":"safeTransferFrom","outputs":[],"stateMutability":"nonpayable","type":"function"},{"inputs":[{"internalType":"address","name":"","type":"address"},{"internalType":"bool","name":"","type":"bool"}],"name":"setApprovalForAll","outputs":[],"stateMutability":"nonpayable","type":"function"},{"inputs":[{"internalType":"bytes4","name":"interfaceId","type":"bytes4"}],"name":"supportsInterface","outputs":[{"internalType":"bool","name":"","type":"bool"}],"stateMutability":"view","type":"function"},{"inputs":[],"name":"symbol","outputs":[{"internalType":"string","name":"","type":"string"}],"stateMutability":"view","type":"function"},{"inputs":[{"internalType":"uint256","name":"","type":"uint256"}],"name":"tokenSVG","outputs":[{"internalType":"string","name":"","type":"string"}],"stateMutability":"view","type":"function"},{"inputs":[{"internalType":"uint256","name":"tokenId","type":"uint256"}],"name":"tokenURI","outputs":[{"internalType":"string","name":"","type":"string"}],"stateMutability":"view","type":"function"},{"inputs":[{"internalType":"uint256","name":"tokenId","type":"uint256"},{"internalType":"string","name":"customSVG","type":"string"}],"name":"tokenURIWithSVG","outputs":[{"internalType":"string","name":"","type":"string"}],"stateMutability":"view","type":"function"},{"inputs":[{"internalType":"uint256","name":"","type":"uint256"}],"name":"tokenURIs","outputs":[{"internalType":"string","name":"","type":"string"}],"stateMutability":"view","type":"function"},{"inputs":[],"name":"totalSupply","outputs":[{"internalType":"uint256","name":"","type":"uint256"}],"stateMutability":"view","type":"function"},{"inputs":[{"internalType":"address","name":"","type":"address"},{"internalType":"address","name":"","type":"address"},{"internalType":"uint256","name":"","type":"uint256"}],"name":"transferFrom","outputs":[],"stateMutability":"nonpayable","type":"function"},{"inputs":[{"internalType":"address","name":"newOwner","type":"address"}],"name":"transferOwnership","outputs":[],"stateMutability":"nonpayable","type":"function"},{"inputs":[{"internalType":"bytes32","name":"newMintingKeyHash","type":"bytes32"}],"name":"updateMintingKey","outputs":[],"stateMutability":"nonpayable","type":"function"},{"inputs":[{"internalType":"string","name":"discordId","type":"string"},{"internalType":"address","name":"newWalletAddress","type":"address"}],"name":"updateWalletForDiscord","outputs":[],"stateMutability":"nonpayable","type":"function"}],"evm":{"bytecode":{"linkReferences":{},"object":"60806040523480156200001157600080fd5b5060405162003c1d38038062003c1d8339810160408190526200003491620001b8565b3383836000620000458382620002bc565b506001620000548282620002bc565b5050506001600160a01b0381166200008657604051631e4fbdf760e01b81526000600482015260240160405180910390fd5b62000091816200009e565b50600d5550620003889050565b600680546001600160a01b038381166001600160a01b0319831681179093556040519116919082907f8be0079c531659141344cd1fd0a4f28419497f9722a3daafe3b4186f6b6457e090600090a35050565b634e487b7160e01b600052604160045260246000fd5b600082601f8301126200011857600080fd5b81516001600160401b0380821115620001355762000135620000f0565b604051601f8301601f19908116603f01168101908282118183101715620001605762000160620000f0565b81604052838152602092508660208588010111156200017e57600080fd5b600091505b83821015620001a2578582018301518183018401529082019062000183565b6000602085830101528094505050505092915050565b600080600060608486031215620001ce57600080fd5b83516001600160401b0380821115620001e657600080fd5b620001f48783880162000106565b945060208601519150808211156200020b57600080fd5b506200021a8682870162000106565b925050604084015190509250925092565b600181811c908216806200024057607f821691505b6020821081036200026157634e487b7160e01b600052602260045260246000fd5b50919050565b601f821115620002b7576000816000526020600020601f850160051c81016020861015620002925750805b601f850160051c820191505b81811015620002b3578281556001016200029e565b5050505b505050565b81516001600160401b03811115620002d857620002d8620000f0565b620002f081620002e984546200022b565b8462000267565b602080601f8311600181146200032857600084156200030f5750858301515b600019600386901b1c1916600185901b178555620002b3565b600085815260208120601f198616915b82811015620003595788860151825594840194600190910190840162000338565b5085821015620003785787850151600019600388901b60f8161c191681555b5050505050600190811b01905550565b61388580620003986000396000f3fe608060405234801561001057600080fd5b50600436106102275760003560e01c806377568b0f11610130578063c5d56084116100b8578063d9848faa1161007c578063d9848faa14610502578063de68db7c14610515578063e019c5c414610528578063e985e9c514610548578063f2fde38b1461055b57600080fd5b8063c5d5608414610471578063c7ab2dbc14610484578063c87b56dd14610497578063cb22f5fd146104aa578063d31c2967146104ce57600080fd5b80639bac5f7a116100ff5780639bac5f7a1461041c578063a22cb4651461042f578063a68279311461043d578063aa59766714610450578063b88d4fde1461046357600080fd5b806377568b0f146103e85780638c365e34146103fb5780638da5cb5b1461040357806395d89b411461041457600080fd5b806342842e0e116101b35780636352211e116101825780636352211e146103945780636a10c60b146103a75780636c8b703f146103ba57806370a08231146103cd578063715018a6146103e057600080fd5b806342842e0e146102fd5780634fd81442146103105780635717096514610361578063619fd1581461037457600080fd5b806318160ddd116101fa57806318160ddd146102a95780632392bdbf146102bb57806323b872dd146102ce57806327c70773146102e15780633c2f3fb8146102ea57600080fd5b806301ffc9a71461022c57806306fdde0314610254578063081812fc14610269578063095ea7b314610294575b600080fd5b61023f61023a366004612714565b61056e565b60405190151581526020015b60405180910390f35b61025c6105c0565b60405161024b9190612795565b61027c6102773660046127a8565b610652565b6040516001600160a01b03909116815260200161024b565b6102a76102a23660046127dd565b61067b565b005b6007545b60405190815260200161024b565b61023f6102c93660046128b2565b6106da565b6102a76102dc366004612925565b610736565b6102ad600d5481565b6102ad6102f8366004612961565b610798565b6102a761030b366004612925565b610c2a565b6102ad61031e3660046128b2565b6009602090815260009384526040909320825180840185018051928152908501938501939093209252805180820184018051938152908401919093012091525481565b61023f61036f3660046128b2565b610c45565b6103876103823660046127a8565b610ca0565b60405161024b9190612a4c565b61027c6103a23660046127a8565b610f29565b6102a76103b53660046127a8565b610f34565b61025c6103c83660046127a8565b610f41565b6102ad6103db366004612acd565b610fdb565b6102a7611023565b61025c6103f6366004612ae8565b611037565b600d546102ad565b6006546001600160a01b031661027c565b61025c6112c1565b61025c61042a3660046127a8565b6112d0565b6102a76102a2366004612b2e565b61027c61044b366004612b6a565b6112e9565b6102ad61045e3660046128b2565b61131a565b6102a76102dc366004612b9e565b6102a761047f366004612c61565b611374565b61025c6104923660046127a8565b61156e565b61025c6104a53660046127a8565b61166a565b6104bd6104b83660046127a8565b611a82565b60405161024b959493929190612cb4565b61027c6104dc366004612b6a565b8051602081830181018051600a825292820191909301209152546001600160a01b031681565b6102a7610510366004612c61565b611c53565b61023f610523366004612d11565b611ddd565b61053b610536366004612d52565b611e1e565b60405161024b9190612d89565b61023f610556366004612dc1565b611e3d565b6102a7610569366004612acd565b611e6b565b60006001600160e01b031982166380ac58cd60e01b148061059f57506001600160e01b03198216635b5e139f60e01b145b806105ba57506301ffc9a760e01b6001600160e01b03198316145b92915050565b6060600080546105cf90612df4565b80601f01602080910402602001604051908101604052809291908181526020018280546105fb90612df4565b80156106485780601f1061061d57610100808354040283529160200191610648565b820191906000526020600020905b81548152906001019060200180831161062b57829003601f168201915b5050505050905090565b600061065d82611ea9565b506000828152600460205260409020546001600160a01b03166105ba565b60405162461bcd60e51b815260206004820152602960248201527f546f6b656e20697320736f756c626f756e6420616e642063616e6e6f7420626560448201526808185c1c1c9bdd995960ba1b60648201526084015b60405180910390fd5b6001600160a01b0383166000908152600960205260408082209051610700908590612e4a565b90815260200160405180910390208260405161071c9190612e4a565b908152604051908190036020019020541515949350505050565b60405162461bcd60e51b815260206004820152602c60248201527f546f6b656e20697320736f756c626f756e6420616e642063616e6e6f7420626560448201526b081d1c985b9cd9995c9c995960a21b60648201526084016106d1565b505050565b6000600d54846040516020016107b091815260200190565b60405160208183030381529060405280519060200120146108095760405162461bcd60e51b8152602060048201526013602482015272496e76616c6964206d696e74696e67206b657960681b60448201526064016106d1565b6001600160a01b03881661085f5760405162461bcd60e51b815260206004820152601b60248201527f43616e6e6f74206d696e7420746f207a65726f2061646472657373000000000060448201526064016106d1565b60008751116108805760405162461bcd60e51b81526004016106d190612e66565b60008651116108d15760405162461bcd60e51b815260206004820152601760248201527f526f6c652049442063616e6e6f7420626520656d70747900000000000000000060448201526064016106d1565b6000600a886040516108e39190612e4a565b908152604051908190036020019020546001600160a01b0316905080158061091c5750886001600160a01b0316816001600160a01b0316145b6109855760405162461bcd60e51b815260206004820152603460248201527f446973636f726420494420616c7265616479206173736f636961746564207769604482015273746820646966666572656e74206164647265737360601b60648201526084016106d1565b6001600160a01b0389166000908152600960205260409081902090516109ac908a90612e4a565b9081526020016040518091039020876040516109c89190612e4a565b908152602001604051809103902054600014610a4c5760405162461bcd60e51b815260206004820152603d60248201527f50617373706f727420616c72656164792065786973747320666f72207468697360448201527f20616464726573732c20646973636f726420494420616e6420726f6c6500000060648201526084016106d1565b60078054906000610a5c83612eb3565b90915550506007546040805160a0810182526001600160a01b038c8116825260208083018d81528385018d9052606084018c905242608085015260008681526008909252939020825181546001600160a01b031916921691909117815591519091906001820190610acd9082612f1c565b5060408201516002820190610ae29082612f1c565b5060608201516003820190610af79082612f1c565b50608091909101516004909101556001600160a01b038a16600090815260096020526040908190209051829190610b2f908c90612e4a565b908152602001604051809103902089604051610b4b9190612e4a565b90815260200160405180910390208190555089600a8a604051610b6e9190612e4a565b908152604080516020928190038301902080546001600160a01b0319166001600160a01b0394909416939093179092556000838152600b90915220610bb38682612f1c565b506000818152600c60205260409020610bcc8582612f1c565b50610bd78a82611ee2565b896001600160a01b0316817f9ecb33b76aa10ed8319bbc142ba69de3975cdc249905576cec9419bddaae49a68b8b8b604051610c1593929190612fdb565b60405180910390a39998505050505050505050565b61079383838360405180602001604052806000815250610736565b6001600160a01b0383166000908152600960205260408082209051610c6b908590612e4a565b908152602001604051809103902082604051610c879190612e4a565b9081526040519081900360200190205415949350505050565b610cdb6040518060a0016040528060006001600160a01b03168152602001606081526020016060815260200160608152602001600081525090565b6000828152600260205260409020546001600160a01b0316610d365760405162461bcd60e51b8152602060048201526014602482015273151bdad95b88191bd95cc81b9bdd08195e1a5cdd60621b60448201526064016106d1565b600082815260086020908152604091829020825160a0810190935280546001600160a01b031683526001810180549192840191610d7290612df4565b80601f0160208091040260200160405190810160405280929190818152602001828054610d9e90612df4565b8015610deb5780601f10610dc057610100808354040283529160200191610deb565b820191906000526020600020905b815481529060010190602001808311610dce57829003601f168201915b50505050508152602001600282018054610e0490612df4565b80601f0160208091040260200160405190810160405280929190818152602001828054610e3090612df4565b8015610e7d5780601f10610e5257610100808354040283529160200191610e7d565b820191906000526020600020905b815481529060010190602001808311610e6057829003601f168201915b50505050508152602001600382018054610e9690612df4565b80601f0160208091040260200160405190810160405280929190818152602001828054610ec290612df4565b8015610f0f5780601f10610ee457610100808354040283529160200191610f0f565b820191906000526020600020905b815481529060010190602001808311610ef257829003601f168201915b505050505081526020016004820154815250509050919050565b60006105ba82611ea9565b610f3c611f47565b600d55565b600c6020526000908152604090208054610f5a90612df4565b80601f0160208091040260200160405190810160405280929190818152602001828054610f8690612df4565b8015610fd35780601f10610fa857610100808354040283529160200191610fd3565b820191906000526020600020905b815481529060010190602001808311610fb657829003601f168201915b505050505081565b60006001600160a01b038216611007576040516322718ad960e21b8152600060048201526024016106d1565b506001600160a01b031660009081526003602052604090205490565b61102b611f47565b6110356000611f74565b565b606061104283611ea9565b506000838152600860209081526040808320815160a0810190925280546001600160a01b03168252600181018054929391929184019161108190612df4565b80601f01602080910402602001604051908101604052809291908181526020018280546110ad90612df4565b80156110fa5780601f106110cf576101008083540402835291602001916110fa565b820191906000526020600020905b8154815290600101906020018083116110dd57829003601f168201915b5050505050815260200160028201805461111390612df4565b80601f016020809104026020016040519081016040528092919081815260200182805461113f90612df4565b801561118c5780601f106111615761010080835404028352916020019161118c565b820191906000526020600020905b81548152906001019060200180831161116f57829003601f168201915b505050505081526020016003820180546111a590612df4565b80601f01602080910402602001604051908101604052809291908181526020018280546111d190612df4565b801561121e5780601f106111f35761010080835404028352916020019161121e565b820191906000526020600020905b81548152906001019060200180831161120157829003601f168201915b505050505081526020016004820154815250509050600061123e85611fc6565b826060015161124c866120e8565b8460600151856020015186604001516112688860800151611fc6565b60405160200161127e9796959493929190613139565b6040516020818303038152906040529050611298816120e8565b6040516020016112a8919061352e565b6040516020818303038152906040529250505092915050565b6060600180546105cf90612df4565b600b6020526000908152604090208054610f5a90612df4565b6000600a826040516112fb9190612e4a565b908152604051908190036020019020546001600160a01b031692915050565b6001600160a01b0383166000908152600960205260408082209051611340908590612e4a565b90815260200160405180910390208260405161135c9190612e4a565b90815260200160405180910390205490509392505050565b816113915760405162461bcd60e51b81526004016106d190612e66565b6001600160a01b0381166113b75760405162461bcd60e51b81526004016106d190613573565b60006001600160a01b0316600a84846040516113d49291906135b4565b908152604051908190036020019020546001600160a01b0316036114365760405162461bcd60e51b8152602060048201526019602482015278111a5cd8dbdc99081251081b9bdd081c9959da5cdd195c9959603a1b60448201526064016106d1565b336001600160a01b0316600a84846040516114529291906135b4565b908152604051908190036020019020546001600160a01b0316146114b85760405162461bcd60e51b815260206004820152601e60248201527f4f6e6c792063757272656e742077616c6c65742063616e20757064617465000060448201526064016106d1565b6000600a84846040516114cc9291906135b4565b908152604051908190036020018120546001600160a01b031691508290600a906114f990879087906135b4565b90815260405190819003602001812080546001600160a01b039384166001600160a01b03199091161790558382169183169061153890879087906135b4565b604051908190038120907fd8e98bff5ae8522235ef48daecff7488b367200bea03a4e8cb4bc98108c6a49290600090a450505050565b6000818152600260205260409020546060906001600160a01b03166115cc5760405162461bcd60e51b8152602060048201526014602482015273151bdad95b88191bd95cc81b9bdd08195e1a5cdd60621b60448201526064016106d1565b6000828152600b6020526040902080546115e590612df4565b80601f016020809104026020016040519081016040528092919081815260200182805461161190612df4565b801561165e5780601f106116335761010080835404028352916020019161165e565b820191906000526020600020905b81548152906001019060200180831161164157829003601f168201915b50505050509050919050565b606061167582611ea9565b506000828152600c60205260408120805461168f90612df4565b80601f01602080910402602001604051908101604052809291908181526020018280546116bb90612df4565b80156117085780601f106116dd57610100808354040283529160200191611708565b820191906000526020600020905b8154815290600101906020018083116116eb57829003601f168201915b5050505050905060008151111561171f5792915050565b6000838152600860209081526040808320815160a0810190925280546001600160a01b03168252600181018054929391929184019161175d90612df4565b80601f016020809104026020016040519081016040528092919081815260200182805461178990612df4565b80156117d65780601f106117ab576101008083540402835291602001916117d6565b820191906000526020600020905b8154815290600101906020018083116117b957829003601f168201915b505050505081526020016002820180546117ef90612df4565b80601f016020809104026020016040519081016040528092919081815260200182805461181b90612df4565b80156118685780601f1061183d57610100808354040283529160200191611868565b820191906000526020600020905b81548152906001019060200180831161184b57829003601f168201915b5050505050815260200160038201805461188190612df4565b80601f01602080910402602001604051908101604052809291908181526020018280546118ad90612df4565b80156118fa5780601f106118cf576101008083540402835291602001916118fa565b820191906000526020600020905b8154815290600101906020018083116118dd57829003601f168201915b5050505050815260200160048201548152505090506000600b6000868152602001908152602001600020805461192f90612df4565b80601f016020809104026020016040519081016040528092919081815260200182805461195b90612df4565b80156119a85780601f1061197d576101008083540402835291602001916119a8565b820191906000526020600020905b81548152906001019060200180831161198b57829003601f168201915b505050505090508051600003611a375760006119c386611fc6565b8360600151846020015185604001516119df8760800151611fc6565b6040516020016119f39594939291906135c4565b6040516020818303038152906040529050611a0d816120e8565b604051602001611a1d919061352e565b604051602081830303815290604052945050505050919050565b6000611a4286611fc6565b8360600151611a50846120e8565b856060015186602001518760400151611a6c8960800151611fc6565b6040516020016119f39796959493929190613139565b600860205260009081526040902080546001820180546001600160a01b039092169291611aae90612df4565b80601f0160208091040260200160405190810160405280929190818152602001828054611ada90612df4565b8015611b275780601f10611afc57610100808354040283529160200191611b27565b820191906000526020600020905b815481529060010190602001808311611b0a57829003601f168201915b505050505090806002018054611b3c90612df4565b80601f0160208091040260200160405190810160405280929190818152602001828054611b6890612df4565b8015611bb55780601f10611b8a57610100808354040283529160200191611bb5565b820191906000526020600020905b815481529060010190602001808311611b9857829003601f168201915b505050505090806003018054611bca90612df4565b80601f0160208091040260200160405190810160405280929190818152602001828054611bf690612df4565b8015611c435780601f10611c1857610100808354040283529160200191611c43565b820191906000526020600020905b815481529060010190602001808311611c2657829003601f168201915b5050505050908060040154905085565b611c5b611f47565b81611c785760405162461bcd60e51b81526004016106d190612e66565b6001600160a01b038116611c9e5760405162461bcd60e51b81526004016106d190613573565b60006001600160a01b0316600a8484604051611cbb9291906135b4565b908152604051908190036020019020546001600160a01b031603611d1d5760405162461bcd60e51b8152602060048201526019602482015278111a5cd8dbdc99081251081b9bdd081c9959da5cdd195c9959603a1b60448201526064016106d1565b6000600a8484604051611d319291906135b4565b908152604051908190036020018120546001600160a01b031691508290600a90611d5e90879087906135b4565b90815260405190819003602001812080546001600160a01b039384166001600160a01b031990911617905583821691831690611d9d90879087906135b4565b604051908190038120338252907faa7423b4705d26552953daadd7b95b4cae07a8250703c2b822f7ecf16b3f3b8b9060200160405180910390a450505050565b6000806001600160a01b0316600a8484604051611dfb9291906135b4565b908152604051908190036020019020546001600160a01b03161415905092915050565b6040805160008082526020820190925260609190815b50949350505050565b6001600160a01b03918216600090815260056020908152604080832093909416825291909152205460ff1690565b611e73611f47565b6001600160a01b038116611e9d57604051631e4fbdf760e01b8152600060048201526024016106d1565b611ea681611f74565b50565b6000818152600260205260408120546001600160a01b0316806105ba57604051637e27328960e01b8152600481018490526024016106d1565b6001600160a01b038216611f0c57604051633250574960e11b8152600060048201526024016106d1565b6000611f1a8383600061244b565b90506001600160a01b03811615610793576040516339e3563760e11b8152600060048201526024016106d1565b6006546001600160a01b031633146110355760405163118cdaa760e01b81523360048201526024016106d1565b600680546001600160a01b038381166001600160a01b0319831681179093556040519116919082907f8be0079c531659141344cd1fd0a4f28419497f9722a3daafe3b4186f6b6457e090600090a35050565b606081600003611fed5750506040805180820190915260018152600360fc1b602082015290565b8160005b8115612017578061200181612eb3565b91506120109050600a8361376a565b9150611ff1565b6000816001600160401b0381111561203157612031612807565b6040519080825280601f01601f19166020018201604052801561205b576020820181803683370190505b509050815b8515611e345761207160018261378c565b90506000612080600a8861376a565b61208b90600a61379f565b612095908861378c565b6120a09060306137b6565b905060008160f81b9050808484815181106120bd576120bd6137cf565b60200101906001600160f81b031916908160001a9053506120df600a8961376a565b97505050612060565b60606000604051806060016040528060408152602001613810604091398351909150600081900361212a57505060408051602081019091526000815292915050565b600060036121398360026137e5565b612143919061376a565b61214e90600461379f565b90506000816001600160401b0381111561216a5761216a612807565b6040519080825280601f01601f191660200182016040528015612194576020820181803683370190505b5090506000805b848210156123ea5760008583106121b35760006121d9565b88836121be81612eb3565b9450815181106121d0576121d06137cf565b016020015160f81c5b60ff16905060008684106121ee576000612214565b89846121f981612eb3565b95508151811061220b5761220b6137cf565b016020015160f81c5b60ff169050600087851061222957600061224f565b8a8561223481612eb3565b965081518110612246576122466137cf565b016020015160f81c5b60ff169050600081612269600885901b601087901b6137e5565b61227391906137e5565b905089601282901c603f168151811061228e5761228e6137cf565b01602001516001600160f81b03191687866122a881612eb3565b9750815181106122ba576122ba6137cf565b60200101906001600160f81b031916908160001a90535089600c82901c603f16815181106122ea576122ea6137cf565b01602001516001600160f81b031916878661230481612eb3565b975081518110612316576123166137cf565b60200101906001600160f81b031916908160001a90535089600682901c603f1681518110612346576123466137cf565b01602001516001600160f81b031916878661236081612eb3565b975081518110612372576123726137cf565b60200101906001600160f81b031916908160001a9053508981603f168151811061239e5761239e6137cf565b01602001516001600160f81b03191687866123b881612eb3565b9750815181106123ca576123ca6137cf565b60200101906001600160f81b031916908160001a9053505050505061219b565b60008111801561242857508261240160018361378c565b81518110612411576124116137cf565b6020910101516001600160f81b031916603d60f81b145b1561243f5780612437816137f8565b9150506123ea565b50909695505050505050565b6000828152600260205260408120546001600160a01b039081169083161561247857612478818486612544565b6001600160a01b038116156124b6576124956000856000806125a8565b6001600160a01b038116600090815260036020526040902080546000190190555b6001600160a01b038516156124e5576001600160a01b0385166000908152600360205260409020805460010190555b60008481526002602052604080822080546001600160a01b0319166001600160a01b0389811691821790925591518793918516917fddf252ad1be2c89b69c2b068fc378daa952ba7f163c4a11628f55a4df523b3ef91a4949350505050565b61254f8383836126ae565b610793576001600160a01b03831661257d57604051637e27328960e01b8152600481018290526024016106d1565b60405163177e802f60e01b81526001600160a01b0383166004820152602481018290526044016106d1565b80806125bc57506001600160a01b03821615155b1561267e5760006125cc84611ea9565b90506001600160a01b038316158015906125f85750826001600160a01b0316816001600160a01b031614155b801561260b57506126098184611e3d565b155b156126345760405163a9fbf51f60e01b81526001600160a01b03841660048201526024016106d1565b811561267c5783856001600160a01b0316826001600160a01b03167f8c5be1e5ebec7d5bd14f71427d1e84f3dd0314c0f7b2291e5b200ac8c7c3b92560405160405180910390a45b505b5050600090815260046020526040902080546001600160a01b0319166001600160a01b0392909216919091179055565b60006001600160a01b0383161580159061270c5750826001600160a01b0316846001600160a01b031614806126e857506126e88484611e3d565b8061270c57506000828152600460205260409020546001600160a01b038481169116145b949350505050565b60006020828403121561272657600080fd5b81356001600160e01b03198116811461273e57600080fd5b9392505050565b60005b83811015612760578181015183820152602001612748565b50506000910152565b60008151808452612781816020860160208601612745565b601f01601f19169290920160200192915050565b60208152600061273e6020830184612769565b6000602082840312156127ba57600080fd5b5035919050565b80356001600160a01b03811681146127d857600080fd5b919050565b600080604083850312156127f057600080fd5b6127f9836127c1565b946020939093013593505050565b634e487b7160e01b600052604160045260246000fd5b60006001600160401b038084111561283757612837612807565b604051601f8501601f19908116603f0116810190828211818310171561285f5761285f612807565b8160405280935085815286868601111561287857600080fd5b858560208301376000602087830101525050509392505050565b600082601f8301126128a357600080fd5b61273e8383356020850161281d565b6000806000606084860312156128c757600080fd5b6128d0846127c1565b925060208401356001600160401b03808211156128ec57600080fd5b6128f887838801612892565b9350604086013591508082111561290e57600080fd5b5061291b86828701612892565b9150509250925092565b60008060006060848603121561293a57600080fd5b612943846127c1565b9250612951602085016127c1565b9150604084013590509250925092565b600080600080600080600060e0888a03121561297c57600080fd5b612985886127c1565b965060208801356001600160401b03808211156129a157600080fd5b6129ad8b838c01612892565b975060408a01359150808211156129c357600080fd5b6129cf8b838c01612892565b965060608a01359150808211156129e557600080fd5b6129f18b838c01612892565b955060808a0135945060a08a0135915080821115612a0e57600080fd5b612a1a8b838c01612892565b935060c08a0135915080821115612a3057600080fd5b50612a3d8a828b01612892565b91505092959891949750929550565b602080825282516001600160a01b03168282015282015160a06040830152600090612a7a60c0840182612769565b90506040840151601f1980858403016060860152612a988383612769565b9250606086015191508085840301608086015250612ab68282612769565b915050608084015160a08401528091505092915050565b600060208284031215612adf57600080fd5b61273e826127c1565b60008060408385031215612afb57600080fd5b8235915060208301356001600160401b03811115612b1857600080fd5b612b2485828601612892565b9150509250929050565b60008060408385031215612b4157600080fd5b612b4a836127c1565b915060208301358015158114612b5f57600080fd5b809150509250929050565b600060208284031215612b7c57600080fd5b81356001600160401b03811115612b9257600080fd5b61270c84828501612892565b60008060008060808587031215612bb457600080fd5b612bbd856127c1565b9350612bcb602086016127c1565b92506040850135915060608501356001600160401b03811115612bed57600080fd5b8501601f81018713612bfe57600080fd5b612c0d8782356020840161281d565b91505092959194509250565b60008083601f840112612c2b57600080fd5b5081356001600160401b03811115612c4257600080fd5b602083019150836020828501011115612c5a57600080fd5b9250929050565b600080600060408486031215612c7657600080fd5b83356001600160401b03811115612c8c57600080fd5b612c9886828701612c19565b9094509250612cab9050602085016127c1565b90509250925092565b6001600160a01b038616815260a060208201819052600090612cd890830187612769565b8281036040840152612cea8187612769565b90508281036060840152612cfe8186612769565b9150508260808301529695505050505050565b60008060208385031215612d2457600080fd5b82356001600160401b03811115612d3a57600080fd5b612d4685828601612c19565b90969095509350505050565b60008060408385031215612d6557600080fd5b612d6e836127c1565b915060208301356001600160401b03811115612b1857600080fd5b6020808252825182820181905260009190848201906040850190845b8181101561243f57835183529284019291840191600101612da5565b60008060408385031215612dd457600080fd5b612ddd836127c1565b9150612deb602084016127c1565b90509250929050565b600181811c90821680612e0857607f821691505b602082108103612e2857634e487b7160e01b600052602260045260246000fd5b50919050565b60008151612e40818560208601612745565b9290920192915050565b60008251612e5c818460208701612745565b9190910192915050565b6020808252601a908201527f446973636f72642049442063616e6e6f7420626520656d707479000000000000604082015260600190565b634e487b7160e01b600052601160045260246000fd5b600060018201612ec557612ec5612e9d565b5060010190565b601f821115610793576000816000526020600020601f850160051c81016020861015612ef55750805b601f850160051c820191505b81811015612f1457828155600101612f01565b505050505050565b81516001600160401b03811115612f3557612f35612807565b612f4981612f438454612df4565b84612ecc565b602080601f831160018114612f7e5760008415612f665750858301515b600019600386901b1c1916600185901b178555612f14565b600085815260208120601f198616915b82811015612fad57888601518255948401946001909101908401612f8e565b5085821015612fcb5787850151600019600388901b60f8161c191681555b5050505050600190811b01905550565b606081526000612fee6060830186612769565b82810360208401526130008186612769565b905082810360408401526130148185612769565b9695505050505050565b7f7b2274726169745f74797065223a2022526f6c65222c202276616c7565223a208152601160f91b602082015260210190565b7f7b2274726169745f74797065223a2022446973636f7264204944222c20227661815266363ab2911d101160c91b602082015260270190565b7f7b2274726169745f74797065223a2022526f6c65204944222c202276616c7565815263111d101160e11b602082015260240190565b7f7b2274726169745f74797065223a20224d696e746564204174222c202276616c8152653ab2911d101160d11b602082015260260190565b7f2265787465726e616c5f75726c223a202268747470733a2f2f726973652d706181526e1cdccb9d995c98d95b0b985c1c088b608a1b6020820152602f0190565b787b226e616d65223a2022524953452050617373706f7274202360381b81526000885161316d816019850160208d01612745565b82016131806019820161088b60f21b9052565b7f226465736372697074696f6e223a2022524953452050617373706f7274204e46601b8201527f54202d2041206469676974616c206964656e7469747920746f6b656e20726570603b8201527f726573656e74696e67206d656d6265727368697020696e207468652052495345605b8201527f20636f6d6d756e6974792e5c6e5c6e5468697320736f756c626f756e6420746f607b8201527f6b656e207365727665732061732070726f6f66206f6620796f757220726f6c65609b8201527f20616e6420636f6e747269627574696f6e2077697468696e207468652052495360bb8201527f452065636f73797374656d2e20456163682070617373706f727420697320706560db8201527f726d616e656e746c79206c696e6b656420746f20796f757220446973636f726460fb8201527f206964656e7469747920616e642063616e6e6f74206265207472616e7366657261011b8201527f7265642c20656e737572696e672061757468656e74696320726570726573656e61013b8201527f746174696f6e206f6620796f757220706c61636520696e206f757220636f6d6d61015b8201526f03ab734ba3c972e372e372937b6329d160851b61017b8201526134386134326133fc61335661018b85018d612e2e565b7f5c6e5c6e546869732070617373706f727420726570726573656e747320796f7581527f7220756e6971756520636f6e747269627574696f6e20746f207468652052495360208201527f4520636f6d6d756e69747920616e64207365727665732061732061207065726d60408201527f616e656e74207265636f7264206f6620796f7572206d656d626572736869702e606082015261088b60f21b608082015260820190565b7f22696d616765223a2022646174613a696d6167652f7376672b786d6c3b626173815263194d8d0b60e21b602082015260240190565b89612e2e565b61088b60f21b815290506e2261747472696275746573223a205b60881b600282015261346f6134696011830161301e565b88612e2e565b62089f4b60ea1b8152905061348f61348960038301613051565b87612e2e565b62089f4b60ea1b815290506134af6134a96003830161308a565b86612e2e565b62089f4b60ea1b815290506134cf6134c9600383016130c0565b85612e2e565b61227d60f01b8152905061174b60f21b60028201526134f0600482016130f8565b7f226261636b67726f756e645f636f6c6f72223a202230303030303022000000008152607d60f81b601c820152601d019a9950505050505050505050565b7f646174613a6170706c69636174696f6e2f6a736f6e3b6261736536342c00000081526000825161356681601d850160208701612745565b91909101601d0192915050565b60208082526021908201527f4e65772077616c6c657420616464726573732063616e6e6f74206265207a65726040820152606f60f81b606082015260800190565b8183823760009101908152919050565b787b226e616d65223a2022524953452050617373706f7274202360381b8152600086516135f8816019850160208b01612745565b61088b60f21b601991840191820152613699601b82017f226465736372697074696f6e223a2022524953452050617373706f7274204e4681527f54202d2041206469676974616c206964656e7469747920746f6b656e2072657060208201527f726573656e74696e67206d656d6265727368697020696e20746865205249534560408201526c0818dbdb5b5d5b9a5d1e4b888b609a1b6060820152606d0190565b6e2261747472696275746573223a205b60881b815290506136bf613469600f830161301e565b62089f4b60ea1b815290506136d961348960038301613051565b62089f4b60ea1b815290506136f36134a96003830161308a565b62089f4b60ea1b8152905061370d6134c9600383016130c0565b61227d60f01b8152905061174b60f21b600282015261372e600482016130f8565b7f226261636b67726f756e645f636f6c6f72223a202230303030303022000000008152607d60f81b601c820152601d0198975050505050505050565b60008261378757634e487b7160e01b600052601260045260246000fd5b500490565b818103818111156105ba576105ba612e9d565b80820281158282048414176105ba576105ba612e9d565b60ff81811683821601908111156105ba576105ba612e9d565b634e487b7160e01b600052603260045260246000fd5b808201808211156105ba576105ba612e9d565b60008161380757613807612e9d565b50600019019056fe4142434445464748494a4b4c4d4e4f505152535455565758595a6162636465666768696a6b6c6d6e6f707172737475767778797a303132333435363738392b2fa264697066735822122079247ee6bf281e8dc683ee8f120dbc79f9032db8bfe98a839215b066b380e05364736f6c63430008180033","opcodes":"PUSH1 0x80 PUSH1 0x40 MSTORE CALLVALUE DUP1 ISZERO PUSH3 0x11 JUMPI PUSH1 0x0 DUP1 REVERT JUMPDEST POP PUSH1 0x40 MLOAD PUSH3 0x3C1D CODESIZE SUB DUP1 PUSH3 0x3C1D DUP4 CODECOPY DUP2 ADD PUSH1 0x40 DUP2 SWAP1 MSTORE PUSH3 0x34 SWAP2 PUSH3 0x1B8 JUMP JUMPDEST CALLER DUP4 DUP4 PUSH1 0x0 PUSH3 0x45 DUP4 DUP3 PUSH3 0x2BC JUMP JUMPDEST POP PUSH1 0x1 PUSH3 0x54 DUP3 DUP3 PUSH3 0x2BC JUMP JUMPDEST POP POP POP PUSH1 0x1 PUSH1 0x1 PUSH1 0xA0 SHL SUB DUP2 AND PUSH3 0x86 JUMPI PUSH1 0x40 MLOAD PUSH4 0x1E4FBDF7 PUSH1 0xE0 SHL DUP2 MSTORE PUSH1 0x0 PUSH1 0x4 DUP3 ADD MSTORE PUSH1 0x24 ADD PUSH1 0x40 MLOAD DUP1 SWAP2 SUB SWAP1 REVERT JUMPDEST PUSH3 0x91 DUP2 PUSH3 0x9E JUMP JUMPDEST POP PUSH1 0xD SSTORE POP PUSH3 0x388 SWAP1 POP JUMP JUMPDEST PUSH1 0x6 DUP1 SLOAD PUSH1 0x1 PUSH1 0x1 PUSH1 0xA0 SHL SUB DUP4 DUP2 AND PUSH1 0x1 PUSH1 0x1 PUSH1 0xA0 SHL SUB NOT DUP4 AND DUP2 OR SWAP1 SWAP4 SSTORE PUSH1 0x40 MLOAD SWAP2 AND SWAP2 SWAP1 DUP3 SWAP1 PUSH32 0x8BE0079C531659141344CD1FD0A4F28419497F9722A3DAAFE3B4186F6B6457E0 SWAP1 PUSH1 0x0 SWAP1 LOG3 POP POP JUMP JUMPDEST PUSH4 0x4E487B71 PUSH1 0xE0 SHL PUSH1 0x0 MSTORE PUSH1 0x41 PUSH1 0x4 MSTORE PUSH1 0x24 PUSH1 0x0 REVERT JUMPDEST PUSH1 0x0 DUP3 PUSH1 0x1F DUP4 ADD SLT PUSH3 0x118 JUMPI PUSH1 0x0 DUP1 REVERT JUMPDEST DUP2 MLOAD PUSH1 0x1 PUSH1 0x1 PUSH1 0x40 SHL SUB DUP1 DUP3 GT ISZERO PUSH3 0x135 JUMPI PUSH3 0x135 PUSH3 0xF0 JUMP JUMPDEST PUSH1 0x40 MLOAD PUSH1 0x1F DUP4 ADD PUSH1 0x1F NOT SWAP1 DUP2 AND PUSH1 0x3F ADD AND DUP2 ADD SWAP1 DUP3 DUP3 GT DUP2 DUP4 LT OR ISZERO PUSH3 0x160 JUMPI PUSH3 0x160 PUSH3 0xF0 JUMP JUMPDEST DUP2 PUSH1 0x40 MSTORE DUP4 DUP2 MSTORE PUSH1 0x20 SWAP3 POP DUP7 PUSH1 0x20 DUP6 DUP9 ADD ADD GT ISZERO PUSH3 0x17E JUMPI PUSH1 0x0 DUP1 REVERT JUMPDEST PUSH1 0x0 SWAP2 POP JUMPDEST DUP4 DUP3 LT ISZERO PUSH3 0x1A2 JUMPI DUP6 DUP3 ADD DUP4 ADD MLOAD DUP2 DUP4 ADD DUP5 ADD MSTORE SWAP1 DUP3 ADD SWAP1 PUSH3 0x183 JUMP JUMPDEST PUSH1 0x0 PUSH1 0x20 DUP6 DUP4 ADD ADD MSTORE DUP1 SWAP5 POP POP POP POP POP SWAP3 SWAP2 POP POP JUMP JUMPDEST PUSH1 0x0 DUP1 PUSH1 0x0 PUSH1 0x60 DUP5 DUP7 SUB SLT ISZERO PUSH3 0x1CE JUMPI PUSH1 0x0 DUP1 REVERT JUMPDEST DUP4 MLOAD PUSH1 0x1 PUSH1 0x1 PUSH1 0x40 SHL SUB DUP1 DUP3 GT ISZERO PUSH3 0x1E6 JUMPI PUSH1 0x0 DUP1 REVERT JUMPDEST PUSH3 0x1F4 DUP8 DUP4 DUP9 ADD PUSH3 0x106 JUMP JUMPDEST SWAP5 POP PUSH1 0x20 DUP7 ADD MLOAD SWAP2 POP DUP1 DUP3 GT ISZERO PUSH3 0x20B JUMPI PUSH1 0x0 DUP1 REVERT JUMPDEST POP PUSH3 0x21A DUP7 DUP3 DUP8 ADD PUSH3 0x106 JUMP JUMPDEST SWAP3 POP POP PUSH1 0x40 DUP5 ADD MLOAD SWAP1 POP SWAP3 POP SWAP3 POP SWAP3 JUMP JUMPDEST PUSH1 0x1 DUP2 DUP2 SHR SWAP1 DUP3 AND DUP1 PUSH3 0x240 JUMPI PUSH1 0x7F DUP3 AND SWAP2 POP JUMPDEST PUSH1 0x20 DUP3 LT DUP2 SUB PUSH3 0x261 JUMPI PUSH4 0x4E487B71 PUSH1 0xE0 SHL PUSH1 0x0 MSTORE PUSH1 0x22 PUSH1 0x4 MSTORE PUSH1 0x24 PUSH1 0x0 REVERT JUMPDEST POP SWAP2 SWAP1 POP JUMP JUMPDEST PUSH1 0x1F DUP3 GT ISZERO PUSH3 0x2B7 JUMPI PUSH1 0x0 DUP2 PUSH1 0x0 MSTORE PUSH1 0x20 PUSH1 0x0 KECCAK256 PUSH1 0x1F DUP6 ADD PUSH1 0x5 SHR DUP2 ADD PUSH1 0x20 DUP7 LT ISZERO PUSH3 0x292 JUMPI POP DUP1 JUMPDEST PUSH1 0x1F DUP6 ADD PUSH1 0x5 SHR DUP3 ADD SWAP2 POP JUMPDEST DUP2 DUP2 LT ISZERO PUSH3 0x2B3 JUMPI DUP3 DUP2 SSTORE PUSH1 0x1 ADD PUSH3 0x29E JUMP JUMPDEST POP POP POP JUMPDEST POP POP POP JUMP JUMPDEST DUP2 MLOAD PUSH1 0x1 PUSH1 0x1 PUSH1 0x40 SHL SUB DUP2 GT ISZERO PUSH3 0x2D8 JUMPI PUSH3 0x2D8 PUSH3 0xF0 JUMP JUMPDEST PUSH3 0x2F0 DUP2 PUSH3 0x2E9 DUP5 SLOAD PUSH3 0x22B JUMP JUMPDEST DUP5 PUSH3 0x267 JUMP JUMPDEST PUSH1 0x20 DUP1 PUSH1 0x1F DUP4 GT PUSH1 0x1 DUP2 EQ PUSH3 0x328 JUMPI PUSH1 0x0 DUP5 ISZERO PUSH3 0x30F JUMPI POP DUP6 DUP4 ADD MLOAD JUMPDEST PUSH1 0x0 NOT PUSH1 0x3 DUP7 SWAP1 SHL SHR NOT AND PUSH1 0x1 DUP6 SWAP1 SHL OR DUP6 SSTORE PUSH3 0x2B3 JUMP JUMPDEST PUSH1 0x0 DUP6 DUP2 MSTORE PUSH1 0x20 DUP2 KECCAK256 PUSH1 0x1F NOT DUP7 AND SWAP2 JUMPDEST DUP3 DUP2 LT ISZERO PUSH3 0x359 JUMPI DUP9 DUP7 ADD MLOAD DUP3 SSTORE SWAP5 DUP5 ADD SWAP5 PUSH1 0x1 SWAP1 SWAP2 ADD SWAP1 DUP5 ADD PUSH3 0x338 JUMP JUMPDEST POP DUP6 DUP3 LT ISZERO PUSH3 0x378 JUMPI DUP8 DUP6 ADD MLOAD PUSH1 0x0 NOT PUSH1 0x3 DUP9 SWAP1 SHL PUSH1 0xF8 AND SHR NOT AND DUP2 SSTORE JUMPDEST POP POP POP POP POP PUSH1 0x1 SWAP1 DUP2 SHL ADD SWAP1 SSTORE POP JUMP JUMPDEST PUSH2 0x3885 DUP1 PUSH3 0x398 PUSH1 0x0 CODECOPY PUSH1 0x0 RETURN INVALID PUSH1 0x80 PUSH1 0x40 MSTORE CALLVALUE DUP1 ISZERO PUSH2 0x10 JUMPI PUSH1 0x0 DUP1 REVERT JUMPDEST POP PUSH1 0x4 CALLDATASIZE LT PUSH2 0x227 JUMPI PUSH1 0x0 CALLDATALOAD PUSH1 0xE0 SHR DUP1 PUSH4 0x77568B0F GT PUSH2 0x130 JUMPI DUP1 PUSH4 0xC5D56084 GT PUSH2 0xB8 JUMPI DUP1 PUSH4 0xD9848FAA GT PUSH2 0x7C JUMPI DUP1 PUSH4 0xD9848FAA EQ PUSH2 0x502 JUMPI DUP1 PUSH4 0xDE68DB7C EQ PUSH2 0x515 JUMPI DUP1 PUSH4 0xE019C5C4 EQ PUSH2 0x528 JUMPI DUP1 PUSH4 0xE985E9C5 EQ PUSH2 0x548 JUMPI DUP1 PUSH4 0xF2FDE38B EQ PUSH2 0x55B JUMPI PUSH1 0x0 DUP1 REVERT JUMPDEST DUP1 PUSH4 0xC5D56084 EQ PUSH2 0x471 JUMPI DUP1 PUSH4 0xC7AB2DBC EQ PUSH2 0x484 JUMPI DUP1 PUSH4 0xC87B56DD EQ PUSH2 0x497 JUMPI DUP1 PUSH4 0xCB22F5FD EQ PUSH2 0x4AA JUMPI DUP1 PUSH4 0xD31C2967 EQ PUSH2 0x4CE JUMPI PUSH1 0x0 DUP1 REVERT JUMPDEST DUP1 PUSH4 0x9BAC5F7A GT PUSH2 0xFF JUMPI DUP1 PUSH4 0x9BAC5F7A EQ PUSH2 0x41C JUMPI DUP1 PUSH4 0xA22CB465 EQ PUSH2 0x42F JUMPI DUP1 PUSH4 0xA6827931 EQ PUSH2 0x43D JUMPI DUP1 PUSH4 0xAA597667 EQ PUSH2 0x450 JUMPI DUP1 PUSH4 0xB88D4FDE EQ PUSH2 0x463 JUMPI PUSH1 0x0 DUP1 REVERT JUMPDEST DUP1 PUSH4 0x77568B0F EQ PUSH2 0x3E8 JUMPI DUP1 PUSH4 0x8C365E34 EQ PUSH2 0x3FB JUMPI DUP1 PUSH4 0x8DA5CB5B EQ PUSH2 0x403 JUMPI DUP1 PUSH4 0x95D89B41 EQ PUSH2 0x414 JUMPI PUSH1 0x0 DUP1 REVERT JUMPDEST DUP1 PUSH4 0x42842E0E GT PUSH2 0x1B3 JUMPI DUP1 PUSH4 0x6352211E GT PUSH2 0x182 JUMPI DUP1 PUSH4 0x6352211E EQ PUSH2 0x394 JUMPI DUP1 PUSH4 0x6A10C60B EQ PUSH2 0x3A7 JUMPI DUP1 PUSH4 0x6C8B703F EQ PUSH2 0x3BA JUMPI DUP1 PUSH4 0x70A08231 EQ PUSH2 0x3CD JUMPI DUP1 PUSH4 0x715018A6 EQ PUSH2 0x3E0 JUMPI PUSH1 0x0 DUP1 REVERT JUMPDEST DUP1 PUSH4 0x42842E0E EQ PUSH2 0x2FD JUMPI DUP1 PUSH4 0x4FD81442 EQ PUSH2 0x310 JUMPI DUP1 PUSH4 0x57170965 EQ PUSH2 0x361 JUMPI DUP1 PUSH4 0x619FD158 EQ PUSH2 0x374 JUMPI PUSH1 0x0 DUP1 REVERT JUMPDEST DUP1 PUSH4 0x18160DDD GT PUSH2 0x1FA JUMPI DUP1 PUSH4 0x18160DDD EQ PUSH2 0x2A9 JUMPI DUP1 PUSH4 0x2392BDBF EQ PUSH2 0x2BB JUMPI DUP1 PUSH4 0x23B872DD EQ PUSH2 0x2CE JUMPI DUP1 PUSH4 0x27C70773 EQ PUSH2 0x2E1 JUMPI DUP1 PUSH4 0x3C2F3FB8 EQ PUSH2 0x2EA JUMPI PUSH1 0x0 DUP1 REVERT JUMPDEST DUP1 PUSH4 0x1FFC9A7 EQ PUSH2 0x22C JUMPI DUP1 PUSH4 0x6FDDE03 EQ PUSH2 0x254 JUMPI DUP1 PUSH4 0x81812FC EQ PUSH2 0x269 JUMPI DUP1 PUSH4 0x95EA7B3 EQ PUSH2 0x294 JUMPI JUMPDEST PUSH1 0x0 DUP1 REVERT JUMPDEST PUSH2 0x23F PUSH2 0x23A CALLDATASIZE PUSH1 0x4 PUSH2 0x2714 JUMP JUMPDEST PUSH2 0x56E JUMP JUMPDEST PUSH1 0x40 MLOAD SWAP1 ISZERO ISZERO DUP2 MSTORE PUSH1 0x20 ADD JUMPDEST PUSH1 0x40 MLOAD DUP1 SWAP2 SUB SWAP1 RETURN JUMPDEST PUSH2 0x25C PUSH2 0x5C0 JUMP JUMPDEST PUSH1 0x40 MLOAD PUSH2 0x24B SWAP2 SWAP1 PUSH2 0x2795 JUMP JUMPDEST PUSH2 0x27C PUSH2 0x277 CALLDATASIZE PUSH1 0x4 PUSH2 0x27A8 JUMP JUMPDEST PUSH2 0x652 JUMP JUMPDEST PUSH1 0x40 MLOAD PUSH1 0x1 PUSH1 0x1 PUSH1 0xA0 SHL SUB SWAP1 SWAP2 AND DUP2 MSTORE PUSH1 0x20 ADD PUSH2 0x24B JUMP JUMPDEST PUSH2 0x2A7 PUSH2 0x2A2 CALLDATASIZE PUSH1 0x4 PUSH2 0x27DD JUMP JUMPDEST PUSH2 0x67B JUMP JUMPDEST STOP JUMPDEST PUSH1 0x7 SLOAD JUMPDEST PUSH1 0x40 MLOAD SWAP1 DUP2 MSTORE PUSH1 0x20 ADD PUSH2 0x24B JUMP JUMPDEST PUSH2 0x23F PUSH2 0x2C9 CALLDATASIZE PUSH1 0x4 PUSH2 0x28B2 JUMP JUMPDEST PUSH2 0x6DA JUMP JUMPDEST PUSH2 0x2A7 PUSH2 0x2DC CALLDATASIZE PUSH1 0x4 PUSH2 0x2925 JUMP JUMPDEST PUSH2 0x736 JUMP JUMPDEST PUSH2 0x2AD PUSH1 0xD SLOAD DUP2 JUMP JUMPDEST PUSH2 0x2AD PUSH2 0x2F8 CALLDATASIZE PUSH1 0x4 PUSH2 0x2961 JUMP JUMPDEST PUSH2 0x798 JUMP JUMPDEST PUSH2 0x2A7 PUSH2 0x30B CALLDATASIZE PUSH1 0x4 PUSH2 0x2925 JUMP JUMPDEST PUSH2 0xC2A JUMP JUMPDEST PUSH2 0x2AD PUSH2 0x31E CALLDATASIZE PUSH1 0x4 PUSH2 0x28B2 JUMP JUMPDEST PUSH1 0x9 PUSH1 0x20 SWAP1 DUP2 MSTORE PUSH1 0x0 SWAP4 DUP5 MSTORE PUSH1 0x40 SWAP1 SWAP4 KECCAK256 DUP3 MLOAD DUP1 DUP5 ADD DUP6 ADD DUP1 MLOAD SWAP3 DUP2 MSTORE SWAP1 DUP6 ADD SWAP4 DUP6 ADD SWAP4 SWAP1 SWAP4 KECCAK256 SWAP3 MSTORE DUP1 MLOAD DUP1 DUP3 ADD DUP5 ADD DUP1 MLOAD SWAP4 DUP2 MSTORE SWAP1 DUP5 ADD SWAP2 SWAP1 SWAP4 ADD KECCAK256 SWAP2 MSTORE SLOAD DUP2 JUMP JUMPDEST PUSH2 0x23F PUSH2 0x36F CALLDATASIZE PUSH1 0x4 PUSH2 0x28B2 JUMP JUMPDEST PUSH2 0xC45 JUMP JUMPDEST PUSH2 0x387 PUSH2 0x382 CALLDATASIZE PUSH1 0x4 PUSH2 0x27A8 JUMP JUMPDEST PUSH2 0xCA0 JUMP JUMPDEST PUSH1 0x40 MLOAD PUSH2 0x24B SWAP2 SWAP1 PUSH2 0x2A4C JUMP JUMPDEST PUSH2 0x27C PUSH2 0x3A2 CALLDATASIZE PUSH1 0x4 PUSH2 0x27A8 JUMP JUMPDEST PUSH2 0xF29 JUMP JUMPDEST PUSH2 0x2A7 PUSH2 0x3B5 CALLDATASIZE PUSH1 0x4 PUSH2 0x27A8 JUMP JUMPDEST PUSH2 0xF34 JUMP JUMPDEST PUSH2 0x25C PUSH2 0x3C8 CALLDATASIZE PUSH1 0x4 PUSH2 0x27A8 JUMP JUMPDEST PUSH2 0xF41 JUMP JUMPDEST PUSH2 0x2AD PUSH2 0x3DB CALLDATASIZE PUSH1 0x4 PUSH2 0x2ACD JUMP JUMPDEST PUSH2 0xFDB JUMP JUMPDEST PUSH2 0x2A7 PUSH2 0x1023 JUMP JUMPDEST PUSH2 0x25C PUSH2 0x3F6 CALLDATASIZE PUSH1 0x4 PUSH2 0x2AE8 JUMP JUMPDEST PUSH2 0x1037 JUMP JUMPDEST PUSH1 0xD SLOAD PUSH2 0x2AD JUMP JUMPDEST PUSH1 0x6 SLOAD PUSH1 0x1 PUSH1 0x1 PUSH1 0xA0 SHL SUB AND PUSH2 0x27C JUMP JUMPDEST PUSH2 0x25C PUSH2 0x12C1 JUMP JUMPDEST PUSH2 0x25C PUSH2 0x42A CALLDATASIZE PUSH1 0x4 PUSH2 0x27A8 JUMP JUMPDEST PUSH2 0x12D0 JUMP JUMPDEST PUSH2 0x2A7 PUSH2 0x2A2 CALLDATASIZE PUSH1 0x4 PUSH2 0x2B2E JUMP JUMPDEST PUSH2 0x27C PUSH2 0x44B CALLDATASIZE PUSH1 0x4 PUSH2 0x2B6A JUMP JUMPDEST PUSH2 0x12E9 JUMP JUMPDEST PUSH2 0x2AD PUSH2 0x45E CALLDATASIZE PUSH1 0x4 PUSH2 0x28B2 JUMP JUMPDEST PUSH2 0x131A JUMP JUMPDEST PUSH2 0x2A7 PUSH2 0x2DC CALLDATASIZE PUSH1 0x4 PUSH2 0x2B9E JUMP JUMPDEST PUSH2 0x2A7 PUSH2 0x47F CALLDATASIZE PUSH1 0x4 PUSH2 0x2C61 JUMP JUMPDEST PUSH2 0x1374 JUMP JUMPDEST PUSH2 0x25C PUSH2 0x492 CALLDATASIZE PUSH1 0x4 PUSH2 0x27A8 JUMP JUMPDEST PUSH2 0x156E JUMP JUMPDEST PUSH2 0x25C PUSH2 0x4A5 CALLDATASIZE PUSH1 0x4 PUSH2 0x27A8 JUMP JUMPDEST PUSH2 0x166A JUMP JUMPDEST PUSH2 0x4BD PUSH2 0x4B8 CALLDATASIZE PUSH1 0x4 PUSH2 0x27A8 JUMP JUMPDEST PUSH2 0x1A82 JUMP JUMPDEST PUSH1 0x40 MLOAD PUSH2 0x24B SWAP6 SWAP5 SWAP4 SWAP3 SWAP2 SWAP1 PUSH2 0x2CB4 JUMP JUMPDEST PUSH2 0x27C PUSH2 0x4DC CALLDATASIZE PUSH1 0x4 PUSH2 0x2B6A JUMP JUMPDEST DUP1 MLOAD PUSH1 0x20 DUP2 DUP4 ADD DUP2 ADD DUP1 MLOAD PUSH1 0xA DUP3 MSTORE SWAP3 DUP3 ADD SWAP2 SWAP1 SWAP4 ADD KECCAK256 SWAP2 MSTORE SLOAD PUSH1 0x1 PUSH1 0x1 PUSH1 0xA0 SHL SUB AND DUP2 JUMP JUMPDEST PUSH2 0x2A7 PUSH2 0x510 CALLDATASIZE PUSH1 0x4 PUSH2 0x2C61 JUMP JUMPDEST PUSH2 0x1C53 JUMP JUMPDEST PUSH2 0x23F PUSH2 0x523 CALLDATASIZE PUSH1 0x4 PUSH2 0x2D11 JUMP JUMPDEST PUSH2 0x1DDD JUMP JUMPDEST PUSH2 0x53B PUSH2 0x536 CALLDATASIZE PUSH1 0x4 PUSH2 0x2D52 JUMP JUMPDEST PUSH2 0x1E1E JUMP JUMPDEST PUSH1 0x40 MLOAD PUSH2 0x24B SWAP2 SWAP1 PUSH2 0x2D89 JUMP JUMPDEST PUSH2 0x23F PUSH2 0x556 CALLDATASIZE PUSH1 0x4 PUSH2 0x2DC1 JUMP JUMPDEST PUSH2 0x1E3D JUMP JUMPDEST PUSH2 0x2A7 PUSH2 0x569 CALLDATASIZE PUSH1 0x4 PUSH2 0x2ACD JUMP JUMPDEST PUSH2 0x1E6B JUMP JUMPDEST PUSH1 0x0 PUSH1 0x1 PUSH1 0x1 PUSH1 0xE0 SHL SUB NOT DUP3 AND PUSH4 0x80AC58CD PUSH1 0xE0 SHL EQ DUP1 PUSH2 0x59F JUMPI POP PUSH1 0x1 PUSH1 0x1 PUSH1 0xE0 SHL SUB NOT DUP3 AND PUSH4 0x5B5E139F PUSH1 0xE0 SHL EQ JUMPDEST DUP1 PUSH2 0x5BA JUMPI POP PUSH4 0x1FFC9A7 PUSH1 0xE0 SHL PUSH1 0x1 PUSH1 0x1 PUSH1 0xE0 SHL SUB NOT DUP4 AND EQ JUMPDEST SWAP3 SWAP2 POP POP JUMP JUMPDEST PUSH1 0x60 PUSH1 0x0 DUP1 SLOAD PUSH2 0x5CF SWAP1 PUSH2 0x2DF4 JUMP JUMPDEST DUP1 PUSH1 0x1F ADD PUSH1 0x20 DUP1 SWAP2 DIV MUL PUSH1 0x20 ADD PUSH1 0x40 MLOAD SWAP1 DUP2 ADD PUSH1 0x40 MSTORE DUP1 SWAP3 SWAP2 SWAP1 DUP2 DUP2 MSTORE PUSH1 0x20 ADD DUP3 DUP1 SLOAD PUSH2 0x5FB SWAP1 PUSH2 0x2DF4 JUMP JUMPDEST DUP1 ISZERO PUSH2 0x648 JUMPI DUP1 PUSH1 0x1F LT PUSH2 0x61D JUMPI PUSH2 0x100 DUP1 DUP4 SLOAD DIV MUL DUP4 MSTORE SWAP2 PUSH1 0x20 ADD SWAP2 PUSH2 0x648 JUMP JUMPDEST DUP3 ADD SWAP2 SWAP1 PUSH1 0x0 MSTORE PUSH1 0x20 PUSH1 0x0 KECCAK256 SWAP1 JUMPDEST DUP2 SLOAD DUP2 MSTORE SWAP1 PUSH1 0x1 ADD SWAP1 PUSH1 0x20 ADD DUP1 DUP4 GT PUSH2 0x62B JUMPI DUP3 SWAP1 SUB PUSH1 0x1F AND DUP3 ADD SWAP2 JUMPDEST POP POP POP POP POP SWAP1 POP SWAP1 JUMP JUMPDEST PUSH1 0x0 PUSH2 0x65D DUP3 PUSH2 0x1EA9 JUMP JUMPDEST POP PUSH1 0x0 DUP3 DUP2 MSTORE PUSH1 0x4 PUSH1 0x20 MSTORE PUSH1 0x40 SWAP1 KECCAK256 SLOAD PUSH1 0x1 PUSH1 0x1 PUSH1 0xA0 SHL SUB AND PUSH2 0x5BA JUMP JUMPDEST PUSH1 0x40 MLOAD PUSH3 0x461BCD PUSH1 0xE5 SHL DUP2 MSTORE PUSH1 0x20 PUSH1 0x4 DUP3 ADD MSTORE PUSH1 0x29 PUSH1 0x24 DUP3 ADD MSTORE PUSH32 0x546F6B656E20697320736F756C626F756E6420616E642063616E6E6F74206265 PUSH1 0x44 DUP3 ADD MSTORE PUSH9 0x8185C1C1C9BDD9959 PUSH1 0xBA SHL PUSH1 0x64 DUP3 ADD MSTORE PUSH1 0x84 ADD JUMPDEST PUSH1 0x40 MLOAD DUP1 SWAP2 SUB SWAP1 REVERT JUMPDEST PUSH1 0x1 PUSH1 0x1 PUSH1 0xA0 SHL SUB DUP4 AND PUSH1 0x0 SWAP1 DUP2 MSTORE PUSH1 0x9 PUSH1 0x20 MSTORE PUSH1 0x40 DUP1 DUP3 KECCAK256 SWAP1 MLOAD PUSH2 0x700 SWAP1 DUP6 SWAP1 PUSH2 0x2E4A JUMP JUMPDEST SWAP1 DUP2 MSTORE PUSH1 0x20 ADD PUSH1 0x40 MLOAD DUP1 SWAP2 SUB SWAP1 KECCAK256 DUP3 PUSH1 0x40 MLOAD PUSH2 0x71C SWAP2 SWAP1 PUSH2 0x2E4A JUMP JUMPDEST SWAP1 DUP2 MSTORE PUSH1 0x40 MLOAD SWAP1 DUP2 SWAP1 SUB PUSH1 0x20 ADD SWAP1 KECCAK256 SLOAD ISZERO ISZERO SWAP5 SWAP4 POP POP POP POP JUMP JUMPDEST PUSH1 0x40 MLOAD PUSH3 0x461BCD PUSH1 0xE5 SHL DUP2 MSTORE PUSH1 0x20 PUSH1 0x4 DUP3 ADD MSTORE PUSH1 0x2C PUSH1 0x24 DUP3 ADD MSTORE PUSH32 0x546F6B656E20697320736F756C626F756E6420616E642063616E6E6F74206265 PUSH1 0x44 DUP3 ADD MSTORE PUSH12 0x81D1C985B9CD9995C9C9959 PUSH1 0xA2 SHL PUSH1 0x64 DUP3 ADD MSTORE PUSH1 0x84 ADD PUSH2 0x6D1 JUMP JUMPDEST POP POP POP JUMP JUMPDEST PUSH1 0x0 PUSH1 0xD SLOAD DUP5 PUSH1 0x40 MLOAD PUSH1 0x20 ADD PUSH2 0x7B0 SWAP2 DUP2 MSTORE PUSH1 0x20 ADD SWAP1 JUMP JUMPDEST PUSH1 0x40 MLOAD PUSH1 0x20 DUP2 DUP4 SUB SUB DUP2 MSTORE SWAP1 PUSH1 0x40 MSTORE DUP1 MLOAD SWAP1 PUSH1 0x20 ADD KECCAK256 EQ PUSH2 0x809 JUMPI PUSH1 0x40 MLOAD PUSH3 0x461BCD PUSH1 0xE5 SHL DUP2 MSTORE PUSH1 0x20 PUSH1 0x4 DUP3 ADD MSTORE PUSH1 0x13 PUSH1 0x24 DUP3 ADD MSTORE PUSH19 0x496E76616C6964206D696E74696E67206B6579 PUSH1 0x68 SHL PUSH1 0x44 DUP3 ADD MSTORE PUSH1 0x64 ADD PUSH2 0x6D1 JUMP JUMPDEST PUSH1 0x1 PUSH1 0x1 PUSH1 0xA0 SHL SUB DUP9 AND PUSH2 0x85F JUMPI PUSH1 0x40 MLOAD PUSH3 0x461BCD PUSH1 0xE5 SHL DUP2 MSTORE PUSH1 0x20 PUSH1 0x4 DUP3 ADD MSTORE PUSH1 0x1B PUSH1 0x24 DUP3 ADD MSTORE PUSH32 0x43616E6E6F74206D696E7420746F207A65726F20616464726573730000000000 PUSH1 0x44 DUP3 ADD MSTORE PUSH1 0x64 ADD PUSH2 0x6D1 JUMP JUMPDEST PUSH1 0x0 DUP8 MLOAD GT PUSH2 0x880 JUMPI PUSH1 0x40 MLOAD PUSH3 0x461BCD PUSH1 0xE5 SHL DUP2 MSTORE PUSH1 0x4 ADD PUSH2 0x6D1 SWAP1 PUSH2 0x2E66 JUMP JUMPDEST PUSH1 0x0 DUP7 MLOAD GT PUSH2 0x8D1 JUMPI PUSH1 0x40 MLOAD PUSH3 0x461BCD PUSH1 0xE5 SHL DUP2 MSTORE PUSH1 0x20 PUSH1 0x4 DUP3 ADD MSTORE PUSH1 0x17 PUSH1 0x24 DUP3 ADD MSTORE PUSH32 0x526F6C652049442063616E6E6F7420626520656D707479000000000000000000 PUSH1 0x44 DUP3 ADD MSTORE PUSH1 0x64 ADD PUSH2 0x6D1 JUMP JUMPDEST PUSH1 0x0 PUSH1 0xA DUP9 PUSH1 0x40 MLOAD PUSH2 0x8E3 SWAP2 SWAP1 PUSH2 0x2E4A JUMP JUMPDEST SWAP1 DUP2 MSTORE PUSH1 0x40 MLOAD SWAP1 DUP2 SWAP1 SUB PUSH1 0x20 ADD SWAP1 KECCAK256 SLOAD PUSH1 0x1 PUSH1 0x1 PUSH1 0xA0 SHL SUB AND SWAP1 POP DUP1 ISZERO DUP1 PUSH2 0x91C JUMPI POP DUP9 PUSH1 0x1 PUSH1 0x1 PUSH1 0xA0 SHL SUB AND DUP2 PUSH1 0x1 PUSH1 0x1 PUSH1 0xA0 SHL SUB AND EQ JUMPDEST PUSH2 0x985 JUMPI PUSH1 0x40 MLOAD PUSH3 0x461BCD PUSH1 0xE5 SHL DUP2 MSTORE PUSH1 0x20 PUSH1 0x4 DUP3 ADD MSTORE PUSH1 0x34 PUSH1 0x24 DUP3 ADD MSTORE PUSH32 0x446973636F726420494420616C7265616479206173736F636961746564207769 PUSH1 0x44 DUP3 ADD MSTORE PUSH20 0x746820646966666572656E742061646472657373 PUSH1 0x60 SHL PUSH1 0x64 DUP3 ADD MSTORE PUSH1 0x84 ADD PUSH2 0x6D1 JUMP JUMPDEST PUSH1 0x1 PUSH1 0x1 PUSH1 0xA0 SHL SUB DUP10 AND PUSH1 0x0 SWAP1 DUP2 MSTORE PUSH1 0x9 PUSH1 0x20 MSTORE PUSH1 0x40 SWAP1 DUP2 SWAP1 KECCAK256 SWAP1 MLOAD PUSH2 0x9AC SWAP1 DUP11 SWAP1 PUSH2 0x2E4A JUMP JUMPDEST SWAP1 DUP2 MSTORE PUSH1 0x20 ADD PUSH1 0x40 MLOAD DUP1 SWAP2 SUB SWAP1 KECCAK256 DUP8 PUSH1 0x40 MLOAD PUSH2 0x9C8 SWAP2 SWAP1 PUSH2 0x2E4A JUMP JUMPDEST SWAP1 DUP2 MSTORE PUSH1 0x20 ADD PUSH1 0x40 MLOAD DUP1 SWAP2 SUB SWAP1 KECCAK256 SLOAD PUSH1 0x0 EQ PUSH2 0xA4C JUMPI PUSH1 0x40 MLOAD PUSH3 0x461BCD PUSH1 0xE5 SHL DUP2 MSTORE PUSH1 0x20 PUSH1 0x4 DUP3 ADD MSTORE PUSH1 0x3D PUSH1 0x24 DUP3 ADD MSTORE PUSH32 0x50617373706F727420616C72656164792065786973747320666F722074686973 PUSH1 0x44 DUP3 ADD MSTORE PUSH32 0x20616464726573732C20646973636F726420494420616E6420726F6C65000000 PUSH1 0x64 DUP3 ADD MSTORE PUSH1 0x84 ADD PUSH2 0x6D1 JUMP JUMPDEST PUSH1 0x7 DUP1 SLOAD SWAP1 PUSH1 0x0 PUSH2 0xA5C DUP4 PUSH2 0x2EB3 JUMP JUMPDEST SWAP1 SWAP2 SSTORE POP POP PUSH1 0x7 SLOAD PUSH1 0x40 DUP1 MLOAD PUSH1 0xA0 DUP2 ADD DUP3 MSTORE PUSH1 0x1 PUSH1 0x1 PUSH1 0xA0 SHL SUB DUP13 DUP2 AND DUP3 MSTORE PUSH1 0x20 DUP1 DUP4 ADD DUP14 DUP2 MSTORE DUP4 DUP6 ADD DUP14 SWAP1 MSTORE PUSH1 0x60 DUP5 ADD DUP13 SWAP1 MSTORE TIMESTAMP PUSH1 0x80 DUP6 ADD MSTORE PUSH1 0x0 DUP7 DUP2 MSTORE PUSH1 0x8 SWAP1 SWAP3 MSTORE SWAP4 SWAP1 KECCAK256 DUP3 MLOAD DUP2 SLOAD PUSH1 0x1 PUSH1 0x1 PUSH1 0xA0 SHL SUB NOT AND SWAP3 AND SWAP2 SWAP1 SWAP2 OR DUP2 SSTORE SWAP2 MLOAD SWAP1 SWAP2 SWAP1 PUSH1 0x1 DUP3 ADD SWAP1 PUSH2 0xACD SWAP1 DUP3 PUSH2 0x2F1C JUMP JUMPDEST POP PUSH1 0x40 DUP3 ADD MLOAD PUSH1 0x2 DUP3 ADD SWAP1 PUSH2 0xAE2 SWAP1 DUP3 PUSH2 0x2F1C JUMP JUMPDEST POP PUSH1 0x60 DUP3 ADD MLOAD PUSH1 0x3 DUP3 ADD SWAP1 PUSH2 0xAF7 SWAP1 DUP3 PUSH2 0x2F1C JUMP JUMPDEST POP PUSH1 0x80 SWAP2 SWAP1 SWAP2 ADD MLOAD PUSH1 0x4 SWAP1 SWAP2 ADD SSTORE PUSH1 0x1 PUSH1 0x1 PUSH1 0xA0 SHL SUB DUP11 AND PUSH1 0x0 SWAP1 DUP2 MSTORE PUSH1 0x9 PUSH1 0x20 MSTORE PUSH1 0x40 SWAP1 DUP2 SWAP1 KECCAK256 SWAP1 MLOAD DUP3 SWAP2 SWAP1 PUSH2 0xB2F SWAP1 DUP13 SWAP1 PUSH2 0x2E4A JUMP JUMPDEST SWAP1 DUP2 MSTORE PUSH1 0x20 ADD PUSH1 0x40 MLOAD DUP1 SWAP2 SUB SWAP1 KECCAK256 DUP10 PUSH1 0x40 MLOAD PUSH2 0xB4B SWAP2 SWAP1 PUSH2 0x2E4A JUMP JUMPDEST SWAP1 DUP2 MSTORE PUSH1 0x20 ADD PUSH1 0x40 MLOAD DUP1 SWAP2 SUB SWAP1 KECCAK256 DUP2 SWAP1 SSTORE POP DUP10 PUSH1 0xA DUP11 PUSH1 0x40 MLOAD PUSH2 0xB6E SWAP2 SWAP1 PUSH2 0x2E4A JUMP JUMPDEST SWAP1 DUP2 MSTORE PUSH1 0x40 DUP1 MLOAD PUSH1 0x20 SWAP3 DUP2 SWAP1 SUB DUP4 ADD SWAP1 KECCAK256 DUP1 SLOAD PUSH1 0x1 PUSH1 0x1 PUSH1 0xA0 SHL SUB NOT AND PUSH1 0x1 PUSH1 0x1 PUSH1 0xA0 SHL SUB SWAP5 SWAP1 SWAP5 AND SWAP4 SWAP1 SWAP4 OR SWAP1 SWAP3 SSTORE PUSH1 0x0 DUP4 DUP2 MSTORE PUSH1 0xB SWAP1 SWAP2 MSTORE KECCAK256 PUSH2 0xBB3 DUP7 DUP3 PUSH2 0x2F1C JUMP JUMPDEST POP PUSH1 0x0 DUP2 DUP2 MSTORE PUSH1 0xC PUSH1 0x20 MSTORE PUSH1 0x40 SWAP1 KECCAK256 PUSH2 0xBCC DUP6 DUP3 PUSH2 0x2F1C JUMP JUMPDEST POP PUSH2 0xBD7 DUP11 DUP3 PUSH2 0x1EE2 JUMP JUMPDEST DUP10 PUSH1 0x1 PUSH1 0x1 PUSH1 0xA0 SHL SUB AND DUP2 PUSH32 0x9ECB33B76AA10ED8319BBC142BA69DE3975CDC249905576CEC9419BDDAAE49A6 DUP12 DUP12 DUP12 PUSH1 0x40 MLOAD PUSH2 0xC15 SWAP4 SWAP3 SWAP2 SWAP1 PUSH2 0x2FDB JUMP JUMPDEST PUSH1 0x40 MLOAD DUP1 SWAP2 SUB SWAP1 LOG3 SWAP10 SWAP9 POP POP POP POP POP POP POP POP POP JUMP JUMPDEST PUSH2 0x793 DUP4 DUP4 DUP4 PUSH1 0x40 MLOAD DUP1 PUSH1 0x20 ADD PUSH1 0x40 MSTORE DUP1 PUSH1 0x0 DUP2 MSTORE POP PUSH2 0x736 JUMP JUMPDEST PUSH1 0x1 PUSH1 0x1 PUSH1 0xA0 SHL SUB DUP4 AND PUSH1 0x0 SWAP1 DUP2 MSTORE PUSH1 0x9 PUSH1 0x20 MSTORE PUSH1 0x40 DUP1 DUP3 KECCAK256 SWAP1 MLOAD PUSH2 0xC6B SWAP1 DUP6 SWAP1 PUSH2 0x2E4A JUMP JUMPDEST SWAP1 DUP2 MSTORE PUSH1 0x20 ADD PUSH1 0x40 MLOAD DUP1 SWAP2 SUB SWAP1 KECCAK256 DUP3 PUSH1 0x40 MLOAD PUSH2 0xC87 SWAP2 SWAP1 PUSH2 0x2E4A JUMP JUMPDEST SWAP1 DUP2 MSTORE PUSH1 0x40 MLOAD SWAP1 DUP2 SWAP1 SUB PUSH1 0x20 ADD SWAP1 KECCAK256 SLOAD ISZERO SWAP5 SWAP4 POP POP POP POP JUMP JUMPDEST PUSH2 0xCDB PUSH1 0x40 MLOAD DUP1 PUSH1 0xA0 ADD PUSH1 0x40 MSTORE DUP1 PUSH1 0x0 PUSH1 0x1 PUSH1 0x1 PUSH1 0xA0 SHL SUB AND DUP2 MSTORE PUSH1 0x20 ADD PUSH1 0x60 DUP2 MSTORE PUSH1 0x20 ADD PUSH1 0x60 DUP2 MSTORE PUSH1 0x20 ADD PUSH1 0x60 DUP2 MSTORE PUSH1 0x20 ADD PUSH1 0x0 DUP2 MSTORE POP SWAP1 JUMP JUMPDEST PUSH1 0x0 DUP3 DUP2 MSTORE PUSH1 0x2 PUSH1 0x20 MSTORE PUSH1 0x40 SWAP1 KECCAK256 SLOAD PUSH1 0x1 PUSH1 0x1 PUSH1 0xA0 SHL SUB AND PUSH2 0xD36 JUMPI PUSH1 0x40 MLOAD PUSH3 0x461BCD PUSH1 0xE5 SHL DUP2 MSTORE PUSH1 0x20 PUSH1 0x4 DUP3 ADD MSTORE PUSH1 0x14 PUSH1 0x24 DUP3 ADD MSTORE PUSH20 0x151BDAD95B88191BD95CC81B9BDD08195E1A5CDD PUSH1 0x62 SHL PUSH1 0x44 DUP3 ADD MSTORE PUSH1 0x64 ADD PUSH2 0x6D1 JUMP JUMPDEST PUSH1 0x0 DUP3 DUP2 MSTORE PUSH1 0x8 PUSH1 0x20 SWAP1 DUP2 MSTORE PUSH1 0x40 SWAP2 DUP3 SWAP1 KECCAK256 DUP3 MLOAD PUSH1 0xA0 DUP2 ADD SWAP1 SWAP4 MSTORE DUP1 SLOAD PUSH1 0x1 PUSH1 0x1 PUSH1 0xA0 SHL SUB AND DUP4 MSTORE PUSH1 0x1 DUP2 ADD DUP1 SLOAD SWAP2 SWAP3 DUP5 ADD SWAP2 PUSH2 0xD72 SWAP1 PUSH2 0x2DF4 JUMP JUMPDEST DUP1 PUSH1 0x1F ADD PUSH1 0x20 DUP1 SWAP2 DIV MUL PUSH1 0x20 ADD PUSH1 0x40 MLOAD SWAP1 DUP2 ADD PUSH1 0x40 MSTORE DUP1 SWAP3 SWAP2 SWAP1 DUP2 DUP2 MSTORE PUSH1 0x20 ADD DUP3 DUP1 SLOAD PUSH2 0xD9E SWAP1 PUSH2 0x2DF4 JUMP JUMPDEST DUP1 ISZERO PUSH2 0xDEB JUMPI DUP1 PUSH1 0x1F LT PUSH2 0xDC0 JUMPI PUSH2 0x100 DUP1 DUP4 SLOAD DIV MUL DUP4 MSTORE SWAP2 PUSH1 0x20 ADD SWAP2 PUSH2 0xDEB JUMP JUMPDEST DUP3 ADD SWAP2 SWAP1 PUSH1 0x0 MSTORE PUSH1 0x20 PUSH1 0x0 KECCAK256 SWAP1 JUMPDEST DUP2 SLOAD DUP2 MSTORE SWAP1 PUSH1 0x1 ADD SWAP1 PUSH1 0x20 ADD DUP1 DUP4 GT PUSH2 0xDCE JUMPI DUP3 SWAP1 SUB PUSH1 0x1F AND DUP3 ADD SWAP2 JUMPDEST POP POP POP POP POP DUP2 MSTORE PUSH1 0x20 ADD PUSH1 0x2 DUP3 ADD DUP1 SLOAD PUSH2 0xE04 SWAP1 PUSH2 0x2DF4 JUMP JUMPDEST DUP1 PUSH1 0x1F ADD PUSH1 0x20 DUP1 SWAP2 DIV MUL PUSH1 0x20 ADD PUSH1 0x40 MLOAD SWAP1 DUP2 ADD PUSH1 0x40 MSTORE DUP1 SWAP3 SWAP2 SWAP1 DUP2 DUP2 MSTORE PUSH1 0x20 ADD DUP3 DUP1 SLOAD PUSH2 0xE30 SWAP1 PUSH2 0x2DF4 JUMP JUMPDEST DUP1 ISZERO PUSH2 0xE7D JUMPI DUP1 PUSH1 0x1F LT PUSH2 0xE52 JUMPI PUSH2 0x100 DUP1 DUP4 SLOAD DIV MUL DUP4 MSTORE SWAP2 PUSH1 0x20 ADD SWAP2 PUSH2 0xE7D JUMP JUMPDEST DUP3 ADD SWAP2 SWAP1 PUSH1 0x0 MSTORE PUSH1 0x20 PUSH1 0x0 KECCAK256 SWAP1 JUMPDEST DUP2 SLOAD DUP2 MSTORE SWAP1 PUSH1 0x1 ADD SWAP1 PUSH1 0x20 ADD DUP1 DUP4 GT PUSH2 0xE60 JUMPI DUP3 SWAP1 SUB PUSH1 0x1F AND DUP3 ADD SWAP2 JUMPDEST POP POP POP POP POP DUP2 MSTORE PUSH1 0x20 ADD PUSH1 0x3 DUP3 ADD DUP1 SLOAD PUSH2 0xE96 SWAP1 PUSH2 0x2DF4 JUMP JUMPDEST DUP1 PUSH1 0x1F ADD PUSH1 0x20 DUP1 SWAP2 DIV MUL PUSH1 0x20 ADD PUSH1 0x40 MLOAD SWAP1 DUP2 ADD PUSH1 0x40 MSTORE DUP1 SWAP3 SWAP2 SWAP1 DUP2 DUP2 MSTORE PUSH1 0x20 ADD DUP3 DUP1 SLOAD PUSH2 0xEC2 SWAP1 PUSH2 0x2DF4 JUMP JUMPDEST DUP1 ISZERO PUSH2 0xF0F JUMPI DUP1 PUSH1 0x1F LT PUSH2 0xEE4 JUMPI PUSH2 0x100 DUP1 DUP4 SLOAD DIV MUL DUP4 MSTORE SWAP2 PUSH1 0x20 ADD SWAP2 PUSH2 0xF0F JUMP JUMPDEST DUP3 ADD SWAP2 SWAP1 PUSH1 0x0 MSTORE PUSH1 0x20 PUSH1 0x0 KECCAK256 SWAP1 JUMPDEST DUP2 SLOAD DUP2 MSTORE SWAP1 PUSH1 0x1 ADD SWAP1 PUSH1 0x20 ADD DUP1 DUP4 GT PUSH2 0xEF2 JUMPI DUP3 SWAP1 SUB PUSH1 0x1F AND DUP3 ADD SWAP2 JUMPDEST POP POP POP POP POP DUP2 MSTORE PUSH1 0x20 ADD PUSH1 0x4 DUP3 ADD SLOAD DUP2 MSTORE POP POP SWAP1 POP SWAP2 SWAP1 POP JUMP JUMPDEST PUSH1 0x0 PUSH2 0x5BA DUP3 PUSH2 0x1EA9 JUMP JUMPDEST PUSH2 0xF3C PUSH2 0x1F47 JUMP JUMPDEST PUSH1 0xD SSTORE JUMP JUMPDEST PUSH1 0xC PUSH1 0x20 MSTORE PUSH1 0x0 SWAP1 DUP2 MSTORE PUSH1 0x40 SWAP1 KECCAK256 DUP1 SLOAD PUSH2 0xF5A SWAP1 PUSH2 0x2DF4 JUMP JUMPDEST DUP1 PUSH1 0x1F ADD PUSH1 0x20 DUP1 SWAP2 DIV MUL PUSH1 0x20 ADD PUSH1 0x40 MLOAD SWAP1 DUP2 ADD PUSH1 0x40 MSTORE DUP1 SWAP3 SWAP2 SWAP1 DUP2 DUP2 MSTORE PUSH1 0x20 ADD DUP3 DUP1 SLOAD PUSH2 0xF86 SWAP1 PUSH2 0x2DF4 JUMP JUMPDEST DUP1 ISZERO PUSH2 0xFD3 JUMPI DUP1 PUSH1 0x1F LT PUSH2 0xFA8 JUMPI PUSH2 0x100 DUP1 DUP4 SLOAD DIV MUL DUP4 MSTORE SWAP2 PUSH1 0x20 ADD SWAP2 PUSH2 0xFD3 JUMP JUMPDEST DUP3 ADD SWAP2 SWAP1 PUSH1 0x0 MSTORE PUSH1 0x20 PUSH1 0x0 KECCAK256 SWAP1 JUMPDEST DUP2 SLOAD DUP2 MSTORE SWAP1 PUSH1 0x1 ADD SWAP1 PUSH1 0x20 ADD DUP1 DUP4 GT PUSH2 0xFB6 JUMPI DUP3 SWAP1 SUB PUSH1 0x1F AND DUP3 ADD SWAP2 JUMPDEST POP POP POP POP POP DUP2 JUMP JUMPDEST PUSH1 0x0 PUSH1 0x1 PUSH1 0x1 PUSH1 0xA0 SHL SUB DUP3 AND PUSH2 0x1007 JUMPI PUSH1 0x40 MLOAD PUSH4 0x22718AD9 PUSH1 0xE2 SHL DUP2 MSTORE PUSH1 0x0 PUSH1 0x4 DUP3 ADD MSTORE PUSH1 0x24 ADD PUSH2 0x6D1 JUMP JUMPDEST POP PUSH1 0x1 PUSH1 0x1 PUSH1 0xA0 SHL SUB AND PUSH1 0x0 SWAP1 DUP2 MSTORE PUSH1 0x3 PUSH1 0x20 MSTORE PUSH1 0x40 SWAP1 KECCAK256 SLOAD SWAP1 JUMP JUMPDEST PUSH2 0x102B PUSH2 0x1F47 JUMP JUMPDEST PUSH2 0x1035 PUSH1 0x0 PUSH2 0x1F74 JUMP JUMPDEST JUMP JUMPDEST PUSH1 0x60 PUSH2 0x1042 DUP4 PUSH2 0x1EA9 JUMP JUMPDEST POP PUSH1 0x0 DUP4 DUP2 MSTORE PUSH1 0x8 PUSH1 0x20 SWAP1 DUP2 MSTORE PUSH1 0x40 DUP1 DUP4 KECCAK256 DUP2 MLOAD PUSH1 0xA0 DUP2 ADD SWAP1 SWAP3 MSTORE DUP1 SLOAD PUSH1 0x1 PUSH1 0x1 PUSH1 0xA0 SHL SUB AND DUP3 MSTORE PUSH1 0x1 DUP2 ADD DUP1 SLOAD SWAP3 SWAP4 SWAP2 SWAP3 SWAP2 DUP5 ADD SWAP2 PUSH2 0x1081 SWAP1 PUSH2 0x2DF4 JUMP JUMPDEST DUP1 PUSH1 0x1F ADD PUSH1 0x20 DUP1 SWAP2 DIV MUL PUSH1 0x20 ADD PUSH1 0x40 MLOAD SWAP1 DUP2 ADD PUSH1 0x40 MSTORE DUP1 SWAP3 SWAP2 SWAP1 DUP2 DUP2 MSTORE PUSH1 0x20 ADD DUP3 DUP1 SLOAD PUSH2 0x10AD SWAP1 PUSH2 0x2DF4 JUMP JUMPDEST DUP1 ISZERO PUSH2 0x10FA JUMPI DUP1 PUSH1 0x1F LT PUSH2 0x10CF JUMPI PUSH2 0x100 DUP1 DUP4 SLOAD DIV MUL DUP4 MSTORE SWAP2 PUSH1 0x20 ADD SWAP2 PUSH2 0x10FA JUMP JUMPDEST DUP3 ADD SWAP2 SWAP1 PUSH1 0x0 MSTORE PUSH1 0x20 PUSH1 0x0 KECCAK256 SWAP1 JUMPDEST DUP2 SLOAD DUP2 MSTORE SWAP1 PUSH1 0x1 ADD SWAP1 PUSH1 0x20 ADD DUP1 DUP4 GT PUSH2 0x10DD JUMPI DUP3 SWAP1 SUB PUSH1 0x1F AND DUP3 ADD SWAP2 JUMPDEST POP POP POP POP POP DUP2 MSTORE PUSH1 0x20 ADD PUSH1 0x2 DUP3 ADD DUP1 SLOAD PUSH2 0x1113 SWAP1 PUSH2 0x2DF4 JUMP JUMPDEST DUP1 PUSH1 0x1F ADD PUSH1 0x20 DUP1 SWAP2 DIV MUL PUSH1 0x20 ADD PUSH1 0x40 MLOAD SWAP1 DUP2 ADD PUSH1 0x40 MSTORE DUP1 SWAP3 SWAP2 SWAP1 DUP2 DUP2 MSTORE PUSH1 0x20 ADD DUP3 DUP1 SLOAD PUSH2 0x113F SWAP1 PUSH2 0x2DF4 JUMP JUMPDEST DUP1 ISZERO PUSH2 0x118C JUMPI DUP1 PUSH1 0x1F LT PUSH2 0x1161 JUMPI PUSH2 0x100 DUP1 DUP4 SLOAD DIV MUL DUP4 MSTORE SWAP2 PUSH1 0x20 ADD SWAP2 PUSH2 0x118C JUMP JUMPDEST DUP3 ADD SWAP2 SWAP1 PUSH1 0x0 MSTORE PUSH1 0x20 PUSH1 0x0 KECCAK256 SWAP1 JUMPDEST DUP2 SLOAD DUP2 MSTORE SWAP1 PUSH1 0x1 ADD SWAP1 PUSH1 0x20 ADD DUP1 DUP4 GT PUSH2 0x116F JUMPI DUP3 SWAP1 SUB PUSH1 0x1F AND DUP3 ADD SWAP2 JUMPDEST POP POP POP POP POP DUP2 MSTORE PUSH1 0x20 ADD PUSH1 0x3 DUP3 ADD DUP1 SLOAD PUSH2 0x11A5 SWAP1 PUSH2 0x2DF4 JUMP JUMPDEST DUP1 PUSH1 0x1F ADD PUSH1 0x20 DUP1 SWAP2 DIV MUL PUSH1 0x20 ADD PUSH1 0x40 MLOAD SWAP1 DUP2 ADD PUSH1 0x40 MSTORE DUP1 SWAP3 SWAP2 SWAP1 DUP2 DUP2 MSTORE PUSH1 0x20 ADD DUP3 DUP1 SLOAD PUSH2 0x11D1 SWAP1 PUSH2 0x2DF4 JUMP JUMPDEST DUP1 ISZERO PUSH2 0x121E JUMPI DUP1 PUSH1 0x1F LT PUSH2 0x11F3 JUMPI PUSH2 0x100 DUP1 DUP4 SLOAD DIV MUL DUP4 MSTORE SWAP2 PUSH1 0x20 ADD SWAP2 PUSH2 0x121E JUMP JUMPDEST DUP3 ADD SWAP2 SWAP1 PUSH1 0x0 MSTORE PUSH1 0x20 PUSH1 0x0 KECCAK256 SWAP1 JUMPDEST DUP2 SLOAD DUP2 MSTORE SWAP1 PUSH1 0x1 ADD SWAP1 PUSH1 0x20 ADD DUP1 DUP4 GT PUSH2 0x1201 JUMPI DUP3 SWAP1 SUB PUSH1 0x1F AND DUP3 ADD SWAP2 JUMPDEST POP POP POP POP POP DUP2 MSTORE PUSH1 0x20 ADD PUSH1 0x4 DUP3 ADD SLOAD DUP2 MSTORE POP POP SWAP1 POP PUSH1 0x0 PUSH2 0x123E DUP6 PUSH2 0x1FC6 JUMP JUMPDEST DUP3 PUSH1 0x60 ADD MLOAD PUSH2 0x124C DUP7 PUSH2 0x20E8 JUMP JUMPDEST DUP5 PUSH1 0x60 ADD MLOAD DUP6 PUSH1 0x20 ADD MLOAD DUP7 PUSH1 0x40 ADD MLOAD PUSH2 0x1268 DUP9 PUSH1 0x80 ADD MLOAD PUSH2 0x1FC6 JUMP JUMPDEST PUSH1 0x40 MLOAD PUSH1 0x20 ADD PUSH2 0x127E SWAP8 SWAP7 SWAP6 SWAP5 SWAP4 SWAP3 SWAP2 SWAP1 PUSH2 0x3139 JUMP JUMPDEST PUSH1 0x40 MLOAD PUSH1 0x20 DUP2 DUP4 SUB SUB DUP2 MSTORE SWAP1 PUSH1 0x40 MSTORE SWAP1 POP PUSH2 0x1298 DUP2 PUSH2 0x20E8 JUMP JUMPDEST PUSH1 0x40 MLOAD PUSH1 0x20 ADD PUSH2 0x12A8 SWAP2 SWAP1 PUSH2 0x352E JUMP JUMPDEST PUSH1 0x40 MLOAD PUSH1 0x20 DUP2 DUP4 SUB SUB DUP2 MSTORE SWAP1 PUSH1 0x40 MSTORE SWAP3 POP POP POP SWAP3 SWAP2 POP POP JUMP JUMPDEST PUSH1 0x60 PUSH1 0x1 DUP1 SLOAD PUSH2 0x5CF SWAP1 PUSH2 0x2DF4 JUMP JUMPDEST PUSH1 0xB PUSH1 0x20 MSTORE PUSH1 0x0 SWAP1 DUP2 MSTORE PUSH1 0x40 SWAP1 KECCAK256 DUP1 SLOAD PUSH2 0xF5A SWAP1 PUSH2 0x2DF4 JUMP JUMPDEST PUSH1 0x0 PUSH1 0xA DUP3 PUSH1 0x40 MLOAD PUSH2 0x12FB SWAP2 SWAP1 PUSH2 0x2E4A JUMP JUMPDEST SWAP1 DUP2 MSTORE PUSH1 0x40 MLOAD SWAP1 DUP2 SWAP1 SUB PUSH1 0x20 ADD SWAP1 KECCAK256 SLOAD PUSH1 0x1 PUSH1 0x1 PUSH1 0xA0 SHL SUB AND SWAP3 SWAP2 POP POP JUMP JUMPDEST PUSH1 0x1 PUSH1 0x1 PUSH1 0xA0 SHL SUB DUP4 AND PUSH1 0x0 SWAP1 DUP2 MSTORE PUSH1 0x9 PUSH1 0x20 MSTORE PUSH1 0x40 DUP1 DUP3 KECCAK256 SWAP1 MLOAD PUSH2 0x1340 SWAP1 DUP6 SWAP1 PUSH2 0x2E4A JUMP JUMPDEST SWAP1 DUP2 MSTORE PUSH1 0x20 ADD PUSH1 0x40 MLOAD DUP1 SWAP2 SUB SWAP1 KECCAK256 DUP3 PUSH1 0x40 MLOAD PUSH2 0x135C SWAP2 SWAP1 PUSH2 0x2E4A JUMP JUMPDEST SWAP1 DUP2 MSTORE PUSH1 0x20 ADD PUSH1 0x40 MLOAD DUP1 SWAP2 SUB SWAP1 KECCAK256 SLOAD SWAP1 POP SWAP4 SWAP3 POP POP POP JUMP JUMPDEST DUP2 PUSH2 0x1391 JUMPI PUSH1 0x40 MLOAD PUSH3 0x461BCD PUSH1 0xE5 SHL DUP2 MSTORE PUSH1 0x4 ADD PUSH2 0x6D1 SWAP1 PUSH2 0x2E66 JUMP JUMPDEST PUSH1 0x1 PUSH1 0x1 PUSH1 0xA0 SHL SUB DUP2 AND PUSH2 0x13B7 JUMPI PUSH1 0x40 MLOAD PUSH3 0x461BCD PUSH1 0xE5 SHL DUP2 MSTORE PUSH1 0x4 ADD PUSH2 0x6D1 SWAP1 PUSH2 0x3573 JUMP JUMPDEST PUSH1 0x0 PUSH1 0x1 PUSH1 0x1 PUSH1 0xA0 SHL SUB AND PUSH1 0xA DUP5 DUP5 PUSH1 0x40 MLOAD PUSH2 0x13D4 SWAP3 SWAP2 SWAP1 PUSH2 0x35B4 JUMP JUMPDEST SWAP1 DUP2 MSTORE PUSH1 0x40 MLOAD SWAP1 DUP2 SWAP1 SUB PUSH1 0x20 ADD SWAP1 KECCAK256 SLOAD PUSH1 0x1 PUSH1 0x1 PUSH1 0xA0 SHL SUB AND SUB PUSH2 0x1436 JUMPI PUSH1 0x40 MLOAD PUSH3 0x461BCD PUSH1 0xE5 SHL DUP2 MSTORE PUSH1 0x20 PUSH1 0x4 DUP3 ADD MSTORE PUSH1 0x19 PUSH1 0x24 DUP3 ADD MSTORE PUSH25 0x111A5CD8DBDC99081251081B9BDD081C9959DA5CDD195C9959 PUSH1 0x3A SHL PUSH1 0x44 DUP3 ADD MSTORE PUSH1 0x64 ADD PUSH2 0x6D1 JUMP JUMPDEST CALLER PUSH1 0x1 PUSH1 0x1 PUSH1 0xA0 SHL SUB AND PUSH1 0xA DUP5 DUP5 PUSH1 0x40 MLOAD PUSH2 0x1452 SWAP3 SWAP2 SWAP1 PUSH2 0x35B4 JUMP JUMPDEST SWAP1 DUP2 MSTORE PUSH1 0x40 MLOAD SWAP1 DUP2 SWAP1 SUB PUSH1 0x20 ADD SWAP1 KECCAK256 SLOAD PUSH1 0x1 PUSH1 0x1 PUSH1 0xA0 SHL SUB AND EQ PUSH2 0x14B8 JUMPI PUSH1 0x40 MLOAD PUSH3 0x461BCD PUSH1 0xE5 SHL DUP2 MSTORE PUSH1 0x20 PUSH1 0x4 DUP3 ADD MSTORE PUSH1 0x1E PUSH1 0x24 DUP3 ADD MSTORE PUSH32 0x4F6E6C792063757272656E742077616C6C65742063616E207570646174650000 PUSH1 0x44 DUP3 ADD MSTORE PUSH1 0x64 ADD PUSH2 0x6D1 JUMP JUMPDEST PUSH1 0x0 PUSH1 0xA DUP5 DUP5 PUSH1 0x40 MLOAD PUSH2 0x14CC SWAP3 SWAP2 SWAP1 PUSH2 0x35B4 JUMP JUMPDEST SWAP1 DUP2 MSTORE PUSH1 0x40 MLOAD SWAP1 DUP2 SWAP1 SUB PUSH1 0x20 ADD DUP2 KECCAK256 SLOAD PUSH1 0x1 PUSH1 0x1 PUSH1 0xA0 SHL SUB AND SWAP2 POP DUP3 SWAP1 PUSH1 0xA SWAP1 PUSH2 0x14F9 SWAP1 DUP8 SWAP1 DUP8 SWAP1 PUSH2 0x35B4 JUMP JUMPDEST SWAP1 DUP2 MSTORE PUSH1 0x40 MLOAD SWAP1 DUP2 SWAP1 SUB PUSH1 0x20 ADD DUP2 KECCAK256 DUP1 SLOAD PUSH1 0x1 PUSH1 0x1 PUSH1 0xA0 SHL SUB SWAP4 DUP5 AND PUSH1 0x1 PUSH1 0x1 PUSH1 0xA0 SHL SUB NOT SWAP1 SWAP2 AND OR SWAP1 SSTORE DUP4 DUP3 AND SWAP2 DUP4 AND SWAP1 PUSH2 0x1538 SWAP1 DUP8 SWAP1 DUP8 SWAP1 PUSH2 0x35B4 JUMP JUMPDEST PUSH1 0x40 MLOAD SWAP1 DUP2 SWAP1 SUB DUP2 KECCAK256 SWAP1 PUSH32 0xD8E98BFF5AE8522235EF48DAECFF7488B367200BEA03A4E8CB4BC98108C6A492 SWAP1 PUSH1 0x0 SWAP1 LOG4 POP POP POP POP JUMP JUMPDEST PUSH1 0x0 DUP2 DUP2 MSTORE PUSH1 0x2 PUSH1 0x20 MSTORE PUSH1 0x40 SWAP1 KECCAK256 SLOAD PUSH1 0x60 SWAP1 PUSH1 0x1 PUSH1 0x1 PUSH1 0xA0 SHL SUB AND PUSH2 0x15CC JUMPI PUSH1 0x40 MLOAD PUSH3 0x461BCD PUSH1 0xE5 SHL DUP2 MSTORE PUSH1 0x20 PUSH1 0x4 DUP3 ADD MSTORE PUSH1 0x14 PUSH1 0x24 DUP3 ADD MSTORE PUSH20 0x151BDAD95B88191BD95CC81B9BDD08195E1A5CDD PUSH1 0x62 SHL PUSH1 0x44 DUP3 ADD MSTORE PUSH1 0x64 ADD PUSH2 0x6D1 JUMP JUMPDEST PUSH1 0x0 DUP3 DUP2 MSTORE PUSH1 0xB PUSH1 0x20 MSTORE PUSH1 0x40 SWAP1 KECCAK256 DUP1 SLOAD PUSH2 0x15E5 SWAP1 PUSH2 0x2DF4 JUMP JUMPDEST DUP1 PUSH1 0x1F ADD PUSH1 0x20 DUP1 SWAP2 DIV MUL PUSH1 0x20 ADD PUSH1 0x40 MLOAD SWAP1 DUP2 ADD PUSH1 0x40 MSTORE DUP1 SWAP3 SWAP2 SWAP1 DUP2 DUP2 MSTORE PUSH1 0x20 ADD DUP3 DUP1 SLOAD PUSH2 0x1611 SWAP1 PUSH2 0x2DF4 JUMP JUMPDEST DUP1 ISZERO PUSH2 0x165E JUMPI DUP1 PUSH1 0x1F LT PUSH2 0x1633 JUMPI PUSH2 0x100 DUP1 DUP4 SLOAD DIV MUL DUP4 MSTORE SWAP2 PUSH1 0x20 ADD SWAP2 PUSH2 0x165E JUMP JUMPDEST DUP3 ADD SWAP2 SWAP1 PUSH1 0x0 MSTORE PUSH1 0x20 PUSH1 0x0 KECCAK256 SWAP1 JUMPDEST DUP2 SLOAD DUP2 MSTORE SWAP1 PUSH1 0x1 ADD SWAP1 PUSH1 0x20 ADD DUP1 DUP4 GT PUSH2 0x1641 JUMPI DUP3 SWAP1 SUB PUSH1 0x1F AND DUP3 ADD SWAP2 JUMPDEST POP POP POP POP POP SWAP1 POP SWAP2 SWAP1 POP JUMP JUMPDEST PUSH1 0x60 PUSH2 0x1675 DUP3 PUSH2 0x1EA9 JUMP JUMPDEST POP PUSH1 0x0 DUP3 DUP2 MSTORE PUSH1 0xC PUSH1 0x20 MSTORE PUSH1 0x40 DUP2 KECCAK256 DUP1 SLOAD PUSH2 0x168F SWAP1 PUSH2 0x2DF4 JUMP JUMPDEST DUP1 PUSH1 0x1F ADD PUSH1 0x20 DUP1 SWAP2 DIV MUL PUSH1 0x20 ADD PUSH1 0x40 MLOAD SWAP1 DUP2 ADD PUSH1 0x40 MSTORE DUP1 SWAP3 SWAP2 SWAP1 DUP2 DUP2 MSTORE PUSH1 0x20 ADD DUP3 DUP1 SLOAD PUSH2 0x16BB SWAP1 PUSH2 0x2DF4 JUMP JUMPDEST DUP1 ISZERO PUSH2 0x1708 JUMPI DUP1 PUSH1 0x1F LT PUSH2 0x16DD JUMPI PUSH2 0x100 DUP1 DUP4 SLOAD DIV MUL DUP4 MSTORE SWAP2 PUSH1 0x20 ADD SWAP2 PUSH2 0x1708 JUMP JUMPDEST DUP3 ADD SWAP2 SWAP1 PUSH1 0x0 MSTORE PUSH1 0x20 PUSH1 0x0 KECCAK256 SWAP1 JUMPDEST DUP2 SLOAD DUP2 MSTORE SWAP1 PUSH1 0x1 ADD SWAP1 PUSH1 0x20 ADD DUP1 DUP4 GT PUSH2 0x16EB JUMPI DUP3 SWAP1 SUB PUSH1 0x1F AND DUP3 ADD SWAP2 JUMPDEST POP POP POP POP POP SWAP1 POP PUSH1 0x0 DUP2 MLOAD GT ISZERO PUSH2 0x171F JUMPI SWAP3 SWAP2 POP POP JUMP JUMPDEST PUSH1 0x0 DUP4 DUP2 MSTORE PUSH1 0x8 PUSH1 0x20 SWAP1 DUP2 MSTORE PUSH1 0x40 DUP1 DUP4 KECCAK256 DUP2 MLOAD PUSH1 0xA0 DUP2 ADD SWAP1 SWAP3 MSTORE DUP1 SLOAD PUSH1 0x1 PUSH1 0x1 PUSH1 0xA0 SHL SUB AND DUP3 MSTORE PUSH1 0x1 DUP2 ADD DUP1 SLOAD SWAP3 SWAP4 SWAP2 SWAP3 SWAP2 DUP5 ADD SWAP2 PUSH2 0x175D SWAP1 PUSH2 0x2DF4 JUMP JUMPDEST DUP1 PUSH1 0x1F ADD PUSH1 0x20 DUP1 SWAP2 DIV MUL PUSH1 0x20 ADD PUSH1 0x40 MLOAD SWAP1 DUP2 ADD PUSH1 0x40 MSTORE DUP1 SWAP3 SWAP2 SWAP1 DUP2 DUP2 MSTORE PUSH1 0x20 ADD DUP3 DUP1 SLOAD PUSH2 0x1789 SWAP1 PUSH2 0x2DF4 JUMP JUMPDEST DUP1 ISZERO PUSH2 0x17D6 JUMPI DUP1 PUSH1 0x1F LT PUSH2 0x17AB JUMPI PUSH2 0x100 DUP1 DUP4 SLOAD DIV MUL DUP4 MSTORE SWAP2 PUSH1 0x20 ADD SWAP2 PUSH2 0x17D6 JUMP JUMPDEST DUP3 ADD SWAP2 SWAP1 PUSH1 0x0 MSTORE PUSH1 0x20 PUSH1 0x0 KECCAK256 SWAP1 JUMPDEST DUP2 SLOAD DUP2 MSTORE SWAP1 PUSH1 0x1 ADD SWAP1 PUSH1 0x20 ADD DUP1 DUP4 GT PUSH2 0x17B9 JUMPI DUP3 SWAP1 SUB PUSH1 0x1F AND DUP3 ADD SWAP2 JUMPDEST POP POP POP POP POP DUP2 MSTORE PUSH1 0x20 ADD PUSH1 0x2 DUP3 ADD DUP1 SLOAD PUSH2 0x17EF SWAP1 PUSH2 0x2DF4 JUMP JUMPDEST DUP1 PUSH1 0x1F ADD PUSH1 0x20 DUP1 SWAP2 DIV MUL PUSH1 0x20 ADD PUSH1 0x40 MLOAD SWAP1 DUP2 ADD PUSH1 0x40 MSTORE DUP1 SWAP3 SWAP2 SWAP1 DUP2 DUP2 MSTORE PUSH1 0x20 ADD DUP3 DUP1 SLOAD PUSH2 0x181B SWAP1 PUSH2 0x2DF4 JUMP JUMPDEST DUP1 ISZERO PUSH2 0x1868 JUMPI DUP1 PUSH1 0x1F LT PUSH2 0x183D JUMPI PUSH2 0x100 DUP1 DUP4 SLOAD DIV MUL DUP4 MSTORE SWAP2 PUSH1 0x20 ADD SWAP2 PUSH2 0x1868 JUMP JUMPDEST DUP3 ADD SWAP2 SWAP1 PUSH1 0x0 MSTORE PUSH1 0x20 PUSH1 0x0 KECCAK256 SWAP1 JUMPDEST DUP2 SLOAD DUP2 MSTORE SWAP1 PUSH1 0x1 ADD SWAP1 PUSH1 0x20 ADD DUP1 DUP4 GT PUSH2 0x184B JUMPI DUP3 SWAP1 SUB PUSH1 0x1F AND DUP3 ADD SWAP2 JUMPDEST POP POP POP POP POP DUP2 MSTORE PUSH1 0x20 ADD PUSH1 0x3 DUP3 ADD DUP1 SLOAD PUSH2 0x1881 SWAP1 PUSH2 0x2DF4 JUMP JUMPDEST DUP1 PUSH1 0x1F ADD PUSH1 0x20 DUP1 SWAP2 DIV MUL PUSH1 0x20 ADD PUSH1 0x40 MLOAD SWAP1 DUP2 ADD PUSH1 0x40 MSTORE DUP1 SWAP3 SWAP2 SWAP1 DUP2 DUP2 MSTORE PUSH1 0x20 ADD DUP3 DUP1 SLOAD PUSH2 0x18AD SWAP1 PUSH2 0x2DF4 JUMP JUMPDEST DUP1 ISZERO PUSH2 0x18FA JUMPI DUP1 PUSH1 0x1F LT PUSH2 0x18CF JUMPI PUSH2 0x100 DUP1 DUP4 SLOAD DIV MUL DUP4 MSTORE SWAP2 PUSH1 0x20 ADD SWAP2 PUSH2 0x18FA JUMP JUMPDEST DUP3 ADD SWAP2 SWAP1 PUSH1 0x0 MSTORE PUSH1 0x20 PUSH1 0x0 KECCAK256 SWAP1 JUMPDEST DUP2 SLOAD DUP2 MSTORE SWAP1 PUSH1 0x1 ADD SWAP1 PUSH1 0x20 ADD DUP1 DUP4 GT PUSH2 0x18DD JUMPI DUP3 SWAP1 SUB PUSH1 0x1F AND DUP3 ADD SWAP2 JUMPDEST POP POP POP POP POP DUP2 MSTORE PUSH1 0x20 ADD PUSH1 0x4 DUP3 ADD SLOAD DUP2 MSTORE POP POP SWAP1 POP PUSH1 0x0 PUSH1 0xB PUSH1 0x0 DUP7 DUP2 MSTORE PUSH1 0x20 ADD SWAP1 DUP2 MSTORE PUSH1 0x20 ADD PUSH1 0x0 KECCAK256 DUP1 SLOAD PUSH2 0x192F SWAP1 PUSH2 0x2DF4 JUMP JUMPDEST DUP1 PUSH1 0x1F ADD PUSH1 0x20 DUP1 SWAP2 DIV MUL PUSH1 0x20 ADD PUSH1 0x40 MLOAD SWAP1 DUP2 ADD PUSH1 0x40 MSTORE DUP1 SWAP3 SWAP2 SWAP1 DUP2 DUP2 MSTORE PUSH1 0x20 ADD DUP3 DUP1 SLOAD PUSH2 0x195B SWAP1 PUSH2 0x2DF4 JUMP JUMPDEST DUP1 ISZERO PUSH2 0x19A8 JUMPI DUP1 PUSH1 0x1F LT PUSH2 0x197D JUMPI PUSH2 0x100 DUP1 DUP4 SLOAD DIV MUL DUP4 MSTORE SWAP2 PUSH1 0x20 ADD SWAP2 PUSH2 0x19A8 JUMP JUMPDEST DUP3 ADD SWAP2 SWAP1 PUSH1 0x0 MSTORE PUSH1 0x20 PUSH1 0x0 KECCAK256 SWAP1 JUMPDEST DUP2 SLOAD DUP2 MSTORE SWAP1 PUSH1 0x1 ADD SWAP1 PUSH1 0x20 ADD DUP1 DUP4 GT PUSH2 0x198B JUMPI DUP3 SWAP1 SUB PUSH1 0x1F AND DUP3 ADD SWAP2 JUMPDEST POP POP POP POP POP SWAP1 POP DUP1 MLOAD PUSH1 0x0 SUB PUSH2 0x1A37 JUMPI PUSH1 0x0 PUSH2 0x19C3 DUP7 PUSH2 0x1FC6 JUMP JUMPDEST DUP4 PUSH1 0x60 ADD MLOAD DUP5 PUSH1 0x20 ADD MLOAD DUP6 PUSH1 0x40 ADD MLOAD PUSH2 0x19DF DUP8 PUSH1 0x80 ADD MLOAD PUSH2 0x1FC6 JUMP JUMPDEST PUSH1 0x40 MLOAD PUSH1 0x20 ADD PUSH2 0x19F3 SWAP6 SWAP5 SWAP4 SWAP3 SWAP2 SWAP1 PUSH2 0x35C4 JUMP JUMPDEST PUSH1 0x40 MLOAD PUSH1 0x20 DUP2 DUP4 SUB SUB DUP2 MSTORE SWAP1 PUSH1 0x40 MSTORE SWAP1 POP PUSH2 0x1A0D DUP2 PUSH2 0x20E8 JUMP JUMPDEST PUSH1 0x40 MLOAD PUSH1 0x20 ADD PUSH2 0x1A1D SWAP2 SWAP1 PUSH2 0x352E JUMP JUMPDEST PUSH1 0x40 MLOAD PUSH1 0x20 DUP2 DUP4 SUB SUB DUP2 MSTORE SWAP1 PUSH1 0x40 MSTORE SWAP5 POP POP POP POP POP SWAP2 SWAP1 POP JUMP JUMPDEST PUSH1 0x0 PUSH2 0x1A42 DUP7 PUSH2 0x1FC6 JUMP JUMPDEST DUP4 PUSH1 0x60 ADD MLOAD PUSH2 0x1A50 DUP5 PUSH2 0x20E8 JUMP JUMPDEST DUP6 PUSH1 0x60 ADD MLOAD DUP7 PUSH1 0x20 ADD MLOAD DUP8 PUSH1 0x40 ADD MLOAD PUSH2 0x1A6C DUP10 PUSH1 0x80 ADD MLOAD PUSH2 0x1FC6 JUMP JUMPDEST PUSH1 0x40 MLOAD PUSH1 0x20 ADD PUSH2 0x19F3 SWAP8 SWAP7 SWAP6 SWAP5 SWAP4 SWAP3 SWAP2 SWAP1 PUSH2 0x3139 JUMP JUMPDEST PUSH1 0x8 PUSH1 0x20 MSTORE PUSH1 0x0 SWAP1 DUP2 MSTORE PUSH1 0x40 SWAP1 KECCAK256 DUP1 SLOAD PUSH1 0x1 DUP3 ADD DUP1 SLOAD PUSH1 0x1 PUSH1 0x1 PUSH1 0xA0 SHL SUB SWAP1 SWAP3 AND SWAP3 SWAP2 PUSH2 0x1AAE SWAP1 PUSH2 0x2DF4 JUMP JUMPDEST DUP1 PUSH1 0x1F ADD PUSH1 0x20 DUP1 SWAP2 DIV MUL PUSH1 0x20 ADD PUSH1 0x40 MLOAD SWAP1 DUP2 ADD PUSH1 0x40 MSTORE DUP1 SWAP3 SWAP2 SWAP1 DUP2 DUP2 MSTORE PUSH1 0x20 ADD DUP3 DUP1 SLOAD PUSH2 0x1ADA SWAP1 PUSH2 0x2DF4 JUMP JUMPDEST DUP1 ISZERO PUSH2 0x1B27 JUMPI DUP1 PUSH1 0x1F LT PUSH2 0x1AFC JUMPI PUSH2 0x100 DUP1 DUP4 SLOAD DIV MUL DUP4 MSTORE SWAP2 PUSH1 0x20 ADD SWAP2 PUSH2 0x1B27 JUMP JUMPDEST DUP3 ADD SWAP2 SWAP1 PUSH1 0x0 MSTORE PUSH1 0x20 PUSH1 0x0 KECCAK256 SWAP1 JUMPDEST DUP2 SLOAD DUP2 MSTORE SWAP1 PUSH1 0x1 ADD SWAP1 PUSH1 0x20 ADD DUP1 DUP4 GT PUSH2 0x1B0A JUMPI DUP3 SWAP1 SUB PUSH1 0x1F AND DUP3 ADD SWAP2 JUMPDEST POP POP POP POP POP SWAP1 DUP1 PUSH1 0x2 ADD DUP1 SLOAD PUSH2 0x1B3C SWAP1 PUSH2 0x2DF4 JUMP JUMPDEST DUP1 PUSH1 0x1F ADD PUSH1 0x20 DUP1 SWAP2 DIV MUL PUSH1 0x20 ADD PUSH1 0x40 MLOAD SWAP1 DUP2 ADD PUSH1 0x40 MSTORE DUP1 SWAP3 SWAP2 SWAP1 DUP2 DUP2 MSTORE PUSH1 0x20 ADD DUP3 DUP1 SLOAD PUSH2 0x1B68 SWAP1 PUSH2 0x2DF4 JUMP JUMPDEST DUP1 ISZERO PUSH2 0x1BB5 JUMPI DUP1 PUSH1 0x1F LT PUSH2 0x1B8A JUMPI PUSH2 0x100 DUP1 DUP4 SLOAD DIV MUL DUP4 MSTORE SWAP2 PUSH1 0x20 ADD SWAP2 PUSH2 0x1BB5 JUMP JUMPDEST DUP3 ADD SWAP2 SWAP1 PUSH1 0x0 MSTORE PUSH1 0x20 PUSH1 0x0 KECCAK256 SWAP1 JUMPDEST DUP2 SLOAD DUP2 MSTORE SWAP1 PUSH1 0x1 ADD SWAP1 PUSH1 0x20 ADD DUP1 DUP4 GT PUSH2 0x1B98 JUMPI DUP3 SWAP1 SUB PUSH1 0x1F AND DUP3 ADD SWAP2 JUMPDEST POP POP POP POP POP SWAP1 DUP1 PUSH1 0x3 ADD DUP1 SLOAD PUSH2 0x1BCA SWAP1 PUSH2 0x2DF4 JUMP JUMPDEST DUP1 PUSH1 0x1F ADD PUSH1 0x20 DUP1 SWAP2 DIV MUL PUSH1 0x20 ADD PUSH1 0x40 MLOAD SWAP1 DUP2 ADD PUSH1 0x40 MSTORE DUP1 SWAP3 SWAP2 SWAP1 DUP2 DUP2 MSTORE PUSH1 0x20 ADD DUP3 DUP1 SLOAD PUSH2 0x1BF6 SWAP1 PUSH2 0x2DF4 JUMP JUMPDEST DUP1 ISZERO PUSH2 0x1C43 JUMPI DUP1 PUSH1 0x1F LT PUSH2 0x1C18 JUMPI PUSH2 0x100 DUP1 DUP4 SLOAD DIV MUL DUP4 MSTORE SWAP2 PUSH1 0x20 ADD SWAP2 PUSH2 0x1C43 JUMP JUMPDEST DUP3 ADD SWAP2 SWAP1 PUSH1 0x0 MSTORE PUSH1 0x20 PUSH1 0x0 KECCAK256 SWAP1 JUMPDEST DUP2 SLOAD DUP2 MSTORE SWAP1 PUSH1 0x1 ADD SWAP1 PUSH1 0x20 ADD DUP1 DUP4 GT PUSH2 0x1C26 JUMPI DUP3 SWAP1 SUB PUSH1 0x1F AND DUP3 ADD SWAP2 JUMPDEST POP POP POP POP POP SWAP1 DUP1 PUSH1 0x4 ADD SLOAD SWAP1 POP DUP6 JUMP JUMPDEST PUSH2 0x1C5B PUSH2 0x1F47 JUMP JUMPDEST DUP2 PUSH2 0x1C78 JUMPI PUSH1 0x40 MLOAD PUSH3 0x461BCD PUSH1 0xE5 SHL DUP2 MSTORE PUSH1 0x4 ADD PUSH2 0x6D1 SWAP1 PUSH2 0x2E66 JUMP JUMPDEST PUSH1 0x1 PUSH1 0x1 PUSH1 0xA0 SHL SUB DUP2 AND PUSH2 0x1C9E JUMPI PUSH1 0x40 MLOAD PUSH3 0x461BCD PUSH1 0xE5 SHL DUP2 MSTORE PUSH1 0x4 ADD PUSH2 0x6D1 SWAP1 PUSH2 0x3573 JUMP JUMPDEST PUSH1 0x0 PUSH1 0x1 PUSH1 0x1 PUSH1 0xA0 SHL SUB AND PUSH1 0xA DUP5 DUP5 PUSH1 0x40 MLOAD PUSH2 0x1CBB SWAP3 SWAP2 SWAP1 PUSH2 0x35B4 JUMP JUMPDEST SWAP1 DUP2 MSTORE PUSH1 0x40 MLOAD SWAP1 DUP2 SWAP1 SUB PUSH1 0x20 ADD SWAP1 KECCAK256 SLOAD PUSH1 0x1 PUSH1 0x1 PUSH1 0xA0 SHL SUB AND SUB PUSH2 0x1D1D JUMPI PUSH1 0x40 MLOAD PUSH3 0x461BCD PUSH1 0xE5 SHL DUP2 MSTORE PUSH1 0x20 PUSH1 0x4 DUP3 ADD MSTORE PUSH1 0x19 PUSH1 0x24 DUP3 ADD MSTORE PUSH25 0x111A5CD8DBDC99081251081B9BDD081C9959DA5CDD195C9959 PUSH1 0x3A SHL PUSH1 0x44 DUP3 ADD MSTORE PUSH1 0x64 ADD PUSH2 0x6D1 JUMP JUMPDEST PUSH1 0x0 PUSH1 0xA DUP5 DUP5 PUSH1 0x40 MLOAD PUSH2 0x1D31 SWAP3 SWAP2 SWAP1 PUSH2 0x35B4 JUMP JUMPDEST SWAP1 DUP2 MSTORE PUSH1 0x40 MLOAD SWAP1 DUP2 SWAP1 SUB PUSH1 0x20 ADD DUP2 KECCAK256 SLOAD PUSH1 0x1 PUSH1 0x1 PUSH1 0xA0 SHL SUB AND SWAP2 POP DUP3 SWAP1 PUSH1 0xA SWAP1 PUSH2 0x1D5E SWAP1 DUP8 SWAP1 DUP8 SWAP1 PUSH2 0x35B4 JUMP JUMPDEST SWAP1 DUP2 MSTORE PUSH1 0x40 MLOAD SWAP1 DUP2 SWAP1 SUB PUSH1 0x20 ADD DUP2 KECCAK256 DUP1 SLOAD PUSH1 0x1 PUSH1 0x1 PUSH1 0xA0 SHL SUB SWAP4 DUP5 AND PUSH1 0x1 PUSH1 0x1 PUSH1 0xA0 SHL SUB NOT SWAP1 SWAP2 AND OR SWAP1 SSTORE DUP4 DUP3 AND SWAP2 DUP4 AND SWAP1 PUSH2 0x1D9D SWAP1 DUP8 SWAP1 DUP8 SWAP1 PUSH2 0x35B4 JUMP JUMPDEST PUSH1 0x40 MLOAD SWAP1 DUP2 SWAP1 SUB DUP2 KECCAK256 CALLER DUP3 MSTORE SWAP1 PUSH32 0xAA7423B4705D26552953DAADD7B95B4CAE07A8250703C2B822F7ECF16B3F3B8B SWAP1 PUSH1 0x20 ADD PUSH1 0x40 MLOAD DUP1 SWAP2 SUB SWAP1 LOG4 POP POP POP POP JUMP JUMPDEST PUSH1 0x0 DUP1 PUSH1 0x1 PUSH1 0x1 PUSH1 0xA0 SHL SUB AND PUSH1 0xA DUP5 DUP5 PUSH1 0x40 MLOAD PUSH2 0x1DFB SWAP3 SWAP2 SWAP1 PUSH2 0x35B4 JUMP JUMPDEST SWAP1 DUP2 MSTORE PUSH1 0x40 MLOAD SWAP1 DUP2 SWAP1 SUB PUSH1 0x20 ADD SWAP1 KECCAK256 SLOAD PUSH1 0x1 PUSH1 0x1 PUSH1 0xA0 SHL SUB AND EQ ISZERO SWAP1 POP SWAP3 SWAP2 POP POP JUMP JUMPDEST PUSH1 0x40 DUP1 MLOAD PUSH1 0x0 DUP1 DUP3 MSTORE PUSH1 0x20 DUP3 ADD SWAP1 SWAP3 MSTORE PUSH1 0x60 SWAP2 SWAP1 DUP2 JUMPDEST POP SWAP5 SWAP4 POP POP POP POP JUMP JUMPDEST PUSH1 0x1 PUSH1 0x1 PUSH1 0xA0 SHL SUB SWAP2 DUP3 AND PUSH1 0x0 SWAP1 DUP2 MSTORE PUSH1 0x5 PUSH1 0x20 SWAP1 DUP2 MSTORE PUSH1 0x40 DUP1 DUP4 KECCAK256 SWAP4 SWAP1 SWAP5 AND DUP3 MSTORE SWAP2 SWAP1 SWAP2 MSTORE KECCAK256 SLOAD PUSH1 0xFF AND SWAP1 JUMP JUMPDEST PUSH2 0x1E73 PUSH2 0x1F47 JUMP JUMPDEST PUSH1 0x1 PUSH1 0x1 PUSH1 0xA0 SHL SUB DUP2 AND PUSH2 0x1E9D JUMPI PUSH1 0x40 MLOAD PUSH4 0x1E4FBDF7 PUSH1 0xE0 SHL DUP2 MSTORE PUSH1 0x0 PUSH1 0x4 DUP3 ADD MSTORE PUSH1 0x24 ADD PUSH2 0x6D1 JUMP JUMPDEST PUSH2 0x1EA6 DUP2 PUSH2 0x1F74 JUMP JUMPDEST POP JUMP JUMPDEST PUSH1 0x0 DUP2 DUP2 MSTORE PUSH1 0x2 PUSH1 0x20 MSTORE PUSH1 0x40 DUP2 KECCAK256 SLOAD PUSH1 0x1 PUSH1 0x1 PUSH1 0xA0 SHL SUB AND DUP1 PUSH2 0x5BA JUMPI PUSH1 0x40 MLOAD PUSH4 0x7E273289 PUSH1 0xE0 SHL DUP2 MSTORE PUSH1 0x4 DUP2 ADD DUP5 SWAP1 MSTORE PUSH1 0x24 ADD PUSH2 0x6D1 JUMP JUMPDEST PUSH1 0x1 PUSH1 0x1 PUSH1 0xA0 SHL SUB DUP3 AND PUSH2 0x1F0C JUMPI PUSH1 0x40 MLOAD PUSH4 0x32505749 PUSH1 0xE1 SHL DUP2 MSTORE PUSH1 0x0 PUSH1 0x4 DUP3 ADD MSTORE PUSH1 0x24 ADD PUSH2 0x6D1 JUMP JUMPDEST PUSH1 0x0 PUSH2 0x1F1A DUP4 DUP4 PUSH1 0x0 PUSH2 0x244B JUMP JUMPDEST SWAP1 POP PUSH1 0x1 PUSH1 0x1 PUSH1 0xA0 SHL SUB DUP2 AND ISZERO PUSH2 0x793 JUMPI PUSH1 0x40 MLOAD PUSH4 0x39E35637 PUSH1 0xE1 SHL DUP2 MSTORE PUSH1 0x0 PUSH1 0x4 DUP3 ADD MSTORE PUSH1 0x24 ADD PUSH2 0x6D1 JUMP JUMPDEST PUSH1 0x6 SLOAD PUSH1 0x1 PUSH1 0x1 PUSH1 0xA0 SHL SUB AND CALLER EQ PUSH2 0x1035 JUMPI PUSH1 0x40 MLOAD PUSH4 0x118CDAA7 PUSH1 0xE0 SHL DUP2 MSTORE CALLER PUSH1 0x4 DUP3 ADD MSTORE PUSH1 0x24 ADD PUSH2 0x6D1 JUMP JUMPDEST PUSH1 0x6 DUP1 SLOAD PUSH1 0x1 PUSH1 0x1 PUSH1 0xA0 SHL SUB DUP4 DUP2 AND PUSH1 0x1 PUSH1 0x1 PUSH1 0xA0 SHL SUB NOT DUP4 AND DUP2 OR SWAP1 SWAP4 SSTORE PUSH1 0x40 MLOAD SWAP2 AND SWAP2 SWAP1 DUP3 SWAP1 PUSH32 0x8BE0079C531659141344CD1FD0A4F28419497F9722A3DAAFE3B4186F6B6457E0 SWAP1 PUSH1 0x0 SWAP1 LOG3 POP POP JUMP JUMPDEST PUSH1 0x60 DUP2 PUSH1 0x0 SUB PUSH2 0x1FED JUMPI POP POP PUSH1 0x40 DUP1 MLOAD DUP1 DUP3 ADD SWAP1 SWAP2 MSTORE PUSH1 0x1 DUP2 MSTORE PUSH1 0x3 PUSH1 0xFC SHL PUSH1 0x20 DUP3 ADD MSTORE SWAP1 JUMP JUMPDEST DUP2 PUSH1 0x0 JUMPDEST DUP2 ISZERO PUSH2 0x2017 JUMPI DUP1 PUSH2 0x2001 DUP2 PUSH2 0x2EB3 JUMP JUMPDEST SWAP2 POP PUSH2 0x2010 SWAP1 POP PUSH1 0xA DUP4 PUSH2 0x376A JUMP JUMPDEST SWAP2 POP PUSH2 0x1FF1 JUMP JUMPDEST PUSH1 0x0 DUP2 PUSH1 0x1 PUSH1 0x1 PUSH1 0x40 SHL SUB DUP2 GT ISZERO PUSH2 0x2031 JUMPI PUSH2 0x2031 PUSH2 0x2807 JUMP JUMPDEST PUSH1 0x40 MLOAD SWAP1 DUP1 DUP3 MSTORE DUP1 PUSH1 0x1F ADD PUSH1 0x1F NOT AND PUSH1 0x20 ADD DUP3 ADD PUSH1 0x40 MSTORE DUP1 ISZERO PUSH2 0x205B JUMPI PUSH1 0x20 DUP3 ADD DUP2 DUP1 CALLDATASIZE DUP4 CALLDATACOPY ADD SWAP1 POP JUMPDEST POP SWAP1 POP DUP2 JUMPDEST DUP6 ISZERO PUSH2 0x1E34 JUMPI PUSH2 0x2071 PUSH1 0x1 DUP3 PUSH2 0x378C JUMP JUMPDEST SWAP1 POP PUSH1 0x0 PUSH2 0x2080 PUSH1 0xA DUP9 PUSH2 0x376A JUMP JUMPDEST PUSH2 0x208B SWAP1 PUSH1 0xA PUSH2 0x379F JUMP JUMPDEST PUSH2 0x2095 SWAP1 DUP9 PUSH2 0x378C JUMP JUMPDEST PUSH2 0x20A0 SWAP1 PUSH1 0x30 PUSH2 0x37B6 JUMP JUMPDEST SWAP1 POP PUSH1 0x0 DUP2 PUSH1 0xF8 SHL SWAP1 POP DUP1 DUP5 DUP5 DUP2 MLOAD DUP2 LT PUSH2 0x20BD JUMPI PUSH2 0x20BD PUSH2 0x37CF JUMP JUMPDEST PUSH1 0x20 ADD ADD SWAP1 PUSH1 0x1 PUSH1 0x1 PUSH1 0xF8 SHL SUB NOT AND SWAP1 DUP2 PUSH1 0x0 BYTE SWAP1 MSTORE8 POP PUSH2 0x20DF PUSH1 0xA DUP10 PUSH2 0x376A JUMP JUMPDEST SWAP8 POP POP POP PUSH2 0x2060 JUMP JUMPDEST PUSH1 0x60 PUSH1 0x0 PUSH1 0x40 MLOAD DUP1 PUSH1 0x60 ADD PUSH1 0x40 MSTORE DUP1 PUSH1 0x40 DUP2 MSTORE PUSH1 0x20 ADD PUSH2 0x3810 PUSH1 0x40 SWAP2 CODECOPY DUP4 MLOAD SWAP1 SWAP2 POP PUSH1 0x0 DUP2 SWAP1 SUB PUSH2 0x212A JUMPI POP POP PUSH1 0x40 DUP1 MLOAD PUSH1 0x20 DUP2 ADD SWAP1 SWAP2 MSTORE PUSH1 0x0 DUP2 MSTORE SWAP3 SWAP2 POP POP JUMP JUMPDEST PUSH1 0x0 PUSH1 0x3 PUSH2 0x2139 DUP4 PUSH1 0x2 PUSH2 0x37E5 JUMP JUMPDEST PUSH2 0x2143 SWAP2 SWAP1 PUSH2 0x376A JUMP JUMPDEST PUSH2 0x214E SWAP1 PUSH1 0x4 PUSH2 0x379F JUMP JUMPDEST SWAP1 POP PUSH1 0x0 DUP2 PUSH1 0x1 PUSH1 0x1 PUSH1 0x40 SHL SUB DUP2 GT ISZERO PUSH2 0x216A JUMPI PUSH2 0x216A PUSH2 0x2807 JUMP JUMPDEST PUSH1 0x40 MLOAD SWAP1 DUP1 DUP3 MSTORE DUP1 PUSH1 0x1F ADD PUSH1 0x1F NOT AND PUSH1 0x20 ADD DUP3 ADD PUSH1 0x40 MSTORE DUP1 ISZERO PUSH2 0x2194 JUMPI PUSH1 0x20 DUP3 ADD DUP2 DUP1 CALLDATASIZE DUP4 CALLDATACOPY ADD SWAP1 POP JUMPDEST POP SWAP1 POP PUSH1 0x0 DUP1 JUMPDEST DUP5 DUP3 LT ISZERO PUSH2 0x23EA JUMPI PUSH1 0x0 DUP6 DUP4 LT PUSH2 0x21B3 JUMPI PUSH1 0x0 PUSH2 0x21D9 JUMP JUMPDEST DUP9 DUP4 PUSH2 0x21BE DUP2 PUSH2 0x2EB3 JUMP JUMPDEST SWAP5 POP DUP2 MLOAD DUP2 LT PUSH2 0x21D0 JUMPI PUSH2 0x21D0 PUSH2 0x37CF JUMP JUMPDEST ADD PUSH1 0x20 ADD MLOAD PUSH1 0xF8 SHR JUMPDEST PUSH1 0xFF AND SWAP1 POP PUSH1 0x0 DUP7 DUP5 LT PUSH2 0x21EE JUMPI PUSH1 0x0 PUSH2 0x2214 JUMP JUMPDEST DUP10 DUP5 PUSH2 0x21F9 DUP2 PUSH2 0x2EB3 JUMP JUMPDEST SWAP6 POP DUP2 MLOAD DUP2 LT PUSH2 0x220B JUMPI PUSH2 0x220B PUSH2 0x37CF JUMP JUMPDEST ADD PUSH1 0x20 ADD MLOAD PUSH1 0xF8 SHR JUMPDEST PUSH1 0xFF AND SWAP1 POP PUSH1 0x0 DUP8 DUP6 LT PUSH2 0x2229 JUMPI PUSH1 0x0 PUSH2 0x224F JUMP JUMPDEST DUP11 DUP6 PUSH2 0x2234 DUP2 PUSH2 0x2EB3 JUMP JUMPDEST SWAP7 POP DUP2 MLOAD DUP2 LT PUSH2 0x2246 JUMPI PUSH2 0x2246 PUSH2 0x37CF JUMP JUMPDEST ADD PUSH1 0x20 ADD MLOAD PUSH1 0xF8 SHR JUMPDEST PUSH1 0xFF AND SWAP1 POP PUSH1 0x0 DUP2 PUSH2 0x2269 PUSH1 0x8 DUP6 SWAP1 SHL PUSH1 0x10 DUP8 SWAP1 SHL PUSH2 0x37E5 JUMP JUMPDEST PUSH2 0x2273 SWAP2 SWAP1 PUSH2 0x37E5 JUMP JUMPDEST SWAP1 POP DUP10 PUSH1 0x12 DUP3 SWAP1 SHR PUSH1 0x3F AND DUP2 MLOAD DUP2 LT PUSH2 0x228E JUMPI PUSH2 0x228E PUSH2 0x37CF JUMP JUMPDEST ADD PUSH1 0x20 ADD MLOAD PUSH1 0x1 PUSH1 0x1 PUSH1 0xF8 SHL SUB NOT AND DUP8 DUP7 PUSH2 0x22A8 DUP2 PUSH2 0x2EB3 JUMP JUMPDEST SWAP8 POP DUP2 MLOAD DUP2 LT PUSH2 0x22BA JUMPI PUSH2 0x22BA PUSH2 0x37CF JUMP JUMPDEST PUSH1 0x20 ADD ADD SWAP1 PUSH1 0x1 PUSH1 0x1 PUSH1 0xF8 SHL SUB NOT AND SWAP1 DUP2 PUSH1 0x0 BYTE SWAP1 MSTORE8 POP DUP10 PUSH1 0xC DUP3 SWAP1 SHR PUSH1 0x3F AND DUP2 MLOAD DUP2 LT PUSH2 0x22EA JUMPI PUSH2 0x22EA PUSH2 0x37CF JUMP JUMPDEST ADD PUSH1 0x20 ADD MLOAD PUSH1 0x1 PUSH1 0x1 PUSH1 0xF8 SHL SUB NOT AND DUP8 DUP7 PUSH2 0x2304 DUP2 PUSH2 0x2EB3 JUMP JUMPDEST SWAP8 POP DUP2 MLOAD DUP2 LT PUSH2 0x2316 JUMPI PUSH2 0x2316 PUSH2 0x37CF JUMP JUMPDEST PUSH1 0x20 ADD ADD SWAP1 PUSH1 0x1 PUSH1 0x1 PUSH1 0xF8 SHL SUB NOT AND SWAP1 DUP2 PUSH1 0x0 BYTE SWAP1 MSTORE8 POP DUP10 PUSH1 0x6 DUP3 SWAP1 SHR PUSH1 0x3F AND DUP2 MLOAD DUP2 LT PUSH2 0x2346 JUMPI PUSH2 0x2346 PUSH2 0x37CF JUMP JUMPDEST ADD PUSH1 0x20 ADD MLOAD PUSH1 0x1 PUSH1 0x1 PUSH1 0xF8 SHL SUB NOT AND DUP8 DUP7 PUSH2 0x2360 DUP2 PUSH2 0x2EB3 JUMP JUMPDEST SWAP8 POP DUP2 MLOAD DUP2 LT PUSH2 0x2372 JUMPI PUSH2 0x2372 PUSH2 0x37CF JUMP JUMPDEST PUSH1 0x20 ADD ADD SWAP1 PUSH1 0x1 PUSH1 0x1 PUSH1 0xF8 SHL SUB NOT AND SWAP1 DUP2 PUSH1 0x0 BYTE SWAP1 MSTORE8 POP DUP10 DUP2 PUSH1 0x3F AND DUP2 MLOAD DUP2 LT PUSH2 0x239E JUMPI PUSH2 0x239E PUSH2 0x37CF JUMP JUMPDEST ADD PUSH1 0x20 ADD MLOAD PUSH1 0x1 PUSH1 0x1 PUSH1 0xF8 SHL SUB NOT AND DUP8 DUP7 PUSH2 0x23B8 DUP2 PUSH2 0x2EB3 JUMP JUMPDEST SWAP8 POP DUP2 MLOAD DUP2 LT PUSH2 0x23CA JUMPI PUSH2 0x23CA PUSH2 0x37CF JUMP JUMPDEST PUSH1 0x20 ADD ADD SWAP1 PUSH1 0x1 PUSH1 0x1 PUSH1 0xF8 SHL SUB NOT AND SWAP1 DUP2 PUSH1 0x0 BYTE SWAP1 MSTORE8 POP POP POP POP POP PUSH2 0x219B JUMP JUMPDEST PUSH1 0x0 DUP2 GT DUP1 ISZERO PUSH2 0x2428 JUMPI POP DUP3 PUSH2 0x2401 PUSH1 0x1 DUP4 PUSH2 0x378C JUMP JUMPDEST DUP2 MLOAD DUP2 LT PUSH2 0x2411 JUMPI PUSH2 0x2411 PUSH2 0x37CF JUMP JUMPDEST PUSH1 0x20 SWAP2 ADD ADD MLOAD PUSH1 0x1 PUSH1 0x1 PUSH1 0xF8 SHL SUB NOT AND PUSH1 0x3D PUSH1 0xF8 SHL EQ JUMPDEST ISZERO PUSH2 0x243F JUMPI DUP1 PUSH2 0x2437 DUP2 PUSH2 0x37F8 JUMP JUMPDEST SWAP2 POP POP PUSH2 0x23EA JUMP JUMPDEST POP SWAP1 SWAP7 SWAP6 POP POP POP POP POP POP JUMP JUMPDEST PUSH1 0x0 DUP3 DUP2 MSTORE PUSH1 0x2 PUSH1 0x20 MSTORE PUSH1 0x40 DUP2 KECCAK256 SLOAD PUSH1 0x1 PUSH1 0x1 PUSH1 0xA0 SHL SUB SWAP1 DUP2 AND SWAP1 DUP4 AND ISZERO PUSH2 0x2478 JUMPI PUSH2 0x2478 DUP2 DUP5 DUP7 PUSH2 0x2544 JUMP JUMPDEST PUSH1 0x1 PUSH1 0x1 PUSH1 0xA0 SHL SUB DUP2 AND ISZERO PUSH2 0x24B6 JUMPI PUSH2 0x2495 PUSH1 0x0 DUP6 PUSH1 0x0 DUP1 PUSH2 0x25A8 JUMP JUMPDEST PUSH1 0x1 PUSH1 0x1 PUSH1 0xA0 SHL SUB DUP2 AND PUSH1 0x0 SWAP1 DUP2 MSTORE PUSH1 0x3 PUSH1 0x20 MSTORE PUSH1 0x40 SWAP1 KECCAK256 DUP1 SLOAD PUSH1 0x0 NOT ADD SWAP1 SSTORE JUMPDEST PUSH1 0x1 PUSH1 0x1 PUSH1 0xA0 SHL SUB DUP6 AND ISZERO PUSH2 0x24E5 JUMPI PUSH1 0x1 PUSH1 0x1 PUSH1 0xA0 SHL SUB DUP6 AND PUSH1 0x0 SWAP1 DUP2 MSTORE PUSH1 0x3 PUSH1 0x20 MSTORE PUSH1 0x40 SWAP1 KECCAK256 DUP1 SLOAD PUSH1 0x1 ADD SWAP1 SSTORE JUMPDEST PUSH1 0x0 DUP5 DUP2 MSTORE PUSH1 0x2 PUSH1 0x20 MSTORE PUSH1 0x40 DUP1 DUP3 KECCAK256 DUP1 SLOAD PUSH1 0x1 PUSH1 0x1 PUSH1 0xA0 SHL SUB NOT AND PUSH1 0x1 PUSH1 0x1 PUSH1 0xA0 SHL SUB DUP10 DUP2 AND SWAP2 DUP3 OR SWAP1 SWAP3 SSTORE SWAP2 MLOAD DUP8 SWAP4 SWAP2 DUP6 AND SWAP2 PUSH32 0xDDF252AD1BE2C89B69C2B068FC378DAA952BA7F163C4A11628F55A4DF523B3EF SWAP2 LOG4 SWAP5 SWAP4 POP POP POP POP JUMP JUMPDEST PUSH2 0x254F DUP4 DUP4 DUP4 PUSH2 0x26AE JUMP JUMPDEST PUSH2 0x793 JUMPI PUSH1 0x1 PUSH1 0x1 PUSH1 0xA0 SHL SUB DUP4 AND PUSH2 0x257D JUMPI PUSH1 0x40 MLOAD PUSH4 0x7E273289 PUSH1 0xE0 SHL DUP2 MSTORE PUSH1 0x4 DUP2 ADD DUP3 SWAP1 MSTORE PUSH1 0x24 ADD PUSH2 0x6D1 JUMP JUMPDEST PUSH1 0x40 MLOAD PUSH4 0x177E802F PUSH1 0xE0 SHL DUP2 MSTORE PUSH1 0x1 PUSH1 0x1 PUSH1 0xA0 SHL SUB DUP4 AND PUSH1 0x4 DUP3 ADD MSTORE PUSH1 0x24 DUP2 ADD DUP3 SWAP1 MSTORE PUSH1 0x44 ADD PUSH2 0x6D1 JUMP JUMPDEST DUP1 DUP1 PUSH2 0x25BC JUMPI POP PUSH1 0x1 PUSH1 0x1 PUSH1 0xA0 SHL SUB DUP3 AND ISZERO ISZERO JUMPDEST ISZERO PUSH2 0x267E JUMPI PUSH1 0x0 PUSH2 0x25CC DUP5 PUSH2 0x1EA9 JUMP JUMPDEST SWAP1 POP PUSH1 0x1 PUSH1 0x1 PUSH1 0xA0 SHL SUB DUP4 AND ISZERO DUP1 ISZERO SWAP1 PUSH2 0x25F8 JUMPI POP DUP3 PUSH1 0x1 PUSH1 0x1 PUSH1 0xA0 SHL SUB AND DUP2 PUSH1 0x1 PUSH1 0x1 PUSH1 0xA0 SHL SUB AND EQ ISZERO JUMPDEST DUP1 ISZERO PUSH2 0x260B JUMPI POP PUSH2 0x2609 DUP2 DUP5 PUSH2 0x1E3D JUMP JUMPDEST ISZERO JUMPDEST ISZERO PUSH2 0x2634 JUMPI PUSH1 0x40 MLOAD PUSH4 0xA9FBF51F PUSH1 0xE0 SHL DUP2 MSTORE PUSH1 0x1 PUSH1 0x1 PUSH1 0xA0 SHL SUB DUP5 AND PUSH1 0x4 DUP3 ADD MSTORE PUSH1 0x24 ADD PUSH2 0x6D1 JUMP JUMPDEST DUP2 ISZERO PUSH2 0x267C JUMPI DUP4 DUP6 PUSH1 0x1 PUSH1 0x1 PUSH1 0xA0 SHL SUB AND DUP3 PUSH1 0x1 PUSH1 0x1 PUSH1 0xA0 SHL SUB AND PUSH32 0x8C5BE1E5EBEC7D5BD14F71427D1E84F3DD0314C0F7B2291E5B200AC8C7C3B925 PUSH1 0x40 MLOAD PUSH1 0x40 MLOAD DUP1 SWAP2 SUB SWAP1 LOG4 JUMPDEST POP JUMPDEST POP POP PUSH1 0x0 SWAP1 DUP2 MSTORE PUSH1 0x4 PUSH1 0x20 MSTORE PUSH1 0x40 SWAP1 KECCAK256 DUP1 SLOAD PUSH1 0x1 PUSH1 0x1 PUSH1 0xA0 SHL SUB NOT AND PUSH1 0x1 PUSH1 0x1 PUSH1 0xA0 SHL SUB SWAP3 SWAP1 SWAP3 AND SWAP2 SWAP1 SWAP2 OR SWAP1 SSTORE JUMP JUMPDEST PUSH1 0x0 PUSH1 0x1 PUSH1 0x1 PUSH1 0xA0 SHL SUB DUP4 AND ISZERO DUP1 ISZERO SWAP1 PUSH2 0x270C JUMPI POP DUP3 PUSH1 0x1 PUSH1 0x1 PUSH1 0xA0 SHL SUB AND DUP5 PUSH1 0x1 PUSH1 0x1 PUSH1 0xA0 SHL SUB AND EQ DUP1 PUSH2 0x26E8 JUMPI POP PUSH2 0x26E8 DUP5 DUP5 PUSH2 0x1E3D JUMP JUMPDEST DUP1 PUSH2 0x270C JUMPI POP PUSH1 0x0 DUP3 DUP2 MSTORE PUSH1 0x4 PUSH1 0x20 MSTORE PUSH1 0x40 SWAP1 KECCAK256 SLOAD PUSH1 0x1 PUSH1 0x1 PUSH1 0xA0 SHL SUB DUP5 DUP2 AND SWAP2 AND EQ JUMPDEST SWAP5 SWAP4 POP POP POP POP JUMP JUMPDEST PUSH1 0x0 PUSH1 0x20 DUP3 DUP5 SUB SLT ISZERO PUSH2 0x2726 JUMPI PUSH1 0x0 DUP1 REVERT JUMPDEST DUP2 CALLDATALOAD PUSH1 0x1 PUSH1 0x1 PUSH1 0xE0 SHL SUB NOT DUP2 AND DUP2 EQ PUSH2 0x273E JUMPI PUSH1 0x0 DUP1 REVERT JUMPDEST SWAP4 SWAP3 POP POP POP JUMP JUMPDEST PUSH1 0x0 JUMPDEST DUP4 DUP2 LT ISZERO PUSH2 0x2760 JUMPI DUP2 DUP2 ADD MLOAD DUP4 DUP3 ADD MSTORE PUSH1 0x20 ADD PUSH2 0x2748 JUMP JUMPDEST POP POP PUSH1 0x0 SWAP2 ADD MSTORE JUMP JUMPDEST PUSH1 0x0 DUP2 MLOAD DUP1 DUP5 MSTORE PUSH2 0x2781 DUP2 PUSH1 0x20 DUP7 ADD PUSH1 0x20 DUP7 ADD PUSH2 0x2745 JUMP JUMPDEST PUSH1 0x1F ADD PUSH1 0x1F NOT AND SWAP3 SWAP1 SWAP3 ADD PUSH1 0x20 ADD SWAP3 SWAP2 POP POP JUMP JUMPDEST PUSH1 0x20 DUP2 MSTORE PUSH1 0x0 PUSH2 0x273E PUSH1 0x20 DUP4 ADD DUP5 PUSH2 0x2769 JUMP JUMPDEST PUSH1 0x0 PUSH1 0x20 DUP3 DUP5 SUB SLT ISZERO PUSH2 0x27BA JUMPI PUSH1 0x0 DUP1 REVERT JUMPDEST POP CALLDATALOAD SWAP2 SWAP1 POP JUMP JUMPDEST DUP1 CALLDATALOAD PUSH1 0x1 PUSH1 0x1 PUSH1 0xA0 SHL SUB DUP2 AND DUP2 EQ PUSH2 0x27D8 JUMPI PUSH1 0x0 DUP1 REVERT JUMPDEST SWAP2 SWAP1 POP JUMP JUMPDEST PUSH1 0x0 DUP1 PUSH1 0x40 DUP4 DUP6 SUB SLT ISZERO PUSH2 0x27F0 JUMPI PUSH1 0x0 DUP1 REVERT JUMPDEST PUSH2 0x27F9 DUP4 PUSH2 0x27C1 JUMP JUMPDEST SWAP5 PUSH1 0x20 SWAP4 SWAP1 SWAP4 ADD CALLDATALOAD SWAP4 POP POP POP JUMP JUMPDEST PUSH4 0x4E487B71 PUSH1 0xE0 SHL PUSH1 0x0 MSTORE PUSH1 0x41 PUSH1 0x4 MSTORE PUSH1 0x24 PUSH1 0x0 REVERT JUMPDEST PUSH1 0x0 PUSH1 0x1 PUSH1 0x1 PUSH1 0x40 SHL SUB DUP1 DUP5 GT ISZERO PUSH2 0x2837 JUMPI PUSH2 0x2837 PUSH2 0x2807 JUMP JUMPDEST PUSH1 0x40 MLOAD PUSH1 0x1F DUP6 ADD PUSH1 0x1F NOT SWAP1 DUP2 AND PUSH1 0x3F ADD AND DUP2 ADD SWAP1 DUP3 DUP3 GT DUP2 DUP4 LT OR ISZERO PUSH2 0x285F JUMPI PUSH2 0x285F PUSH2 0x2807 JUMP JUMPDEST DUP2 PUSH1 0x40 MSTORE DUP1 SWAP4 POP DUP6 DUP2 MSTORE DUP7 DUP7 DUP7 ADD GT ISZERO PUSH2 0x2878 JUMPI PUSH1 0x0 DUP1 REVERT JUMPDEST DUP6 DUP6 PUSH1 0x20 DUP4 ADD CALLDATACOPY PUSH1 0x0 PUSH1 0x20 DUP8 DUP4 ADD ADD MSTORE POP POP POP SWAP4 SWAP3 POP POP POP JUMP JUMPDEST PUSH1 0x0 DUP3 PUSH1 0x1F DUP4 ADD SLT PUSH2 0x28A3 JUMPI PUSH1 0x0 DUP1 REVERT JUMPDEST PUSH2 0x273E DUP4 DUP4 CALLDATALOAD PUSH1 0x20 DUP6 ADD PUSH2 0x281D JUMP JUMPDEST PUSH1 0x0 DUP1 PUSH1 0x0 PUSH1 0x60 DUP5 DUP7 SUB SLT ISZERO PUSH2 0x28C7 JUMPI PUSH1 0x0 DUP1 REVERT JUMPDEST PUSH2 0x28D0 DUP5 PUSH2 0x27C1 JUMP JUMPDEST SWAP3 POP PUSH1 0x20 DUP5 ADD CALLDATALOAD PUSH1 0x1 PUSH1 0x1 PUSH1 0x40 SHL SUB DUP1 DUP3 GT ISZERO PUSH2 0x28EC JUMPI PUSH1 0x0 DUP1 REVERT JUMPDEST PUSH2 0x28F8 DUP8 DUP4 DUP9 ADD PUSH2 0x2892 JUMP JUMPDEST SWAP4 POP PUSH1 0x40 DUP7 ADD CALLDATALOAD SWAP2 POP DUP1 DUP3 GT ISZERO PUSH2 0x290E JUMPI PUSH1 0x0 DUP1 REVERT JUMPDEST POP PUSH2 0x291B DUP7 DUP3 DUP8 ADD PUSH2 0x2892 JUMP JUMPDEST SWAP2 POP POP SWAP3 POP SWAP3 POP SWAP3 JUMP JUMPDEST PUSH1 0x0 DUP1 PUSH1 0x0 PUSH1 0x60 DUP5 DUP7 SUB SLT ISZERO PUSH2 0x293A JUMPI PUSH1 0x0 DUP1 REVERT JUMPDEST PUSH2 0x2943 DUP5 PUSH2 0x27C1 JUMP JUMPDEST SWAP3 POP PUSH2 0x2951 PUSH1 0x20 DUP6 ADD PUSH2 0x27C1 JUMP JUMPDEST SWAP2 POP PUSH1 0x40 DUP5 ADD CALLDATALOAD SWAP1 POP SWAP3 POP SWAP3 POP SWAP3 JUMP JUMPDEST PUSH1 0x0 DUP1 PUSH1 0x0 DUP1 PUSH1 0x0 DUP1 PUSH1 0x0 PUSH1 0xE0 DUP9 DUP11 SUB SLT ISZERO PUSH2 0x297C JUMPI PUSH1 0x0 DUP1 REVERT JUMPDEST PUSH2 0x2985 DUP9 PUSH2 0x27C1 JUMP JUMPDEST SWAP7 POP PUSH1 0x20 DUP9 ADD CALLDATALOAD PUSH1 0x1 PUSH1 0x1 PUSH1 0x40 SHL SUB DUP1 DUP3 GT ISZERO PUSH2 0x29A1 JUMPI PUSH1 0x0 DUP1 REVERT JUMPDEST PUSH2 0x29AD DUP12 DUP4 DUP13 ADD PUSH2 0x2892 JUMP JUMPDEST SWAP8 POP PUSH1 0x40 DUP11 ADD CALLDATALOAD SWAP2 POP DUP1 DUP3 GT ISZERO PUSH2 0x29C3 JUMPI PUSH1 0x0 DUP1 REVERT JUMPDEST PUSH2 0x29CF DUP12 DUP4 DUP13 ADD PUSH2 0x2892 JUMP JUMPDEST SWAP7 POP PUSH1 0x60 DUP11 ADD CALLDATALOAD SWAP2 POP DUP1 DUP3 GT ISZERO PUSH2 0x29E5 JUMPI PUSH1 0x0 DUP1 REVERT JUMPDEST PUSH2 0x29F1 DUP12 DUP4 DUP13 ADD PUSH2 0x2892 JUMP JUMPDEST SWAP6 POP PUSH1 0x80 DUP11 ADD CALLDATALOAD SWAP5 POP PUSH1 0xA0 DUP11 ADD CALLDATALOAD SWAP2 POP DUP1 DUP3 GT ISZERO PUSH2 0x2A0E JUMPI PUSH1 0x0 DUP1 REVERT JUMPDEST PUSH2 0x2A1A DUP12 DUP4 DUP13 ADD PUSH2 0x2892 JUMP JUMPDEST SWAP4 POP PUSH1 0xC0 DUP11 ADD CALLDATALOAD SWAP2 POP DUP1 DUP3 GT ISZERO PUSH2 0x2A30 JUMPI PUSH1 0x0 DUP1 REVERT JUMPDEST POP PUSH2 0x2A3D DUP11 DUP3 DUP12 ADD PUSH2 0x2892 JUMP JUMPDEST SWAP2 POP POP SWAP3 SWAP6 SWAP9 SWAP2 SWAP5 SWAP8 POP SWAP3 SWAP6 POP JUMP JUMPDEST PUSH1 0x20 DUP1 DUP3 MSTORE DUP3 MLOAD PUSH1 0x1 PUSH1 0x1 PUSH1 0xA0 SHL SUB AND DUP3 DUP3 ADD MSTORE DUP3 ADD MLOAD PUSH1 0xA0 PUSH1 0x40 DUP4 ADD MSTORE PUSH1 0x0 SWAP1 PUSH2 0x2A7A PUSH1 0xC0 DUP5 ADD DUP3 PUSH2 0x2769 JUMP JUMPDEST SWAP1 POP PUSH1 0x40 DUP5 ADD MLOAD PUSH1 0x1F NOT DUP1 DUP6 DUP5 SUB ADD PUSH1 0x60 DUP7 ADD MSTORE PUSH2 0x2A98 DUP4 DUP4 PUSH2 0x2769 JUMP JUMPDEST SWAP3 POP PUSH1 0x60 DUP7 ADD MLOAD SWAP2 POP DUP1 DUP6 DUP5 SUB ADD PUSH1 0x80 DUP7 ADD MSTORE POP PUSH2 0x2AB6 DUP3 DUP3 PUSH2 0x2769 JUMP JUMPDEST SWAP2 POP POP PUSH1 0x80 DUP5 ADD MLOAD PUSH1 0xA0 DUP5 ADD MSTORE DUP1 SWAP2 POP POP SWAP3 SWAP2 POP POP JUMP JUMPDEST PUSH1 0x0 PUSH1 0x20 DUP3 DUP5 SUB SLT ISZERO PUSH2 0x2ADF JUMPI PUSH1 0x0 DUP1 REVERT JUMPDEST PUSH2 0x273E DUP3 PUSH2 0x27C1 JUMP JUMPDEST PUSH1 0x0 DUP1 PUSH1 0x40 DUP4 DUP6 SUB SLT ISZERO PUSH2 0x2AFB JUMPI PUSH1 0x0 DUP1 REVERT JUMPDEST DUP3 CALLDATALOAD SWAP2 POP PUSH1 0x20 DUP4 ADD CALLDATALOAD PUSH1 0x1 PUSH1 0x1 PUSH1 0x40 SHL SUB DUP2 GT ISZERO PUSH2 0x2B18 JUMPI PUSH1 0x0 DUP1 REVERT JUMPDEST PUSH2 0x2B24 DUP6 DUP3 DUP7 ADD PUSH2 0x2892 JUMP JUMPDEST SWAP2 POP POP SWAP3 POP SWAP3 SWAP1 POP JUMP JUMPDEST PUSH1 0x0 DUP1 PUSH1 0x40 DUP4 DUP6 SUB SLT ISZERO PUSH2 0x2B41 JUMPI PUSH1 0x0 DUP1 REVERT JUMPDEST PUSH2 0x2B4A DUP4 PUSH2 0x27C1 JUMP JUMPDEST SWAP2 POP PUSH1 0x20 DUP4 ADD CALLDATALOAD DUP1 ISZERO ISZERO DUP2 EQ PUSH2 0x2B5F JUMPI PUSH1 0x0 DUP1 REVERT JUMPDEST DUP1 SWAP2 POP POP SWAP3 POP SWAP3 SWAP1 POP JUMP JUMPDEST PUSH1 0x0 PUSH1 0x20 DUP3 DUP5 SUB SLT ISZERO PUSH2 0x2B7C JUMPI PUSH1 0x0 DUP1 REVERT JUMPDEST DUP2 CALLDATALOAD PUSH1 0x1 PUSH1 0x1 PUSH1 0x40 SHL SUB DUP2 GT ISZERO PUSH2 0x2B92 JUMPI PUSH1 0x0 DUP1 REVERT JUMPDEST PUSH2 0x270C DUP5 DUP3 DUP6 ADD PUSH2 0x2892 JUMP JUMPDEST PUSH1 0x0 DUP1 PUSH1 0x0 DUP1 PUSH1 0x80 DUP6 DUP8 SUB SLT ISZERO PUSH2 0x2BB4 JUMPI PUSH1 0x0 DUP1 REVERT JUMPDEST PUSH2 0x2BBD DUP6 PUSH2 0x27C1 JUMP JUMPDEST SWAP4 POP PUSH2 0x2BCB PUSH1 0x20 DUP7 ADD PUSH2 0x27C1 JUMP JUMPDEST SWAP3 POP PUSH1 0x40 DUP6 ADD CALLDATALOAD SWAP2 POP PUSH1 0x60 DUP6 ADD CALLDATALOAD PUSH1 0x1 PUSH1 0x1 PUSH1 0x40 SHL SUB DUP2 GT ISZERO PUSH2 0x2BED JUMPI PUSH1 0x0 DUP1 REVERT JUMPDEST DUP6 ADD PUSH1 0x1F DUP2 ADD DUP8 SGT PUSH2 0x2BFE JUMPI PUSH1 0x0 DUP1 REVERT JUMPDEST PUSH2 0x2C0D DUP8 DUP3 CALLDATALOAD PUSH1 0x20 DUP5 ADD PUSH2 0x281D JUMP JUMPDEST SWAP2 POP POP SWAP3 SWAP6 SWAP2 SWAP5 POP SWAP3 POP JUMP JUMPDEST PUSH1 0x0 DUP1 DUP4 PUSH1 0x1F DUP5 ADD SLT PUSH2 0x2C2B JUMPI PUSH1 0x0 DUP1 REVERT JUMPDEST POP DUP2 CALLDATALOAD PUSH1 0x1 PUSH1 0x1 PUSH1 0x40 SHL SUB DUP2 GT ISZERO PUSH2 0x2C42 JUMPI PUSH1 0x0 DUP1 REVERT JUMPDEST PUSH1 0x20 DUP4 ADD SWAP2 POP DUP4 PUSH1 0x20 DUP3 DUP6 ADD ADD GT ISZERO PUSH2 0x2C5A JUMPI PUSH1 0x0 DUP1 REVERT JUMPDEST SWAP3 POP SWAP3 SWAP1 POP JUMP JUMPDEST PUSH1 0x0 DUP1 PUSH1 0x0 PUSH1 0x40 DUP5 DUP7 SUB SLT ISZERO PUSH2 0x2C76 JUMPI PUSH1 0x0 DUP1 REVERT JUMPDEST DUP4 CALLDATALOAD PUSH1 0x1 PUSH1 0x1 PUSH1 0x40 SHL SUB DUP2 GT ISZERO PUSH2 0x2C8C JUMPI PUSH1 0x0 DUP1 REVERT JUMPDEST PUSH2 0x2C98 DUP7 DUP3 DUP8 ADD PUSH2 0x2C19 JUMP JUMPDEST SWAP1 SWAP5 POP SWAP3 POP PUSH2 0x2CAB SWAP1 POP PUSH1 0x20 DUP6 ADD PUSH2 0x27C1 JUMP JUMPDEST SWAP1 POP SWAP3 POP SWAP3 POP SWAP3 JUMP JUMPDEST PUSH1 0x1 PUSH1 0x1 PUSH1 0xA0 SHL SUB DUP7 AND DUP2 MSTORE PUSH1 0xA0 PUSH1 0x20 DUP3 ADD DUP2 SWAP1 MSTORE PUSH1 0x0 SWAP1 PUSH2 0x2CD8 SWAP1 DUP4 ADD DUP8 PUSH2 0x2769 JUMP JUMPDEST DUP3 DUP2 SUB PUSH1 0x40 DUP5 ADD MSTORE PUSH2 0x2CEA DUP2 DUP8 PUSH2 0x2769 JUMP JUMPDEST SWAP1 POP DUP3 DUP2 SUB PUSH1 0x60 DUP5 ADD MSTORE PUSH2 0x2CFE DUP2 DUP7 PUSH2 0x2769 JUMP JUMPDEST SWAP2 POP POP DUP3 PUSH1 0x80 DUP4 ADD MSTORE SWAP7 SWAP6 POP POP POP POP POP POP JUMP JUMPDEST PUSH1 0x0 DUP1 PUSH1 0x20 DUP4 DUP6 SUB SLT ISZERO PUSH2 0x2D24 JUMPI PUSH1 0x0 DUP1 REVERT JUMPDEST DUP3 CALLDATALOAD PUSH1 0x1 PUSH1 0x1 PUSH1 0x40 SHL SUB DUP2 GT ISZERO PUSH2 0x2D3A JUMPI PUSH1 0x0 DUP1 REVERT JUMPDEST PUSH2 0x2D46 DUP6 DUP3 DUP7 ADD PUSH2 0x2C19 JUMP JUMPDEST SWAP1 SWAP7 SWAP1 SWAP6 POP SWAP4 POP POP POP POP JUMP JUMPDEST PUSH1 0x0 DUP1 PUSH1 0x40 DUP4 DUP6 SUB SLT ISZERO PUSH2 0x2D65 JUMPI PUSH1 0x0 DUP1 REVERT JUMPDEST PUSH2 0x2D6E DUP4 PUSH2 0x27C1 JUMP JUMPDEST SWAP2 POP PUSH1 0x20 DUP4 ADD CALLDATALOAD PUSH1 0x1 PUSH1 0x1 PUSH1 0x40 SHL SUB DUP2 GT ISZERO PUSH2 0x2B18 JUMPI PUSH1 0x0 DUP1 REVERT JUMPDEST PUSH1 0x20 DUP1 DUP3 MSTORE DUP3 MLOAD DUP3 DUP3 ADD DUP2 SWAP1 MSTORE PUSH1 0x0 SWAP2 SWAP1 DUP5 DUP3 ADD SWAP1 PUSH1 0x40 DUP6 ADD SWAP1 DUP5 JUMPDEST DUP2 DUP2 LT ISZERO PUSH2 0x243F JUMPI DUP4 MLOAD DUP4 MSTORE SWAP3 DUP5 ADD SWAP3 SWAP2 DUP5 ADD SWAP2 PUSH1 0x1 ADD PUSH2 0x2DA5 JUMP JUMPDEST PUSH1 0x0 DUP1 PUSH1 0x40 DUP4 DUP6 SUB SLT ISZERO PUSH2 0x2DD4 JUMPI PUSH1 0x0 DUP1 REVERT JUMPDEST PUSH2 0x2DDD DUP4 PUSH2 0x27C1 JUMP JUMPDEST SWAP2 POP PUSH2 0x2DEB PUSH1 0x20 DUP5 ADD PUSH2 0x27C1 JUMP JUMPDEST SWAP1 POP SWAP3 POP SWAP3 SWAP1 POP JUMP JUMPDEST PUSH1 0x1 DUP2 DUP2 SHR SWAP1 DUP3 AND DUP1 PUSH2 0x2E08 JUMPI PUSH1 0x7F DUP3 AND SWAP2 POP JUMPDEST PUSH1 0x20 DUP3 LT DUP2 SUB PUSH2 0x2E28 JUMPI PUSH4 0x4E487B71 PUSH1 0xE0 SHL PUSH1 0x0 MSTORE PUSH1 0x22 PUSH1 0x4 MSTORE PUSH1 0x24 PUSH1 0x0 REVERT JUMPDEST POP SWAP2 SWAP1 POP JUMP JUMPDEST PUSH1 0x0 DUP2 MLOAD PUSH2 0x2E40 DUP2 DUP6 PUSH1 0x20 DUP7 ADD PUSH2 0x2745 JUMP JUMPDEST SWAP3 SWAP1 SWAP3 ADD SWAP3 SWAP2 POP POP JUMP JUMPDEST PUSH1 0x0 DUP3 MLOAD PUSH2 0x2E5C DUP2 DUP5 PUSH1 0x20 DUP8 ADD PUSH2 0x2745 JUMP JUMPDEST SWAP2 SWAP1 SWAP2 ADD SWAP3 SWAP2 POP POP JUMP JUMPDEST PUSH1 0x20 DUP1 DUP3 MSTORE PUSH1 0x1A SWAP1 DUP3 ADD MSTORE PUSH32 0x446973636F72642049442063616E6E6F7420626520656D707479000000000000 PUSH1 0x40 DUP3 ADD MSTORE PUSH1 0x60 ADD SWAP1 JUMP JUMPDEST PUSH4 0x4E487B71 PUSH1 0xE0 SHL PUSH1 0x0 MSTORE PUSH1 0x11 PUSH1 0x4 MSTORE PUSH1 0x24 PUSH1 0x0 REVERT JUMPDEST PUSH1 0x0 PUSH1 0x1 DUP3 ADD PUSH2 0x2EC5 JUMPI PUSH2 0x2EC5 PUSH2 0x2E9D JUMP JUMPDEST POP PUSH1 0x1 ADD SWAP1 JUMP JUMPDEST PUSH1 0x1F DUP3 GT ISZERO PUSH2 0x793 JUMPI PUSH1 0x0 DUP2 PUSH1 0x0 MSTORE PUSH1 0x20 PUSH1 0x0 KECCAK256 PUSH1 0x1F DUP6 ADD PUSH1 0x5 SHR DUP2 ADD PUSH1 0x20 DUP7 LT ISZERO PUSH2 0x2EF5 JUMPI POP DUP1 JUMPDEST PUSH1 0x1F DUP6 ADD PUSH1 0x5 SHR DUP3 ADD SWAP2 POP JUMPDEST DUP2 DUP2 LT ISZERO PUSH2 0x2F14 JUMPI DUP3 DUP2 SSTORE PUSH1 0x1 ADD PUSH2 0x2F01 JUMP JUMPDEST POP POP POP POP POP POP JUMP JUMPDEST DUP2 MLOAD PUSH1 0x1 PUSH1 0x1 PUSH1 0x40 SHL SUB DUP2 GT ISZERO PUSH2 0x2F35 JUMPI PUSH2 0x2F35 PUSH2 0x2807 JUMP JUMPDEST PUSH2 0x2F49 DUP2 PUSH2 0x2F43 DUP5 SLOAD PUSH2 0x2DF4 JUMP JUMPDEST DUP5 PUSH2 0x2ECC JUMP JUMPDEST PUSH1 0x20 DUP1 PUSH1 0x1F DUP4 GT PUSH1 0x1 DUP2 EQ PUSH2 0x2F7E JUMPI PUSH1 0x0 DUP5 ISZERO PUSH2 0x2F66 JUMPI POP DUP6 DUP4 ADD MLOAD JUMPDEST PUSH1 0x0 NOT PUSH1 0x3 DUP7 SWAP1 SHL SHR NOT AND PUSH1 0x1 DUP6 SWAP1 SHL OR DUP6 SSTORE PUSH2 0x2F14 JUMP JUMPDEST PUSH1 0x0 DUP6 DUP2 MSTORE PUSH1 0x20 DUP2 KECCAK256 PUSH1 0x1F NOT DUP7 AND SWAP2 JUMPDEST DUP3 DUP2 LT ISZERO PUSH2 0x2FAD JUMPI DUP9 DUP7 ADD MLOAD DUP3 SSTORE SWAP5 DUP5 ADD SWAP5 PUSH1 0x1 SWAP1 SWAP2 ADD SWAP1 DUP5 ADD PUSH2 0x2F8E JUMP JUMPDEST POP DUP6 DUP3 LT ISZERO PUSH2 0x2FCB JUMPI DUP8 DUP6 ADD MLOAD PUSH1 0x0 NOT PUSH1 0x3 DUP9 SWAP1 SHL PUSH1 0xF8 AND SHR NOT AND DUP2 SSTORE JUMPDEST POP POP POP POP POP PUSH1 0x1 SWAP1 DUP2 SHL ADD SWAP1 SSTORE POP JUMP JUMPDEST PUSH1 0x60 DUP2 MSTORE PUSH1 0x0 PUSH2 0x2FEE PUSH1 0x60 DUP4 ADD DUP7 PUSH2 0x2769 JUMP JUMPDEST DUP3 DUP2 SUB PUSH1 0x20 DUP5 ADD MSTORE PUSH2 0x3000 DUP2 DUP7 PUSH2 0x2769 JUMP JUMPDEST SWAP1 POP DUP3 DUP2 SUB PUSH1 0x40 DUP5 ADD MSTORE PUSH2 0x3014 DUP2 DUP6 PUSH2 0x2769 JUMP JUMPDEST SWAP7 SWAP6 POP POP POP POP POP POP JUMP JUMPDEST PUSH32 0x7B2274726169745F74797065223A2022526F6C65222C202276616C7565223A20 DUP2 MSTORE PUSH1 0x11 PUSH1 0xF9 SHL PUSH1 0x20 DUP3 ADD MSTORE PUSH1 0x21 ADD SWAP1 JUMP JUMPDEST PUSH32 0x7B2274726169745F74797065223A2022446973636F7264204944222C20227661 DUP2 MSTORE PUSH7 0x363AB2911D1011 PUSH1 0xC9 SHL PUSH1 0x20 DUP3 ADD MSTORE PUSH1 0x27 ADD SWAP1 JUMP JUMPDEST PUSH32 0x7B2274726169745F74797065223A2022526F6C65204944222C202276616C7565 DUP2 MSTORE PUSH4 0x111D1011 PUSH1 0xE1 SHL PUSH1 0x20 DUP3 ADD MSTORE PUSH1 0x24 ADD SWAP1 JUMP JUMPDEST PUSH32 0x7B2274726169745F74797065223A20224D696E746564204174222C202276616C DUP2 MSTORE PUSH6 0x3AB2911D1011 PUSH1 0xD1 SHL PUSH1 0x20 DUP3 ADD MSTORE PUSH1 0x26 ADD SWAP1 JUMP JUMPDEST PUSH32 0x2265787465726E616C5F75726C223A202268747470733A2F2F726973652D7061 DUP2 MSTORE PUSH15 0x1CDCCB9D995C98D95B0B985C1C088B PUSH1 0x8A SHL PUSH1 0x20 DUP3 ADD MSTORE PUSH1 0x2F ADD SWAP1 JUMP JUMPDEST PUSH25 0x7B226E616D65223A2022524953452050617373706F72742023 PUSH1 0x38 SHL DUP2 MSTORE PUSH1 0x0 DUP9 MLOAD PUSH2 0x316D DUP2 PUSH1 0x19 DUP6 ADD PUSH1 0x20 DUP14 ADD PUSH2 0x2745 JUMP JUMPDEST DUP3 ADD PUSH2 0x3180 PUSH1 0x19 DUP3 ADD PUSH2 0x88B PUSH1 0xF2 SHL SWAP1 MSTORE JUMP JUMPDEST PUSH32 0x226465736372697074696F6E223A2022524953452050617373706F7274204E46 PUSH1 0x1B DUP3 ADD MSTORE PUSH32 0x54202D2041206469676974616C206964656E7469747920746F6B656E20726570 PUSH1 0x3B DUP3 ADD MSTORE PUSH32 0x726573656E74696E67206D656D6265727368697020696E207468652052495345 PUSH1 0x5B DUP3 ADD MSTORE PUSH32 0x20636F6D6D756E6974792E5C6E5C6E5468697320736F756C626F756E6420746F PUSH1 0x7B DUP3 ADD MSTORE PUSH32 0x6B656E207365727665732061732070726F6F66206F6620796F757220726F6C65 PUSH1 0x9B DUP3 ADD MSTORE PUSH32 0x20616E6420636F6E747269627574696F6E2077697468696E2074686520524953 PUSH1 0xBB DUP3 ADD MSTORE PUSH32 0x452065636F73797374656D2E20456163682070617373706F7274206973207065 PUSH1 0xDB DUP3 ADD MSTORE PUSH32 0x726D616E656E746C79206C696E6B656420746F20796F757220446973636F7264 PUSH1 0xFB DUP3 ADD MSTORE PUSH32 0x206964656E7469747920616E642063616E6E6F74206265207472616E73666572 PUSH2 0x11B DUP3 ADD MSTORE PUSH32 0x7265642C20656E737572696E672061757468656E74696320726570726573656E PUSH2 0x13B DUP3 ADD MSTORE PUSH32 0x746174696F6E206F6620796F757220706C61636520696E206F757220636F6D6D PUSH2 0x15B DUP3 ADD MSTORE PUSH16 0x3AB734BA3C972E372E372937B6329D1 PUSH1 0x85 SHL PUSH2 0x17B DUP3 ADD MSTORE PUSH2 0x3438 PUSH2 0x3432 PUSH2 0x33FC PUSH2 0x3356 PUSH2 0x18B DUP6 ADD DUP14 PUSH2 0x2E2E JUMP JUMPDEST PUSH32 0x5C6E5C6E546869732070617373706F727420726570726573656E747320796F75 DUP2 MSTORE PUSH32 0x7220756E6971756520636F6E747269627574696F6E20746F2074686520524953 PUSH1 0x20 DUP3 ADD MSTORE PUSH32 0x4520636F6D6D756E69747920616E64207365727665732061732061207065726D PUSH1 0x40 DUP3 ADD MSTORE PUSH32 0x616E656E74207265636F7264206F6620796F7572206D656D626572736869702E PUSH1 0x60 DUP3 ADD MSTORE PUSH2 0x88B PUSH1 0xF2 SHL PUSH1 0x80 DUP3 ADD MSTORE PUSH1 0x82 ADD SWAP1 JUMP JUMPDEST PUSH32 0x22696D616765223A2022646174613A696D6167652F7376672B786D6C3B626173 DUP2 MSTORE PUSH4 0x194D8D0B PUSH1 0xE2 SHL PUSH1 0x20 DUP3 ADD MSTORE PUSH1 0x24 ADD SWAP1 JUMP JUMPDEST DUP10 PUSH2 0x2E2E JUMP JUMPDEST PUSH2 0x88B PUSH1 0xF2 SHL DUP2 MSTORE SWAP1 POP PUSH15 0x2261747472696275746573223A205B PUSH1 0x88 SHL PUSH1 0x2 DUP3 ADD MSTORE PUSH2 0x346F PUSH2 0x3469 PUSH1 0x11 DUP4 ADD PUSH2 0x301E JUMP JUMPDEST DUP9 PUSH2 0x2E2E JUMP JUMPDEST PUSH3 0x89F4B PUSH1 0xEA SHL DUP2 MSTORE SWAP1 POP PUSH2 0x348F PUSH2 0x3489 PUSH1 0x3 DUP4 ADD PUSH2 0x3051 JUMP JUMPDEST DUP8 PUSH2 0x2E2E JUMP JUMPDEST PUSH3 0x89F4B PUSH1 0xEA SHL DUP2 MSTORE SWAP1 POP PUSH2 0x34AF PUSH2 0x34A9 PUSH1 0x3 DUP4 ADD PUSH2 0x308A JUMP JUMPDEST DUP7 PUSH2 0x2E2E JUMP JUMPDEST PUSH3 0x89F4B PUSH1 0xEA SHL DUP2 MSTORE SWAP1 POP PUSH2 0x34CF PUSH2 0x34C9 PUSH1 0x3 DUP4 ADD PUSH2 0x30C0 JUMP JUMPDEST DUP6 PUSH2 0x2E2E JUMP JUMPDEST PUSH2 0x227D PUSH1 0xF0 SHL DUP2 MSTORE SWAP1 POP PUSH2 0x174B PUSH1 0xF2 SHL PUSH1 0x2 DUP3 ADD MSTORE PUSH2 0x34F0 PUSH1 0x4 DUP3 ADD PUSH2 0x30F8 JUMP JUMPDEST PUSH32 0x226261636B67726F756E645F636F6C6F72223A20223030303030302200000000 DUP2 MSTORE PUSH1 0x7D PUSH1 0xF8 SHL PUSH1 0x1C DUP3 ADD MSTORE PUSH1 0x1D ADD SWAP11 SWAP10 POP POP POP POP POP POP POP POP POP POP JUMP JUMPDEST PUSH32 0x646174613A6170706C69636174696F6E2F6A736F6E3B6261736536342C000000 DUP2 MSTORE PUSH1 0x0 DUP3 MLOAD PUSH2 0x3566 DUP2 PUSH1 0x1D DUP6 ADD PUSH1 0x20 DUP8 ADD PUSH2 0x2745 JUMP JUMPDEST SWAP2 SWAP1 SWAP2 ADD PUSH1 0x1D ADD SWAP3 SWAP2 POP POP JUMP JUMPDEST PUSH1 0x20 DUP1 DUP3 MSTORE PUSH1 0x21 SWAP1 DUP3 ADD MSTORE PUSH32 0x4E65772077616C6C657420616464726573732063616E6E6F74206265207A6572 PUSH1 0x40 DUP3 ADD MSTORE PUSH1 0x6F PUSH1 0xF8 SHL PUSH1 0x60 DUP3 ADD MSTORE PUSH1 0x80 ADD SWAP1 JUMP JUMPDEST DUP2 DUP4 DUP3 CALLDATACOPY PUSH1 0x0 SWAP2 ADD SWAP1 DUP2 MSTORE SWAP2 SWAP1 POP JUMP JUMPDEST PUSH25 0x7B226E616D65223A2022524953452050617373706F72742023 PUSH1 0x38 SHL DUP2 MSTORE PUSH1 0x0 DUP7 MLOAD PUSH2 0x35F8 DUP2 PUSH1 0x19 DUP6 ADD PUSH1 0x20 DUP12 ADD PUSH2 0x2745 JUMP JUMPDEST PUSH2 0x88B PUSH1 0xF2 SHL PUSH1 0x19 SWAP2 DUP5 ADD SWAP2 DUP3 ADD MSTORE PUSH2 0x3699 PUSH1 0x1B DUP3 ADD PUSH32 0x226465736372697074696F6E223A2022524953452050617373706F7274204E46 DUP2 MSTORE PUSH32 0x54202D2041206469676974616C206964656E7469747920746F6B656E20726570 PUSH1 0x20 DUP3 ADD MSTORE PUSH32 0x726573656E74696E67206D656D6265727368697020696E207468652052495345 PUSH1 0x40 DUP3 ADD MSTORE PUSH13 0x818DBDB5B5D5B9A5D1E4B888B PUSH1 0x9A SHL PUSH1 0x60 DUP3 ADD MSTORE PUSH1 0x6D ADD SWAP1 JUMP JUMPDEST PUSH15 0x2261747472696275746573223A205B PUSH1 0x88 SHL DUP2 MSTORE SWAP1 POP PUSH2 0x36BF PUSH2 0x3469 PUSH1 0xF DUP4 ADD PUSH2 0x301E JUMP JUMPDEST PUSH3 0x89F4B PUSH1 0xEA SHL DUP2 MSTORE SWAP1 POP PUSH2 0x36D9 PUSH2 0x3489 PUSH1 0x3 DUP4 ADD PUSH2 0x3051 JUMP JUMPDEST PUSH3 0x89F4B PUSH1 0xEA SHL DUP2 MSTORE SWAP1 POP PUSH2 0x36F3 PUSH2 0x34A9 PUSH1 0x3 DUP4 ADD PUSH2 0x308A JUMP JUMPDEST PUSH3 0x89F4B PUSH1 0xEA SHL DUP2 MSTORE SWAP1 POP PUSH2 0x370D PUSH2 0x34C9 PUSH1 0x3 DUP4 ADD PUSH2 0x30C0 JUMP JUMPDEST PUSH2 0x227D PUSH1 0xF0 SHL DUP2 MSTORE SWAP1 POP PUSH2 0x174B PUSH1 0xF2 SHL PUSH1 0x2 DUP3 ADD MSTORE PUSH2 0x372E PUSH1 0x4 DUP3 ADD PUSH2 0x30F8 JUMP JUMPDEST PUSH32 0x226261636B67726F756E645F636F6C6F72223A20223030303030302200000000 DUP2 MSTORE PUSH1 0x7D PUSH1 0xF8 SHL PUSH1 0x1C DUP3 ADD MSTORE PUSH1 0x1D ADD SWAP9 SWAP8 POP POP POP POP POP POP POP POP JUMP JUMPDEST PUSH1 0x0 DUP3 PUSH2 0x3787 JUMPI PUSH4 0x4E487B71 PUSH1 0xE0 SHL PUSH1 0x0 MSTORE PUSH1 0x12 PUSH1 0x4 MSTORE PUSH1 0x24 PUSH1 0x0 REVERT JUMPDEST POP DIV SWAP1 JUMP JUMPDEST DUP2 DUP2 SUB DUP2 DUP2 GT ISZERO PUSH2 0x5BA JUMPI PUSH2 0x5BA PUSH2 0x2E9D JUMP JUMPDEST DUP1 DUP3 MUL DUP2 ISZERO DUP3 DUP3 DIV DUP5 EQ OR PUSH2 0x5BA JUMPI PUSH2 0x5BA PUSH2 0x2E9D JUMP JUMPDEST PUSH1 0xFF DUP2 DUP2 AND DUP4 DUP3 AND ADD SWAP1 DUP2 GT ISZERO PUSH2 0x5BA JUMPI PUSH2 0x5BA PUSH2 0x2E9D JUMP JUMPDEST PUSH4 0x4E487B71 PUSH1 0xE0 SHL PUSH1 0x0 MSTORE PUSH1 0x32 PUSH1 0x4 MSTORE PUSH1 0x24 PUSH1 0x0 REVERT JUMPDEST DUP1 DUP3 ADD DUP1 DUP3 GT ISZERO PUSH2 0x5BA JUMPI PUSH2 0x5BA PUSH2 0x2E9D JUMP JUMPDEST PUSH1 0x0 DUP2 PUSH2 0x3807 JUMPI PUSH2 0x3807 PUSH2 0x2E9D JUMP JUMPDEST POP PUSH1 0x0 NOT ADD SWAP1 JUMP INVALID COINBASE TIMESTAMP NUMBER PREVRANDAO GASLIMIT CHAINID SELFBALANCE BASEFEE BLOBHASH BLOBBASEFEE 0x4B 0x4C 0x4D 0x4E 0x4F POP MLOAD MSTORE MSTORE8 SLOAD SSTORE JUMP JUMPI PC MSIZE GAS PUSH2 0x6263 PUSH5 0x6566676869 PUSH11 0x6B6C6D6E6F707172737475 PUSH23 0x7778797A303132333435363738392B2FA2646970667358 0x22 SLT KECCAK256 PUSH26 0x247EE6BF281E8DC683EE8F120DBC79F9032DB8BFE98A839215B0 PUSH7 0xB380E05364736F PUSH13 0x63430008180033000000000000 "},"methodIdentifiers":{"addressToPassport(address,string,string)":"4fd81442","adminOverrideWallet(string,address)":"d9848faa","approve(address,uint256)":"095ea7b3","balanceOf(address)":"70a08231","canMintHigherRole(address,string,string)":"57170965","discordToAddress(string)":"d31c2967","getAddressByDiscord(string)":"a6827931","getApproved(uint256)":"081812fc","getMintingKeyHash()":"8c365e34","getPassportData(uint256)":"619fd158","getTokenIdByAddressAndDiscord(address,string,string)":"aa597667","getTokenSVG(uint256)":"c7ab2dbc","getUserPassports(address,string)":"e019c5c4","isApprovedForAll(address,address)":"e985e9c5","isDiscordRegistered(string)":"de68db7c","mint(address,string,string,string,bytes32,string,string)":"3c2f3fb8","mintingKeyHash()":"27c70773","name()":"06fdde03","owner()":"8da5cb5b","ownerOf(uint256)":"6352211e","passportExists(address,string,string)":"2392bdbf","passports(uint256)":"cb22f5fd","renounceOwnership()":"715018a6","safeTransferFrom(address,address,uint256)":"42842e0e","safeTransferFrom(address,address,uint256,bytes)":"b88d4fde","setApprovalForAll(address,bool)":"a22cb465","supportsInterface(bytes4)":"01ffc9a7","symbol()":"95d89b41","tokenSVG(uint256)":"9bac5f7a","tokenURI(uint256)":"c87b56dd","tokenURIWithSVG(uint256,string)":"77568b0f","tokenURIs(uint256)":"6c8b703f","totalSupply()":"18160ddd","transferFrom(address,address,uint256)":"23b872dd","transferOwnership(address)":"f2fde38b","updateMintingKey(bytes32)":"6a10c60b","updateWalletForDiscord(string,address)":"c5d56084"}}}}}