{
  "_format": "hh-sol-artifact-1",
  "contractName": "RisePassportNFT",
  "sourceName": "contracts/RisePassportNFT.sol",
  "abi": [
    {
      "inputs": [
        {
          "internalType": "string",
          "name": "name",
          "type": "string"
        },
        {
          "internalType": "string",
          "name": "symbol",
          "type": "string"
        },
        {
          "internalType": "bytes32",
          "name": "_mintingKeyHash",
          "type": "bytes32"
        }
      ],
      "stateMutability": "nonpayable",
      "type": "constructor"
    },
    {
      "inputs": [
        {
          "internalType": "address",
          "name": "sender",
          "type": "address"
        },
        {
          "internalType": "uint256",
          "name": "tokenId",
          "type": "uint256"
        },
        {
          "internalType": "address",
          "name": "owner",
          "type": "address"
        }
      ],
      "name": "ERC721IncorrectOwner",
      "type": "error"
    },
    {
      "inputs": [
        {
          "internalType": "address",
          "name": "operator",
          "type": "address"
        },
        {
          "internalType": "uint256",
          "name": "tokenId",
          "type": "uint256"
        }
      ],
      "name": "ERC721InsufficientApproval",
      "type": "error"
    },
    {
      "inputs": [
        {
          "internalType": "address",
          "name": "approver",
          "type": "address"
        }
      ],
      "name": "ERC721InvalidApprover",
      "type": "error"
    },
    {
      "inputs": [
        {
          "internalType": "address",
          "name": "operator",
          "type": "address"
        }
      ],
      "name": "ERC721InvalidOperator",
      "type": "error"
    },
    {
      "inputs": [
        {
          "internalType": "address",
          "name": "owner",
          "type": "address"
        }
      ],
      "name": "ERC721InvalidOwner",
      "type": "error"
    },
    {
      "inputs": [
        {
          "internalType": "address",
          "name": "receiver",
          "type": "address"
        }
      ],
      "name": "ERC721InvalidReceiver",
      "type": "error"
    },
    {
      "inputs": [
        {
          "internalType": "address",
          "name": "sender",
          "type": "address"
        }
      ],
      "name": "ERC721InvalidSender",
      "type": "error"
    },
    {
      "inputs": [
        {
          "internalType": "uint256",
          "name": "tokenId",
          "type": "uint256"
        }
      ],
      "name": "ERC721NonexistentToken",
      "type": "error"
    },
    {
      "inputs": [
        {
          "internalType": "address",
          "name": "owner",
          "type": "address"
        }
      ],
      "name": "OwnableInvalidOwner",
      "type": "error"
    },
    {
      "inputs": [
        {
          "internalType": "address",
          "name": "account",
          "type": "address"
        }
      ],
      "name": "OwnableUnauthorizedAccount",
      "type": "error"
    },
    {
      "anonymous": false,
      "inputs": [
        {
          "indexed": true,
          "internalType": "string",
          "name": "discordId",
          "type": "string"
        },
        {
          "indexed": true,
          "internalType": "address",
          "name": "oldWallet",
          "type": "address"
        },
        {
          "indexed": true,
          "internalType": "address",
          "name": "newWallet",
          "type": "address"
        },
        {
          "indexed": false,
          "internalType": "address",
          "name": "admin",
          "type": "address"
        }
      ],
      "name": "AdminWalletOverride",
      "type": "event"
    },
    {
      "anonymous": false,
      "inputs": [
        {
          "indexed": true,
          "internalType": "address",
          "name": "owner",
          "type": "address"
        },
        {
          "indexed": true,
          "internalType": "address",
          "name": "approved",
          "type": "address"
        },
        {
          "indexed": true,
          "internalType": "uint256",
          "name": "tokenId",
          "type": "uint256"
        }
      ],
      "name": "Approval",
      "type": "event"
    },
    {
      "anonymous": false,
      "inputs": [
        {
          "indexed": true,
          "internalType": "address",
          "name": "owner",
          "type": "address"
        },
        {
          "indexed": true,
          "internalType": "address",
          "name": "operator",
          "type": "address"
        },
        {
          "indexed": false,
          "internalType": "bool",
          "name": "approved",
          "type": "bool"
        }
      ],
      "name": "ApprovalForAll",
      "type": "event"
    },
    {
      "anonymous": false,
      "inputs": [
        {
          "indexed": true,
          "internalType": "address",
          "name": "previousOwner",
          "type": "address"
        },
        {
          "indexed": true,
          "internalType": "address",
          "name": "newOwner",
          "type": "address"
        }
      ],
      "name": "OwnershipTransferred",
      "type": "event"
    },
    {
      "anonymous": false,
      "inputs": [
        {
          "indexed": true,
          "internalType": "uint256",
          "name": "tokenId",
          "type": "uint256"
        },
        {
          "indexed": true,
          "internalType": "address",
          "name": "owner",
          "type": "address"
        },
        {
          "indexed": false,
          "internalType": "string",
          "name": "discordId",
          "type": "string"
        },
        {
          "indexed": false,
          "internalType": "string",
          "name": "roleId",
          "type": "string"
        },
        {
          "indexed": false,
          "internalType": "string",
          "name": "roleName",
          "type": "string"
        }
      ],
      "name": "PassportMinted",
      "type": "event"
    },
    {
      "anonymous": false,
      "inputs": [
        {
          "indexed": true,
          "internalType": "address",
          "name": "from",
          "type": "address"
        },
        {
          "indexed": true,
          "internalType": "address",
          "name": "to",
          "type": "address"
        },
        {
          "indexed": true,
          "internalType": "uint256",
          "name": "tokenId",
          "type": "uint256"
        }
      ],
      "name": "Transfer",
      "type": "event"
    },
    {
      "anonymous": false,
      "inputs": [
        {
          "indexed": true,
          "internalType": "string",
          "name": "discordId",
          "type": "string"
        },
        {
          "indexed": true,
          "internalType": "address",
          "name": "oldWallet",
          "type": "address"
        },
        {
          "indexed": true,
          "internalType": "address",
          "name": "newWallet",
          "type": "address"
        }
      ],
      "name": "WalletUpdated",
      "type": "event"
    },
    {
      "inputs": [
        {
          "internalType": "address",
          "name": "",
          "type": "address"
        },
        {
          "internalType": "string",
          "name": "",
          "type": "string"
        },
        {
          "internalType": "string",
          "name": "",
          "type": "string"
        }
      ],
      "name": "addressToPassport",
      "outputs": [
        {
          "internalType": "uint256",
          "name": "",
          "type": "uint256"
        }
      ],
      "stateMutability": "view",
      "type": "function"
    },
    {
      "inputs": [
        {
          "internalType": "string",
          "name": "discordId",
          "type": "string"
        },
        {
          "internalType": "address",
          "name": "newWalletAddress",
          "type": "address"
        }
      ],
      "name": "adminOverrideWallet",
      "outputs": [],
      "stateMutability": "nonpayable",
      "type": "function"
    },
    {
      "inputs": [
        {
          "internalType": "address",
          "name": "",
          "type": "address"
        },
        {
          "internalType": "uint256",
          "name": "",
          "type": "uint256"
        }
      ],
      "name": "approve",
      "outputs": [],
      "stateMutability": "nonpayable",
      "type": "function"
    },
    {
      "inputs": [
        {
          "internalType": "address",
          "name": "owner",
          "type": "address"
        }
      ],
      "name": "balanceOf",
      "outputs": [
        {
          "internalType": "uint256",
          "name": "",
          "type": "uint256"
        }
      ],
      "stateMutability": "view",
      "type": "function"
    },
    {
      "inputs": [
        {
          "internalType": "address",
          "name": "owner",
          "type": "address"
        },
        {
          "internalType": "string",
          "name": "discordId",
          "type": "string"
        },
        {
          "internalType": "string",
          "name": "newRoleId",
          "type": "string"
        }
      ],
      "name": "canMintHigherRole",
      "outputs": [
        {
          "internalType": "bool",
          "name": "",
          "type": "bool"
        }
      ],
      "stateMutability": "view",
      "type": "function"
    },
    {
      "inputs": [
        {
          "internalType": "string",
          "name": "",
          "type": "string"
        }
      ],
      "name": "discordToAddress",
      "outputs": [
        {
          "internalType": "address",
          "name": "",
          "type": "address"
        }
      ],
      "stateMutability": "view",
      "type": "function"
    },
    {
      "inputs": [
        {
          "internalType": "string",
          "name": "discordId",
          "type": "string"
        }
      ],
      "name": "getAddressByDiscord",
      "outputs": [
        {
          "internalType": "address",
          "name": "",
          "type": "address"
        }
      ],
      "stateMutability": "view",
      "type": "function"
    },
    {
      "inputs": [
        {
          "internalType": "uint256",
          "name": "tokenId",
          "type": "uint256"
        }
      ],
      "name": "getApproved",
      "outputs": [
        {
          "internalType": "address",
          "name": "",
          "type": "address"
        }
      ],
      "stateMutability": "view",
      "type": "function"
    },
    {
      "inputs": [],
      "name": "getMintingKeyHash",
      "outputs": [
        {
          "internalType": "bytes32",
          "name": "",
          "type": "bytes32"
        }
      ],
      "stateMutability": "view",
      "type": "function"
    },
    {
      "inputs": [
        {
          "internalType": "uint256",
          "name": "tokenId",
          "type": "uint256"
        }
      ],
      "name": "getPassportData",
      "outputs": [
        {
          "components": [
            {
              "internalType": "address",
              "name": "owner",
              "type": "address"
            },
            {
              "internalType": "string",
              "name": "discordId",
              "type": "string"
            },
            {
              "internalType": "string",
              "name": "roleId",
              "type": "string"
            },
            {
              "internalType": "string",
              "name": "roleName",
              "type": "string"
            },
            {
              "internalType": "uint256",
              "name": "mintedAt",
              "type": "uint256"
            }
          ],
          "internalType": "struct RisePassportNFT.PassportData",
          "name": "",
          "type": "tuple"
        }
      ],
      "stateMutability": "view",
      "type": "function"
    },
    {
      "inputs": [
        {
          "internalType": "address",
          "name": "owner",
          "type": "address"
        },
        {
          "internalType": "string",
          "name": "discordId",
          "type": "string"
        },
        {
          "internalType": "string",
          "name": "roleId",
          "type": "string"
        }
      ],
      "name": "getTokenIdByAddressAndDiscord",
      "outputs": [
        {
          "internalType": "uint256",
          "name": "",
          "type": "uint256"
        }
      ],
      "stateMutability": "view",
      "type": "function"
    },
    {
      "inputs": [
        {
          "internalType": "uint256",
          "name": "tokenId",
          "type": "uint256"
        }
      ],
      "name": "getTokenSVG",
      "outputs": [
        {
          "internalType": "string",
          "name": "",
          "type": "string"
        }
      ],
      "stateMutability": "view",
      "type": "function"
    },
    {
      "inputs": [
        {
          "internalType": "address",
          "name": "owner",
          "type": "address"
        },
        {
          "internalType": "string",
          "name": "discordId",
          "type": "string"
        }
      ],
      "name": "getUserPassports",
      "outputs": [
        {
          "internalType": "uint256[]",
          "name": "",
          "type": "uint256[]"
        }
      ],
      "stateMutability": "view",
      "type": "function"
    },
    {
      "inputs": [
        {
          "internalType": "address",
          "name": "owner",
          "type": "address"
        },
        {
          "internalType": "address",
          "name": "operator",
          "type": "address"
        }
      ],
      "name": "isApprovedForAll",
      "outputs": [
        {
          "internalType": "bool",
          "name": "",
          "type": "bool"
        }
      ],
      "stateMutability": "view",
      "type": "function"
    },
    {
      "inputs": [
        {
          "internalType": "string",
          "name": "discordId",
          "type": "string"
        }
      ],
      "name": "isDiscordRegistered",
      "outputs": [
        {
          "internalType": "bool",
          "name": "",
          "type": "bool"
        }
      ],
      "stateMutability": "view",
      "type": "function"
    },
    {
      "inputs": [
        {
          "internalType": "address",
          "name": "to",
          "type": "address"
        },
        {
          "internalType": "string",
          "name": "discordId",
          "type": "string"
        },
        {
          "internalType": "string",
          "name": "roleId",
          "type": "string"
        },
        {
          "internalType": "string",
          "name": "roleName",
          "type": "string"
        },
        {
          "internalType": "bytes32",
          "name": "mintingKey",
          "type": "bytes32"
        },
        {
          "internalType": "string",
          "name": "svgData",
          "type": "string"
        },
        {
          "internalType": "string",
          "name": "tokenURI",
          "type": "string"
        }
      ],
      "name": "mint",
      "outputs": [
        {
          "internalType": "uint256",
          "name": "",
          "type": "uint256"
        }
      ],
      "stateMutability": "nonpayable",
      "type": "function"
    },
    {
      "inputs": [],
      "name": "mintingKeyHash",
      "outputs": [
        {
          "internalType": "bytes32",
          "name": "",
          "type": "bytes32"
        }
      ],
      "stateMutability": "view",
      "type": "function"
    },
    {
      "inputs": [],
      "name": "name",
      "outputs": [
        {
          "internalType": "string",
          "name": "",
          "type": "string"
        }
      ],
      "stateMutability": "view",
      "type": "function"
    },
    {
      "inputs": [],
      "name": "owner",
      "outputs": [
        {
          "internalType": "address",
          "name": "",
          "type": "address"
        }
      ],
      "stateMutability": "view",
      "type": "function"
    },
    {
      "inputs": [
        {
          "internalType": "uint256",
          "name": "tokenId",
          "type": "uint256"
        }
      ],
      "name": "ownerOf",
      "outputs": [
        {
          "internalType": "address",
          "name": "",
          "type": "address"
        }
      ],
      "stateMutability": "view",
      "type": "function"
    },
    {
      "inputs": [
        {
          "internalType": "address",
          "name": "owner",
          "type": "address"
        },
        {
          "internalType": "string",
          "name": "discordId",
          "type": "string"
        },
        {
          "internalType": "string",
          "name": "roleId",
          "type": "string"
        }
      ],
      "name": "passportExists",
      "outputs": [
        {
          "internalType": "bool",
          "name": "",
          "type": "bool"
        }
      ],
      "stateMutability": "view",
      "type": "function"
    },
    {
      "inputs": [
        {
          "internalType": "uint256",
          "name": "",
          "type": "uint256"
        }
      ],
      "name": "passports",
      "outputs": [
        {
          "internalType": "address",
          "name": "owner",
          "type": "address"
        },
        {
          "internalType": "string",
          "name": "discordId",
          "type": "string"
        },
        {
          "internalType": "string",
          "name": "roleId",
          "type": "string"
        },
        {
          "internalType": "string",
          "name": "roleName",
          "type": "string"
        },
        {
          "internalType": "uint256",
          "name": "mintedAt",
          "type": "uint256"
        }
      ],
      "stateMutability": "view",
      "type": "function"
    },
    {
      "inputs": [],
      "name": "renounceOwnership",
      "outputs": [],
      "stateMutability": "nonpayable",
      "type": "function"
    },
    {
      "inputs": [
        {
          "internalType": "address",
          "name": "from",
          "type": "address"
        },
        {
          "internalType": "address",
          "name": "to",
          "type": "address"
        },
        {
          "internalType": "uint256",
          "name": "tokenId",
          "type": "uint256"
        }
      ],
      "name": "safeTransferFrom",
      "outputs": [],
      "stateMutability": "nonpayable",
      "type": "function"
    },
    {
      "inputs": [
        {
          "internalType": "address",
          "name": "",
          "type": "address"
        },
        {
          "internalType": "address",
          "name": "",
          "type": "address"
        },
        {
          "internalType": "uint256",
          "name": "",
          "type": "uint256"
        },
        {
          "internalType": "bytes",
          "name": "",
          "type": "bytes"
        }
      ],
      "name": "safeTransferFrom",
      "outputs": [],
      "stateMutability": "nonpayable",
      "type": "function"
    },
    {
      "inputs": [
        {
          "internalType": "address",
          "name": "",
          "type": "address"
        },
        {
          "internalType": "bool",
          "name": "",
          "type": "bool"
        }
      ],
      "name": "setApprovalForAll",
      "outputs": [],
      "stateMutability": "nonpayable",
      "type": "function"
    },
    {
      "inputs": [
        {
          "internalType": "bytes4",
          "name": "interfaceId",
          "type": "bytes4"
        }
      ],
      "name": "supportsInterface",
      "outputs": [
        {
          "internalType": "bool",
          "name": "",
          "type": "bool"
        }
      ],
      "stateMutability": "view",
      "type": "function"
    },
    {
      "inputs": [],
      "name": "symbol",
      "outputs": [
        {
          "internalType": "string",
          "name": "",
          "type": "string"
        }
      ],
      "stateMutability": "view",
      "type": "function"
    },
    {
      "inputs": [
        {
          "internalType": "uint256",
          "name": "",
          "type": "uint256"
        }
      ],
      "name": "tokenSVG",
      "outputs": [
        {
          "internalType": "string",
          "name": "",
          "type": "string"
        }
      ],
      "stateMutability": "view",
      "type": "function"
    },
    {
      "inputs": [
        {
          "internalType": "uint256",
          "name": "tokenId",
          "type": "uint256"
        }
      ],
      "name": "tokenURI",
      "outputs": [
        {
          "internalType": "string",
          "name": "",
          "type": "string"
        }
      ],
      "stateMutability": "view",
      "type": "function"
    },
    {
      "inputs": [
        {
          "internalType": "uint256",
          "name": "tokenId",
          "type": "uint256"
        },
        {
          "internalType": "string",
          "name": "customSVG",
          "type": "string"
        }
      ],
      "name": "tokenURIWithSVG",
      "outputs": [
        {
          "internalType": "string",
          "name": "",
          "type": "string"
        }
      ],
      "stateMutability": "view",
      "type": "function"
    },
    {
      "inputs": [
        {
          "internalType": "uint256",
          "name": "",
          "type": "uint256"
        }
      ],
      "name": "tokenURIs",
      "outputs": [
        {
          "internalType": "string",
          "name": "",
          "type": "string"
        }
      ],
      "stateMutability": "view",
      "type": "function"
    },
    {
      "inputs": [],
      "name": "totalSupply",
      "outputs": [
        {
          "internalType": "uint256",
          "name": "",
          "type": "uint256"
        }
      ],
      "stateMutability": "view",
      "type": "function"
    },
    {
      "inputs": [
        {
          "internalType": "address",
          "name": "",
          "type": "address"
        },
        {
          "internalType": "address",
          "name": "",
          "type": "address"
        },
        {
          "internalType": "uint256",
          "name": "",
          "type": "uint256"
        }
      ],
      "name": "transferFrom",
      "outputs": [],
      "stateMutability": "nonpayable",
      "type": "function"
    },
    {
      "inputs": [
        {
          "internalType": "address",
          "name": "newOwner",
          "type": "address"
        }
      ],
      "name": "transferOwnership",
      "outputs": [],
      "stateMutability": "nonpayable",
      "type": "function"
    },
    {
      "inputs": [
        {
          "internalType": "bytes32",
          "name": "newMintingKeyHash",
          "type": "bytes32"
        }
      ],
      "name": "updateMintingKey",
      "outputs": [],
      "stateMutability": "nonpayable",
      "type": "function"
    },
    {
      "inputs": [
        {
          "internalType": "string",
          "name": "discordId",
          "type": "string"
        },
        {
          "internalType": "address",
          "name": "newWalletAddress",
          "type": "address"
        }
      ],
      "name": "updateWalletForDiscord",
      "outputs": [],
      "stateMutability": "nonpayable",
      "type": "function"
    }
  ],
  "bytecode": "0x60806040523480156200001157600080fd5b5060405162003c1d38038062003c1d8339810160408190526200003491620001b8565b3383836000620000458382620002bc565b506001620000548282620002bc565b5050506001600160a01b0381166200008657604051631e4fbdf760e01b81526000600482015260240160405180910390fd5b62000091816200009e565b50600d5550620003889050565b600680546001600160a01b038381166001600160a01b0319831681179093556040519116919082907f8be0079c531659141344cd1fd0a4f28419497f9722a3daafe3b4186f6b6457e090600090a35050565b634e487b7160e01b600052604160045260246000fd5b600082601f8301126200011857600080fd5b81516001600160401b0380821115620001355762000135620000f0565b604051601f8301601f19908116603f01168101908282118183101715620001605762000160620000f0565b81604052838152602092508660208588010111156200017e57600080fd5b600091505b83821015620001a2578582018301518183018401529082019062000183565b6000602085830101528094505050505092915050565b600080600060608486031215620001ce57600080fd5b83516001600160401b0380821115620001e657600080fd5b620001f48783880162000106565b945060208601519150808211156200020b57600080fd5b506200021a8682870162000106565b925050604084015190509250925092565b600181811c908216806200024057607f821691505b6020821081036200026157634e487b7160e01b600052602260045260246000fd5b50919050565b601f821115620002b7576000816000526020600020601f850160051c81016020861015620002925750805b601f850160051c820191505b81811015620002b3578281556001016200029e565b5050505b505050565b81516001600160401b03811115620002d857620002d8620000f0565b620002f081620002e984546200022b565b8462000267565b602080601f8311600181146200032857600084156200030f5750858301515b600019600386901b1c1916600185901b178555620002b3565b600085815260208120601f198616915b82811015620003595788860151825594840194600190910190840162000338565b5085821015620003785787850151600019600388901b60f8161c191681555b5050505050600190811b01905550565b61388580620003986000396000f3fe608060405234801561001057600080fd5b50600436106102275760003560e01c806377568b0f11610130578063c5d56084116100b8578063d9848faa1161007c578063d9848faa14610502578063de68db7c14610515578063e019c5c414610528578063e985e9c514610548578063f2fde38b1461055b57600080fd5b8063c5d5608414610471578063c7ab2dbc14610484578063c87b56dd14610497578063cb22f5fd146104aa578063d31c2967146104ce57600080fd5b80639bac5f7a116100ff5780639bac5f7a1461041c578063a22cb4651461042f578063a68279311461043d578063aa59766714610450578063b88d4fde1461046357600080fd5b806377568b0f146103e85780638c365e34146103fb5780638da5cb5b1461040357806395d89b411461041457600080fd5b806342842e0e116101b35780636352211e116101825780636352211e146103945780636a10c60b146103a75780636c8b703f146103ba57806370a08231146103cd578063715018a6146103e057600080fd5b806342842e0e146102fd5780634fd81442146103105780635717096514610361578063619fd1581461037457600080fd5b806318160ddd116101fa57806318160ddd146102a95780632392bdbf146102bb57806323b872dd146102ce57806327c70773146102e15780633c2f3fb8146102ea57600080fd5b806301ffc9a71461022c57806306fdde0314610254578063081812fc14610269578063095ea7b314610294575b600080fd5b61023f61023a366004612714565b61056e565b60405190151581526020015b60405180910390f35b61025c6105c0565b60405161024b9190612795565b61027c6102773660046127a8565b610652565b6040516001600160a01b03909116815260200161024b565b6102a76102a23660046127dd565b61067b565b005b6007545b60405190815260200161024b565b61023f6102c93660046128b2565b6106da565b6102a76102dc366004612925565b610736565b6102ad600d5481565b6102ad6102f8366004612961565b610798565b6102a761030b366004612925565b610c2a565b6102ad61031e3660046128b2565b6009602090815260009384526040909320825180840185018051928152908501938501939093209252805180820184018051938152908401919093012091525481565b61023f61036f3660046128b2565b610c45565b6103876103823660046127a8565b610ca0565b60405161024b9190612a4c565b61027c6103a23660046127a8565b610f29565b6102a76103b53660046127a8565b610f34565b61025c6103c83660046127a8565b610f41565b6102ad6103db366004612acd565b610fdb565b6102a7611023565b61025c6103f6366004612ae8565b611037565b600d546102ad565b6006546001600160a01b031661027c565b61025c6112c1565b61025c61042a3660046127a8565b6112d0565b6102a76102a2366004612b2e565b61027c61044b366004612b6a565b6112e9565b6102ad61045e3660046128b2565b61131a565b6102a76102dc366004612b9e565b6102a761047f366004612c61565b611374565b61025c6104923660046127a8565b61156e565b61025c6104a53660046127a8565b61166a565b6104bd6104b83660046127a8565b611a82565b60405161024b959493929190612cb4565b61027c6104dc366004612b6a565b8051602081830181018051600a825292820191909301209152546001600160a01b031681565b6102a7610510366004612c61565b611c53565b61023f610523366004612d11565b611ddd565b61053b610536366004612d52565b611e1e565b60405161024b9190612d89565b61023f610556366004612dc1565b611e3d565b6102a7610569366004612acd565b611e6b565b60006001600160e01b031982166380ac58cd60e01b148061059f57506001600160e01b03198216635b5e139f60e01b145b806105ba57506301ffc9a760e01b6001600160e01b03198316145b92915050565b6060600080546105cf90612df4565b80601f01602080910402602001604051908101604052809291908181526020018280546105fb90612df4565b80156106485780601f1061061d57610100808354040283529160200191610648565b820191906000526020600020905b81548152906001019060200180831161062b57829003601f168201915b5050505050905090565b600061065d82611ea9565b506000828152600460205260409020546001600160a01b03166105ba565b60405162461bcd60e51b815260206004820152602960248201527f546f6b656e20697320736f756c626f756e6420616e642063616e6e6f7420626560448201526808185c1c1c9bdd995960ba1b60648201526084015b60405180910390fd5b6001600160a01b0383166000908152600960205260408082209051610700908590612e4a565b90815260200160405180910390208260405161071c9190612e4a565b908152604051908190036020019020541515949350505050565b60405162461bcd60e51b815260206004820152602c60248201527f546f6b656e20697320736f756c626f756e6420616e642063616e6e6f7420626560448201526b081d1c985b9cd9995c9c995960a21b60648201526084016106d1565b505050565b6000600d54846040516020016107b091815260200190565b60405160208183030381529060405280519060200120146108095760405162461bcd60e51b8152602060048201526013602482015272496e76616c6964206d696e74696e67206b657960681b60448201526064016106d1565b6001600160a01b03881661085f5760405162461bcd60e51b815260206004820152601b60248201527f43616e6e6f74206d696e7420746f207a65726f2061646472657373000000000060448201526064016106d1565b60008751116108805760405162461bcd60e51b81526004016106d190612e66565b60008651116108d15760405162461bcd60e51b815260206004820152601760248201527f526f6c652049442063616e6e6f7420626520656d70747900000000000000000060448201526064016106d1565b6000600a886040516108e39190612e4a565b908152604051908190036020019020546001600160a01b0316905080158061091c5750886001600160a01b0316816001600160a01b0316145b6109855760405162461bcd60e51b815260206004820152603460248201527f446973636f726420494420616c7265616479206173736f636961746564207769604482015273746820646966666572656e74206164647265737360601b60648201526084016106d1565b6001600160a01b0389166000908152600960205260409081902090516109ac908a90612e4a565b9081526020016040518091039020876040516109c89190612e4a565b908152602001604051809103902054600014610a4c5760405162461bcd60e51b815260206004820152603d60248201527f50617373706f727420616c72656164792065786973747320666f72207468697360448201527f20616464726573732c20646973636f726420494420616e6420726f6c6500000060648201526084016106d1565b60078054906000610a5c83612eb3565b90915550506007546040805160a0810182526001600160a01b038c8116825260208083018d81528385018d9052606084018c905242608085015260008681526008909252939020825181546001600160a01b031916921691909117815591519091906001820190610acd9082612f1c565b5060408201516002820190610ae29082612f1c565b5060608201516003820190610af79082612f1c565b50608091909101516004909101556001600160a01b038a16600090815260096020526040908190209051829190610b2f908c90612e4a565b908152602001604051809103902089604051610b4b9190612e4a565b90815260200160405180910390208190555089600a8a604051610b6e9190612e4a565b908152604080516020928190038301902080546001600160a01b0319166001600160a01b0394909416939093179092556000838152600b90915220610bb38682612f1c565b506000818152600c60205260409020610bcc8582612f1c565b50610bd78a82611ee2565b896001600160a01b0316817f9ecb33b76aa10ed8319bbc142ba69de3975cdc249905576cec9419bddaae49a68b8b8b604051610c1593929190612fdb565b60405180910390a39998505050505050505050565b61079383838360405180602001604052806000815250610736565b6001600160a01b0383166000908152600960205260408082209051610c6b908590612e4a565b908152602001604051809103902082604051610c879190612e4a565b9081526040519081900360200190205415949350505050565b610cdb6040518060a0016040528060006001600160a01b03168152602001606081526020016060815260200160608152602001600081525090565b6000828152600260205260409020546001600160a01b0316610d365760405162461bcd60e51b8152602060048201526014602482015273151bdad95b88191bd95cc81b9bdd08195e1a5cdd60621b60448201526064016106d1565b600082815260086020908152604091829020825160a0810190935280546001600160a01b031683526001810180549192840191610d7290612df4565b80601f0160208091040260200160405190810160405280929190818152602001828054610d9e90612df4565b8015610deb5780601f10610dc057610100808354040283529160200191610deb565b820191906000526020600020905b815481529060010190602001808311610dce57829003601f168201915b50505050508152602001600282018054610e0490612df4565b80601f0160208091040260200160405190810160405280929190818152602001828054610e3090612df4565b8015610e7d5780601f10610e5257610100808354040283529160200191610e7d565b820191906000526020600020905b815481529060010190602001808311610e6057829003601f168201915b50505050508152602001600382018054610e9690612df4565b80601f0160208091040260200160405190810160405280929190818152602001828054610ec290612df4565b8015610f0f5780601f10610ee457610100808354040283529160200191610f0f565b820191906000526020600020905b815481529060010190602001808311610ef257829003601f168201915b505050505081526020016004820154815250509050919050565b60006105ba82611ea9565b610f3c611f47565b600d55565b600c6020526000908152604090208054610f5a90612df4565b80601f0160208091040260200160405190810160405280929190818152602001828054610f8690612df4565b8015610fd35780601f10610fa857610100808354040283529160200191610fd3565b820191906000526020600020905b815481529060010190602001808311610fb657829003601f168201915b505050505081565b60006001600160a01b038216611007576040516322718ad960e21b8152600060048201526024016106d1565b506001600160a01b031660009081526003602052604090205490565b61102b611f47565b6110356000611f74565b565b606061104283611ea9565b506000838152600860209081526040808320815160a0810190925280546001600160a01b03168252600181018054929391929184019161108190612df4565b80601f01602080910402602001604051908101604052809291908181526020018280546110ad90612df4565b80156110fa5780601f106110cf576101008083540402835291602001916110fa565b820191906000526020600020905b8154815290600101906020018083116110dd57829003601f168201915b5050505050815260200160028201805461111390612df4565b80601f016020809104026020016040519081016040528092919081815260200182805461113f90612df4565b801561118c5780601f106111615761010080835404028352916020019161118c565b820191906000526020600020905b81548152906001019060200180831161116f57829003601f168201915b505050505081526020016003820180546111a590612df4565b80601f01602080910402602001604051908101604052809291908181526020018280546111d190612df4565b801561121e5780601f106111f35761010080835404028352916020019161121e565b820191906000526020600020905b81548152906001019060200180831161120157829003601f168201915b505050505081526020016004820154815250509050600061123e85611fc6565b826060015161124c866120e8565b8460600151856020015186604001516112688860800151611fc6565b60405160200161127e9796959493929190613139565b6040516020818303038152906040529050611298816120e8565b6040516020016112a8919061352e565b6040516020818303038152906040529250505092915050565b6060600180546105cf90612df4565b600b6020526000908152604090208054610f5a90612df4565b6000600a826040516112fb9190612e4a565b908152604051908190036020019020546001600160a01b031692915050565b6001600160a01b0383166000908152600960205260408082209051611340908590612e4a565b90815260200160405180910390208260405161135c9190612e4a565b90815260200160405180910390205490509392505050565b816113915760405162461bcd60e51b81526004016106d190612e66565b6001600160a01b0381166113b75760405162461bcd60e51b81526004016106d190613573565b60006001600160a01b0316600a84846040516113d49291906135b4565b908152604051908190036020019020546001600160a01b0316036114365760405162461bcd60e51b8152602060048201526019602482015278111a5cd8dbdc99081251081b9bdd081c9959da5cdd195c9959603a1b60448201526064016106d1565b336001600160a01b0316600a84846040516114529291906135b4565b908152604051908190036020019020546001600160a01b0316146114b85760405162461bcd60e51b815260206004820152601e60248201527f4f6e6c792063757272656e742077616c6c65742063616e20757064617465000060448201526064016106d1565b6000600a84846040516114cc9291906135b4565b908152604051908190036020018120546001600160a01b031691508290600a906114f990879087906135b4565b90815260405190819003602001812080546001600160a01b039384166001600160a01b03199091161790558382169183169061153890879087906135b4565b604051908190038120907fd8e98bff5ae8522235ef48daecff7488b367200bea03a4e8cb4bc98108c6a49290600090a450505050565b6000818152600260205260409020546060906001600160a01b03166115cc5760405162461bcd60e51b8152602060048201526014602482015273151bdad95b88191bd95cc81b9bdd08195e1a5cdd60621b60448201526064016106d1565b6000828152600b6020526040902080546115e590612df4565b80601f016020809104026020016040519081016040528092919081815260200182805461161190612df4565b801561165e5780601f106116335761010080835404028352916020019161165e565b820191906000526020600020905b81548152906001019060200180831161164157829003601f168201915b50505050509050919050565b606061167582611ea9565b506000828152600c60205260408120805461168f90612df4565b80601f01602080910402602001604051908101604052809291908181526020018280546116bb90612df4565b80156117085780601f106116dd57610100808354040283529160200191611708565b820191906000526020600020905b8154815290600101906020018083116116eb57829003601f168201915b5050505050905060008151111561171f5792915050565b6000838152600860209081526040808320815160a0810190925280546001600160a01b03168252600181018054929391929184019161175d90612df4565b80601f016020809104026020016040519081016040528092919081815260200182805461178990612df4565b80156117d65780601f106117ab576101008083540402835291602001916117d6565b820191906000526020600020905b8154815290600101906020018083116117b957829003601f168201915b505050505081526020016002820180546117ef90612df4565b80601f016020809104026020016040519081016040528092919081815260200182805461181b90612df4565b80156118685780601f1061183d57610100808354040283529160200191611868565b820191906000526020600020905b81548152906001019060200180831161184b57829003601f168201915b5050505050815260200160038201805461188190612df4565b80601f01602080910402602001604051908101604052809291908181526020018280546118ad90612df4565b80156118fa5780601f106118cf576101008083540402835291602001916118fa565b820191906000526020600020905b8154815290600101906020018083116118dd57829003601f168201915b5050505050815260200160048201548152505090506000600b6000868152602001908152602001600020805461192f90612df4565b80601f016020809104026020016040519081016040528092919081815260200182805461195b90612df4565b80156119a85780601f1061197d576101008083540402835291602001916119a8565b820191906000526020600020905b81548152906001019060200180831161198b57829003601f168201915b505050505090508051600003611a375760006119c386611fc6565b8360600151846020015185604001516119df8760800151611fc6565b6040516020016119f39594939291906135c4565b6040516020818303038152906040529050611a0d816120e8565b604051602001611a1d919061352e565b604051602081830303815290604052945050505050919050565b6000611a4286611fc6565b8360600151611a50846120e8565b856060015186602001518760400151611a6c8960800151611fc6565b6040516020016119f39796959493929190613139565b600860205260009081526040902080546001820180546001600160a01b039092169291611aae90612df4565b80601f0160208091040260200160405190810160405280929190818152602001828054611ada90612df4565b8015611b275780601f10611afc57610100808354040283529160200191611b27565b820191906000526020600020905b815481529060010190602001808311611b0a57829003601f168201915b505050505090806002018054611b3c90612df4565b80601f0160208091040260200160405190810160405280929190818152602001828054611b6890612df4565b8015611bb55780601f10611b8a57610100808354040283529160200191611bb5565b820191906000526020600020905b815481529060010190602001808311611b9857829003601f168201915b505050505090806003018054611bca90612df4565b80601f0160208091040260200160405190810160405280929190818152602001828054611bf690612df4565b8015611c435780601f10611c1857610100808354040283529160200191611c43565b820191906000526020600020905b815481529060010190602001808311611c2657829003601f168201915b5050505050908060040154905085565b611c5b611f47565b81611c785760405162461bcd60e51b81526004016106d190612e66565b6001600160a01b038116611c9e5760405162461bcd60e51b81526004016106d190613573565b60006001600160a01b0316600a8484604051611cbb9291906135b4565b908152604051908190036020019020546001600160a01b031603611d1d5760405162461bcd60e51b8152602060048201526019602482015278111a5cd8dbdc99081251081b9bdd081c9959da5cdd195c9959603a1b60448201526064016106d1565b6000600a8484604051611d319291906135b4565b908152604051908190036020018120546001600160a01b031691508290600a90611d5e90879087906135b4565b90815260405190819003602001812080546001600160a01b039384166001600160a01b031990911617905583821691831690611d9d90879087906135b4565b604051908190038120338252907faa7423b4705d26552953daadd7b95b4cae07a8250703c2b822f7ecf16b3f3b8b9060200160405180910390a450505050565b6000806001600160a01b0316600a8484604051611dfb9291906135b4565b908152604051908190036020019020546001600160a01b03161415905092915050565b6040805160008082526020820190925260609190815b50949350505050565b6001600160a01b03918216600090815260056020908152604080832093909416825291909152205460ff1690565b611e73611f47565b6001600160a01b038116611e9d57604051631e4fbdf760e01b8152600060048201526024016106d1565b611ea681611f74565b50565b6000818152600260205260408120546001600160a01b0316806105ba57604051637e27328960e01b8152600481018490526024016106d1565b6001600160a01b038216611f0c57604051633250574960e11b8152600060048201526024016106d1565b6000611f1a8383600061244b565b90506001600160a01b03811615610793576040516339e3563760e11b8152600060048201526024016106d1565b6006546001600160a01b031633146110355760405163118cdaa760e01b81523360048201526024016106d1565b600680546001600160a01b038381166001600160a01b0319831681179093556040519116919082907f8be0079c531659141344cd1fd0a4f28419497f9722a3daafe3b4186f6b6457e090600090a35050565b606081600003611fed5750506040805180820190915260018152600360fc1b602082015290565b8160005b8115612017578061200181612eb3565b91506120109050600a8361376a565b9150611ff1565b6000816001600160401b0381111561203157612031612807565b6040519080825280601f01601f19166020018201604052801561205b576020820181803683370190505b509050815b8515611e345761207160018261378c565b90506000612080600a8861376a565b61208b90600a61379f565b612095908861378c565b6120a09060306137b6565b905060008160f81b9050808484815181106120bd576120bd6137cf565b60200101906001600160f81b031916908160001a9053506120df600a8961376a565b97505050612060565b60606000604051806060016040528060408152602001613810604091398351909150600081900361212a57505060408051602081019091526000815292915050565b600060036121398360026137e5565b612143919061376a565b61214e90600461379f565b90506000816001600160401b0381111561216a5761216a612807565b6040519080825280601f01601f191660200182016040528015612194576020820181803683370190505b5090506000805b848210156123ea5760008583106121b35760006121d9565b88836121be81612eb3565b9450815181106121d0576121d06137cf565b016020015160f81c5b60ff16905060008684106121ee576000612214565b89846121f981612eb3565b95508151811061220b5761220b6137cf565b016020015160f81c5b60ff169050600087851061222957600061224f565b8a8561223481612eb3565b965081518110612246576122466137cf565b016020015160f81c5b60ff169050600081612269600885901b601087901b6137e5565b61227391906137e5565b905089601282901c603f168151811061228e5761228e6137cf565b01602001516001600160f81b03191687866122a881612eb3565b9750815181106122ba576122ba6137cf565b60200101906001600160f81b031916908160001a90535089600c82901c603f16815181106122ea576122ea6137cf565b01602001516001600160f81b031916878661230481612eb3565b975081518110612316576123166137cf565b60200101906001600160f81b031916908160001a90535089600682901c603f1681518110612346576123466137cf565b01602001516001600160f81b031916878661236081612eb3565b975081518110612372576123726137cf565b60200101906001600160f81b031916908160001a9053508981603f168151811061239e5761239e6137cf565b01602001516001600160f81b03191687866123b881612eb3565b9750815181106123ca576123ca6137cf565b60200101906001600160f81b031916908160001a9053505050505061219b565b60008111801561242857508261240160018361378c565b81518110612411576124116137cf565b6020910101516001600160f81b031916603d60f81b145b1561243f5780612437816137f8565b9150506123ea565b50909695505050505050565b6000828152600260205260408120546001600160a01b039081169083161561247857612478818486612544565b6001600160a01b038116156124b6576124956000856000806125a8565b6001600160a01b038116600090815260036020526040902080546000190190555b6001600160a01b038516156124e5576001600160a01b0385166000908152600360205260409020805460010190555b60008481526002602052604080822080546001600160a01b0319166001600160a01b0389811691821790925591518793918516917fddf252ad1be2c89b69c2b068fc378daa952ba7f163c4a11628f55a4df523b3ef91a4949350505050565b61254f8383836126ae565b610793576001600160a01b03831661257d57604051637e27328960e01b8152600481018290526024016106d1565b60405163177e802f60e01b81526001600160a01b0383166004820152602481018290526044016106d1565b80806125bc57506001600160a01b03821615155b1561267e5760006125cc84611ea9565b90506001600160a01b038316158015906125f85750826001600160a01b0316816001600160a01b031614155b801561260b57506126098184611e3d565b155b156126345760405163a9fbf51f60e01b81526001600160a01b03841660048201526024016106d1565b811561267c5783856001600160a01b0316826001600160a01b03167f8c5be1e5ebec7d5bd14f71427d1e84f3dd0314c0f7b2291e5b200ac8c7c3b92560405160405180910390a45b505b5050600090815260046020526040902080546001600160a01b0319166001600160a01b0392909216919091179055565b60006001600160a01b0383161580159061270c5750826001600160a01b0316846001600160a01b031614806126e857506126e88484611e3d565b8061270c57506000828152600460205260409020546001600160a01b038481169116145b949350505050565b60006020828403121561272657600080fd5b81356001600160e01b03198116811461273e57600080fd5b9392505050565b60005b83811015612760578181015183820152602001612748565b50506000910152565b60008151808452612781816020860160208601612745565b601f01601f19169290920160200192915050565b60208152600061273e6020830184612769565b6000602082840312156127ba57600080fd5b5035919050565b80356001600160a01b03811681146127d857600080fd5b919050565b600080604083850312156127f057600080fd5b6127f9836127c1565b946020939093013593505050565b634e487b7160e01b600052604160045260246000fd5b60006001600160401b038084111561283757612837612807565b604051601f8501601f19908116603f0116810190828211818310171561285f5761285f612807565b8160405280935085815286868601111561287857600080fd5b858560208301376000602087830101525050509392505050565b600082601f8301126128a357600080fd5b61273e8383356020850161281d565b6000806000606084860312156128c757600080fd5b6128d0846127c1565b925060208401356001600160401b03808211156128ec57600080fd5b6128f887838801612892565b9350604086013591508082111561290e57600080fd5b5061291b86828701612892565b9150509250925092565b60008060006060848603121561293a57600080fd5b612943846127c1565b9250612951602085016127c1565b9150604084013590509250925092565b600080600080600080600060e0888a03121561297c57600080fd5b612985886127c1565b965060208801356001600160401b03808211156129a157600080fd5b6129ad8b838c01612892565b975060408a01359150808211156129c357600080fd5b6129cf8b838c01612892565b965060608a01359150808211156129e557600080fd5b6129f18b838c01612892565b955060808a0135945060a08a0135915080821115612a0e57600080fd5b612a1a8b838c01612892565b935060c08a0135915080821115612a3057600080fd5b50612a3d8a828b01612892565b91505092959891949750929550565b602080825282516001600160a01b03168282015282015160a06040830152600090612a7a60c0840182612769565b90506040840151601f1980858403016060860152612a988383612769565b9250606086015191508085840301608086015250612ab68282612769565b915050608084015160a08401528091505092915050565b600060208284031215612adf57600080fd5b61273e826127c1565b60008060408385031215612afb57600080fd5b8235915060208301356001600160401b03811115612b1857600080fd5b612b2485828601612892565b9150509250929050565b60008060408385031215612b4157600080fd5b612b4a836127c1565b915060208301358015158114612b5f57600080fd5b809150509250929050565b600060208284031215612b7c57600080fd5b81356001600160401b03811115612b9257600080fd5b61270c84828501612892565b60008060008060808587031215612bb457600080fd5b612bbd856127c1565b9350612bcb602086016127c1565b92506040850135915060608501356001600160401b03811115612bed57600080fd5b8501601f81018713612bfe57600080fd5b612c0d8782356020840161281d565b91505092959194509250565b60008083601f840112612c2b57600080fd5b5081356001600160401b03811115612c4257600080fd5b602083019150836020828501011115612c5a57600080fd5b9250929050565b600080600060408486031215612c7657600080fd5b83356001600160401b03811115612c8c57600080fd5b612c9886828701612c19565b9094509250612cab9050602085016127c1565b90509250925092565b6001600160a01b038616815260a060208201819052600090612cd890830187612769565b8281036040840152612cea8187612769565b90508281036060840152612cfe8186612769565b9150508260808301529695505050505050565b60008060208385031215612d2457600080fd5b82356001600160401b03811115612d3a57600080fd5b612d4685828601612c19565b90969095509350505050565b60008060408385031215612d6557600080fd5b612d6e836127c1565b915060208301356001600160401b03811115612b1857600080fd5b6020808252825182820181905260009190848201906040850190845b8181101561243f57835183529284019291840191600101612da5565b60008060408385031215612dd457600080fd5b612ddd836127c1565b9150612deb602084016127c1565b90509250929050565b600181811c90821680612e0857607f821691505b602082108103612e2857634e487b7160e01b600052602260045260246000fd5b50919050565b60008151612e40818560208601612745565b9290920192915050565b60008251612e5c818460208701612745565b9190910192915050565b6020808252601a908201527f446973636f72642049442063616e6e6f7420626520656d707479000000000000604082015260600190565b634e487b7160e01b600052601160045260246000fd5b600060018201612ec557612ec5612e9d565b5060010190565b601f821115610793576000816000526020600020601f850160051c81016020861015612ef55750805b601f850160051c820191505b81811015612f1457828155600101612f01565b505050505050565b81516001600160401b03811115612f3557612f35612807565b612f4981612f438454612df4565b84612ecc565b602080601f831160018114612f7e5760008415612f665750858301515b600019600386901b1c1916600185901b178555612f14565b600085815260208120601f198616915b82811015612fad57888601518255948401946001909101908401612f8e565b5085821015612fcb5787850151600019600388901b60f8161c191681555b5050505050600190811b01905550565b606081526000612fee6060830186612769565b82810360208401526130008186612769565b905082810360408401526130148185612769565b9695505050505050565b7f7b2274726169745f74797065223a2022526f6c65222c202276616c7565223a208152601160f91b602082015260210190565b7f7b2274726169745f74797065223a2022446973636f7264204944222c20227661815266363ab2911d101160c91b602082015260270190565b7f7b2274726169745f74797065223a2022526f6c65204944222c202276616c7565815263111d101160e11b602082015260240190565b7f7b2274726169745f74797065223a20224d696e746564204174222c202276616c8152653ab2911d101160d11b602082015260260190565b7f2265787465726e616c5f75726c223a202268747470733a2f2f726973652d706181526e1cdccb9d995c98d95b0b985c1c088b608a1b6020820152602f0190565b787b226e616d65223a2022524953452050617373706f7274202360381b81526000885161316d816019850160208d01612745565b82016131806019820161088b60f21b9052565b7f226465736372697074696f6e223a2022524953452050617373706f7274204e46601b8201527f54202d2041206469676974616c206964656e7469747920746f6b656e20726570603b8201527f726573656e74696e67206d656d6265727368697020696e207468652052495345605b8201527f20636f6d6d756e6974792e5c6e5c6e5468697320736f756c626f756e6420746f607b8201527f6b656e207365727665732061732070726f6f66206f6620796f757220726f6c65609b8201527f20616e6420636f6e747269627574696f6e2077697468696e207468652052495360bb8201527f452065636f73797374656d2e20456163682070617373706f727420697320706560db8201527f726d616e656e746c79206c696e6b656420746f20796f757220446973636f726460fb8201527f206964656e7469747920616e642063616e6e6f74206265207472616e7366657261011b8201527f7265642c20656e737572696e672061757468656e74696320726570726573656e61013b8201527f746174696f6e206f6620796f757220706c61636520696e206f757220636f6d6d61015b8201526f03ab734ba3c972e372e372937b6329d160851b61017b8201526134386134326133fc61335661018b85018d612e2e565b7f5c6e5c6e546869732070617373706f727420726570726573656e747320796f7581527f7220756e6971756520636f6e747269627574696f6e20746f207468652052495360208201527f4520636f6d6d756e69747920616e64207365727665732061732061207065726d60408201527f616e656e74207265636f7264206f6620796f7572206d656d626572736869702e606082015261088b60f21b608082015260820190565b7f22696d616765223a2022646174613a696d6167652f7376672b786d6c3b626173815263194d8d0b60e21b602082015260240190565b89612e2e565b61088b60f21b815290506e2261747472696275746573223a205b60881b600282015261346f6134696011830161301e565b88612e2e565b62089f4b60ea1b8152905061348f61348960038301613051565b87612e2e565b62089f4b60ea1b815290506134af6134a96003830161308a565b86612e2e565b62089f4b60ea1b815290506134cf6134c9600383016130c0565b85612e2e565b61227d60f01b8152905061174b60f21b60028201526134f0600482016130f8565b7f226261636b67726f756e645f636f6c6f72223a202230303030303022000000008152607d60f81b601c820152601d019a9950505050505050505050565b7f646174613a6170706c69636174696f6e2f6a736f6e3b6261736536342c00000081526000825161356681601d850160208701612745565b91909101601d0192915050565b60208082526021908201527f4e65772077616c6c657420616464726573732063616e6e6f74206265207a65726040820152606f60f81b606082015260800190565b8183823760009101908152919050565b787b226e616d65223a2022524953452050617373706f7274202360381b8152600086516135f8816019850160208b01612745565b61088b60f21b601991840191820152613699601b82017f226465736372697074696f6e223a2022524953452050617373706f7274204e4681527f54202d2041206469676974616c206964656e7469747920746f6b656e2072657060208201527f726573656e74696e67206d656d6265727368697020696e20746865205249534560408201526c0818dbdb5b5d5b9a5d1e4b888b609a1b6060820152606d0190565b6e2261747472696275746573223a205b60881b815290506136bf613469600f830161301e565b62089f4b60ea1b815290506136d961348960038301613051565b62089f4b60ea1b815290506136f36134a96003830161308a565b62089f4b60ea1b8152905061370d6134c9600383016130c0565b61227d60f01b8152905061174b60f21b600282015261372e600482016130f8565b7f226261636b67726f756e645f636f6c6f72223a202230303030303022000000008152607d60f81b601c820152601d0198975050505050505050565b60008261378757634e487b7160e01b600052601260045260246000fd5b500490565b818103818111156105ba576105ba612e9d565b80820281158282048414176105ba576105ba612e9d565b60ff81811683821601908111156105ba576105ba612e9d565b634e487b7160e01b600052603260045260246000fd5b808201808211156105ba576105ba612e9d565b60008161380757613807612e9d565b50600019019056fe4142434445464748494a4b4c4d4e4f505152535455565758595a6162636465666768696a6b6c6d6e6f707172737475767778797a303132333435363738392b2fa264697066735822122079247ee6bf281e8dc683ee8f120dbc79f9032db8bfe98a839215b066b380e05364736f6c63430008180033",
  "linkReferences": {},
  "deployedLinkReferences": {}
}